{
	"contracts/nft-market.sol": {
		"Market": {
			"abi": [
				{
					"inputs": [
						{
							"internalType": "address",
							"name": "_erc20",
							"type": "address"
						},
						{
							"internalType": "address",
							"name": "_erc721",
							"type": "address"
						}
					],
					"stateMutability": "nonpayable",
					"type": "constructor"
				},
				{
					"anonymous": false,
					"inputs": [
						{
							"indexed": false,
							"internalType": "address",
							"name": "seller",
							"type": "address"
						},
						{
							"indexed": false,
							"internalType": "address",
							"name": "buyer",
							"type": "address"
						},
						{
							"indexed": false,
							"internalType": "uint256",
							"name": "tokenId",
							"type": "uint256"
						},
						{
							"indexed": false,
							"internalType": "uint256",
							"name": "price",
							"type": "uint256"
						}
					],
					"name": "Deal",
					"type": "event"
				},
				{
					"anonymous": false,
					"inputs": [
						{
							"indexed": false,
							"internalType": "address",
							"name": "seller",
							"type": "address"
						},
						{
							"indexed": false,
							"internalType": "uint256",
							"name": "tokenId",
							"type": "uint256"
						},
						{
							"indexed": false,
							"internalType": "uint256",
							"name": "price",
							"type": "uint256"
						}
					],
					"name": "NewOrder",
					"type": "event"
				},
				{
					"anonymous": false,
					"inputs": [
						{
							"indexed": false,
							"internalType": "address",
							"name": "seller",
							"type": "address"
						},
						{
							"indexed": false,
							"internalType": "uint256",
							"name": "tokenId",
							"type": "uint256"
						}
					],
					"name": "OrderCancel",
					"type": "event"
				},
				{
					"anonymous": false,
					"inputs": [
						{
							"indexed": false,
							"internalType": "address",
							"name": "seller",
							"type": "address"
						},
						{
							"indexed": false,
							"internalType": "uint256",
							"name": "tokenId",
							"type": "uint256"
						},
						{
							"indexed": false,
							"internalType": "uint256",
							"name": "oldPrice",
							"type": "uint256"
						},
						{
							"indexed": false,
							"internalType": "uint256",
							"name": "newPrice",
							"type": "uint256"
						}
					],
					"name": "PriceChange",
					"type": "event"
				},
				{
					"inputs": [
						{
							"internalType": "uint256",
							"name": "_tokenId",
							"type": "uint256"
						},
						{
							"internalType": "uint256",
							"name": "_price",
							"type": "uint256"
						}
					],
					"name": "buy",
					"outputs": [],
					"stateMutability": "nonpayable",
					"type": "function"
				},
				{
					"inputs": [
						{
							"internalType": "uint256",
							"name": "_tokenId",
							"type": "uint256"
						}
					],
					"name": "cancelOrder",
					"outputs": [],
					"stateMutability": "nonpayable",
					"type": "function"
				},
				{
					"inputs": [
						{
							"internalType": "uint256",
							"name": "_tokenId",
							"type": "uint256"
						},
						{
							"internalType": "uint256",
							"name": "_newPrice",
							"type": "uint256"
						}
					],
					"name": "chagePrice",
					"outputs": [],
					"stateMutability": "nonpayable",
					"type": "function"
				},
				{
					"inputs": [],
					"name": "erc20",
					"outputs": [
						{
							"internalType": "contract IERC20",
							"name": "",
							"type": "address"
						}
					],
					"stateMutability": "view",
					"type": "function"
				},
				{
					"inputs": [],
					"name": "erc721",
					"outputs": [
						{
							"internalType": "contract IERC721",
							"name": "",
							"type": "address"
						}
					],
					"stateMutability": "view",
					"type": "function"
				},
				{
					"inputs": [],
					"name": "getAllNFTs",
					"outputs": [
						{
							"components": [
								{
									"internalType": "address",
									"name": "seller",
									"type": "address"
								},
								{
									"internalType": "uint256",
									"name": "tokenId",
									"type": "uint256"
								},
								{
									"internalType": "uint256",
									"name": "price",
									"type": "uint256"
								}
							],
							"internalType": "struct Market.Order[]",
							"name": "",
							"type": "tuple[]"
						}
					],
					"stateMutability": "view",
					"type": "function"
				},
				{
					"inputs": [],
					"name": "getMyNFTS",
					"outputs": [
						{
							"components": [
								{
									"internalType": "address",
									"name": "seller",
									"type": "address"
								},
								{
									"internalType": "uint256",
									"name": "tokenId",
									"type": "uint256"
								},
								{
									"internalType": "uint256",
									"name": "price",
									"type": "uint256"
								}
							],
							"internalType": "struct Market.Order[]",
							"name": "",
							"type": "tuple[]"
						}
					],
					"stateMutability": "view",
					"type": "function"
				},
				{
					"inputs": [],
					"name": "getOrdersLength",
					"outputs": [
						{
							"internalType": "uint256",
							"name": "",
							"type": "uint256"
						}
					],
					"stateMutability": "view",
					"type": "function"
				},
				{
					"inputs": [
						{
							"internalType": "uint256",
							"name": "_tokenId",
							"type": "uint256"
						}
					],
					"name": "isListed",
					"outputs": [
						{
							"internalType": "bool",
							"name": "",
							"type": "bool"
						}
					],
					"stateMutability": "view",
					"type": "function"
				},
				{
					"inputs": [
						{
							"internalType": "address",
							"name": "operator",
							"type": "address"
						},
						{
							"internalType": "address",
							"name": "from",
							"type": "address"
						},
						{
							"internalType": "uint256",
							"name": "tokenId",
							"type": "uint256"
						},
						{
							"internalType": "bytes",
							"name": "data",
							"type": "bytes"
						}
					],
					"name": "onERC721Received",
					"outputs": [
						{
							"internalType": "bytes4",
							"name": "",
							"type": "bytes4"
						}
					],
					"stateMutability": "nonpayable",
					"type": "function"
				},
				{
					"inputs": [
						{
							"internalType": "uint256",
							"name": "",
							"type": "uint256"
						}
					],
					"name": "orderOfId",
					"outputs": [
						{
							"internalType": "address",
							"name": "seller",
							"type": "address"
						},
						{
							"internalType": "uint256",
							"name": "tokenId",
							"type": "uint256"
						},
						{
							"internalType": "uint256",
							"name": "price",
							"type": "uint256"
						}
					],
					"stateMutability": "view",
					"type": "function"
				},
				{
					"inputs": [
						{
							"internalType": "uint256",
							"name": "",
							"type": "uint256"
						}
					],
					"name": "orders",
					"outputs": [
						{
							"internalType": "address",
							"name": "seller",
							"type": "address"
						},
						{
							"internalType": "uint256",
							"name": "tokenId",
							"type": "uint256"
						},
						{
							"internalType": "uint256",
							"name": "price",
							"type": "uint256"
						}
					],
					"stateMutability": "view",
					"type": "function"
				}
			],
			"devdoc": {
				"kind": "dev",
				"methods": {},
				"version": 1
			},
			"evm": {
				"assembly": "    /* \"contracts/nft-market.sol\":179:5252  contract Market{... */\n  mstore(0x40, 0x80)\n    /* \"contracts/nft-market.sol\":889:1137  constructor(address _erc20, address _erc721){... */\n  callvalue\n  dup1\n  iszero\n  tag_1\n  jumpi\n  0x00\n  dup1\n  revert\ntag_1:\n  pop\n  mload(0x40)\n  sub(codesize, bytecodeSize)\n  dup1\n  bytecodeSize\n  dup4\n  codecopy\n  dup2\n  dup2\n  add\n  0x40\n  mstore\n  dup2\n  add\n  swap1\n  tag_2\n  swap2\n  swap1\n  tag_3\n  jump\t// in\ntag_2:\n    /* \"contracts/nft-market.sol\":970:971  0 */\n  0x00\n    /* \"contracts/nft-market.sol\":952:972  _erc20 != address(0) */\n  0xffffffffffffffffffffffffffffffffffffffff\n  and\n    /* \"contracts/nft-market.sol\":952:958  _erc20 */\n  dup3\n    /* \"contracts/nft-market.sol\":952:972  _erc20 != address(0) */\n  0xffffffffffffffffffffffffffffffffffffffff\n  and\n  sub\n    /* \"contracts/nft-market.sol\":944:996  require(_erc20 != address(0), \"error: zero address\") */\n  tag_6\n  jumpi\n  mload(0x40)\n  0x08c379a000000000000000000000000000000000000000000000000000000000\n  dup2\n  mstore\n  0x04\n  add\n  tag_7\n  swap1\n  tag_8\n  jump\t// in\ntag_7:\n  mload(0x40)\n  dup1\n  swap2\n  sub\n  swap1\n  revert\ntag_6:\n    /* \"contracts/nft-market.sol\":1034:1035  0 */\n  0x00\n    /* \"contracts/nft-market.sol\":1015:1036  _erc721 != address(0) */\n  0xffffffffffffffffffffffffffffffffffffffff\n  and\n    /* \"contracts/nft-market.sol\":1015:1022  _erc721 */\n  dup2\n    /* \"contracts/nft-market.sol\":1015:1036  _erc721 != address(0) */\n  0xffffffffffffffffffffffffffffffffffffffff\n  and\n  sub\n    /* \"contracts/nft-market.sol\":1007:1060  require(_erc721 != address(0), \"error: zero address\") */\n  tag_9\n  jumpi\n  mload(0x40)\n  0x08c379a000000000000000000000000000000000000000000000000000000000\n  dup2\n  mstore\n  0x04\n  add\n  tag_10\n  swap1\n  tag_8\n  jump\t// in\ntag_10:\n  mload(0x40)\n  dup1\n  swap2\n  sub\n  swap1\n  revert\ntag_9:\n    /* \"contracts/nft-market.sol\":1086:1092  _erc20 */\n  dup2\n    /* \"contracts/nft-market.sol\":1071:1076  erc20 */\n  0x00\n  dup1\n    /* \"contracts/nft-market.sol\":1071:1093  erc20 = IERC20(_erc20) */\n  0x0100\n  exp\n  dup2\n  sload\n  dup2\n  0xffffffffffffffffffffffffffffffffffffffff\n  mul\n  not\n  and\n  swap1\n  dup4\n  0xffffffffffffffffffffffffffffffffffffffff\n  and\n  mul\n  or\n  swap1\n  sstore\n  pop\n    /* \"contracts/nft-market.sol\":1121:1128  _erc721 */\n  dup1\n    /* \"contracts/nft-market.sol\":1104:1110  erc721 */\n  0x01\n  0x00\n    /* \"contracts/nft-market.sol\":1104:1129  erc721 = IERC721(_erc721) */\n  0x0100\n  exp\n  dup2\n  sload\n  dup2\n  0xffffffffffffffffffffffffffffffffffffffff\n  mul\n  not\n  and\n  swap1\n  dup4\n  0xffffffffffffffffffffffffffffffffffffffff\n  and\n  mul\n  or\n  swap1\n  sstore\n  pop\n    /* \"contracts/nft-market.sol\":889:1137  constructor(address _erc20, address _erc721){... */\n  pop\n  pop\n    /* \"contracts/nft-market.sol\":179:5252  contract Market{... */\n  jump(tag_11)\n    /* \"#utility.yul\":88:205   */\ntag_13:\n    /* \"#utility.yul\":197:198   */\n  0x00\n    /* \"#utility.yul\":194:195   */\n  dup1\n    /* \"#utility.yul\":187:199   */\n  revert\n    /* \"#utility.yul\":334:460   */\ntag_15:\n    /* \"#utility.yul\":371:378   */\n  0x00\n    /* \"#utility.yul\":411:453   */\n  0xffffffffffffffffffffffffffffffffffffffff\n    /* \"#utility.yul\":404:409   */\n  dup3\n    /* \"#utility.yul\":400:454   */\n  and\n    /* \"#utility.yul\":389:454   */\n  swap1\n  pop\n    /* \"#utility.yul\":334:460   */\n  swap2\n  swap1\n  pop\n  jump\t// out\n    /* \"#utility.yul\":466:562   */\ntag_16:\n    /* \"#utility.yul\":503:510   */\n  0x00\n    /* \"#utility.yul\":532:556   */\n  tag_28\n    /* \"#utility.yul\":550:555   */\n  dup3\n    /* \"#utility.yul\":532:556   */\n  tag_15\n  jump\t// in\ntag_28:\n    /* \"#utility.yul\":521:556   */\n  swap1\n  pop\n    /* \"#utility.yul\":466:562   */\n  swap2\n  swap1\n  pop\n  jump\t// out\n    /* \"#utility.yul\":568:690   */\ntag_17:\n    /* \"#utility.yul\":641:665   */\n  tag_30\n    /* \"#utility.yul\":659:664   */\n  dup2\n    /* \"#utility.yul\":641:665   */\n  tag_16\n  jump\t// in\ntag_30:\n    /* \"#utility.yul\":634:639   */\n  dup2\n    /* \"#utility.yul\":631:666   */\n  eq\n    /* \"#utility.yul\":621:684   */\n  tag_31\n  jumpi\n    /* \"#utility.yul\":680:681   */\n  0x00\n    /* \"#utility.yul\":677:678   */\n  dup1\n    /* \"#utility.yul\":670:682   */\n  revert\n    /* \"#utility.yul\":621:684   */\ntag_31:\n    /* \"#utility.yul\":568:690   */\n  pop\n  jump\t// out\n    /* \"#utility.yul\":696:839   */\ntag_18:\n    /* \"#utility.yul\":753:758   */\n  0x00\n    /* \"#utility.yul\":784:790   */\n  dup2\n    /* \"#utility.yul\":778:791   */\n  mload\n    /* \"#utility.yul\":769:791   */\n  swap1\n  pop\n    /* \"#utility.yul\":800:833   */\n  tag_33\n    /* \"#utility.yul\":827:832   */\n  dup2\n    /* \"#utility.yul\":800:833   */\n  tag_17\n  jump\t// in\ntag_33:\n    /* \"#utility.yul\":696:839   */\n  swap3\n  swap2\n  pop\n  pop\n  jump\t// out\n    /* \"#utility.yul\":845:1352   */\ntag_3:\n    /* \"#utility.yul\":924:930   */\n  0x00\n    /* \"#utility.yul\":932:938   */\n  dup1\n    /* \"#utility.yul\":981:983   */\n  0x40\n    /* \"#utility.yul\":969:978   */\n  dup4\n    /* \"#utility.yul\":960:967   */\n  dup6\n    /* \"#utility.yul\":956:979   */\n  sub\n    /* \"#utility.yul\":952:984   */\n  slt\n    /* \"#utility.yul\":949:1068   */\n  iszero\n  tag_35\n  jumpi\n    /* \"#utility.yul\":987:1066   */\n  tag_36\n  tag_13\n  jump\t// in\ntag_36:\n    /* \"#utility.yul\":949:1068   */\ntag_35:\n    /* \"#utility.yul\":1107:1108   */\n  0x00\n    /* \"#utility.yul\":1132:1196   */\n  tag_37\n    /* \"#utility.yul\":1188:1195   */\n  dup6\n    /* \"#utility.yul\":1179:1185   */\n  dup3\n    /* \"#utility.yul\":1168:1177   */\n  dup7\n    /* \"#utility.yul\":1164:1186   */\n  add\n    /* \"#utility.yul\":1132:1196   */\n  tag_18\n  jump\t// in\ntag_37:\n    /* \"#utility.yul\":1122:1196   */\n  swap3\n  pop\n    /* \"#utility.yul\":1078:1206   */\n  pop\n    /* \"#utility.yul\":1245:1247   */\n  0x20\n    /* \"#utility.yul\":1271:1335   */\n  tag_38\n    /* \"#utility.yul\":1327:1334   */\n  dup6\n    /* \"#utility.yul\":1318:1324   */\n  dup3\n    /* \"#utility.yul\":1307:1316   */\n  dup7\n    /* \"#utility.yul\":1303:1325   */\n  add\n    /* \"#utility.yul\":1271:1335   */\n  tag_18\n  jump\t// in\ntag_38:\n    /* \"#utility.yul\":1261:1335   */\n  swap2\n  pop\n    /* \"#utility.yul\":1216:1345   */\n  pop\n    /* \"#utility.yul\":845:1352   */\n  swap3\n  pop\n  swap3\n  swap1\n  pop\n  jump\t// out\n    /* \"#utility.yul\":1358:1527   */\ntag_19:\n    /* \"#utility.yul\":1442:1453   */\n  0x00\n    /* \"#utility.yul\":1476:1482   */\n  dup3\n    /* \"#utility.yul\":1471:1474   */\n  dup3\n    /* \"#utility.yul\":1464:1483   */\n  mstore\n    /* \"#utility.yul\":1516:1520   */\n  0x20\n    /* \"#utility.yul\":1511:1514   */\n  dup3\n    /* \"#utility.yul\":1507:1521   */\n  add\n    /* \"#utility.yul\":1492:1521   */\n  swap1\n  pop\n    /* \"#utility.yul\":1358:1527   */\n  swap3\n  swap2\n  pop\n  pop\n  jump\t// out\n    /* \"#utility.yul\":1533:1702   */\ntag_20:\n    /* \"#utility.yul\":1673:1694   */\n  0x6572726f723a207a65726f206164647265737300000000000000000000000000\n    /* \"#utility.yul\":1669:1670   */\n  0x00\n    /* \"#utility.yul\":1661:1667   */\n  dup3\n    /* \"#utility.yul\":1657:1671   */\n  add\n    /* \"#utility.yul\":1650:1695   */\n  mstore\n    /* \"#utility.yul\":1533:1702   */\n  pop\n  jump\t// out\n    /* \"#utility.yul\":1708:2074   */\ntag_21:\n    /* \"#utility.yul\":1850:1853   */\n  0x00\n    /* \"#utility.yul\":1871:1938   */\n  tag_42\n    /* \"#utility.yul\":1935:1937   */\n  0x13\n    /* \"#utility.yul\":1930:1933   */\n  dup4\n    /* \"#utility.yul\":1871:1938   */\n  tag_19\n  jump\t// in\ntag_42:\n    /* \"#utility.yul\":1864:1938   */\n  swap2\n  pop\n    /* \"#utility.yul\":1947:2040   */\n  tag_43\n    /* \"#utility.yul\":2036:2039   */\n  dup3\n    /* \"#utility.yul\":1947:2040   */\n  tag_20\n  jump\t// in\ntag_43:\n    /* \"#utility.yul\":2065:2067   */\n  0x20\n    /* \"#utility.yul\":2060:2063   */\n  dup3\n    /* \"#utility.yul\":2056:2068   */\n  add\n    /* \"#utility.yul\":2049:2068   */\n  swap1\n  pop\n    /* \"#utility.yul\":1708:2074   */\n  swap2\n  swap1\n  pop\n  jump\t// out\n    /* \"#utility.yul\":2080:2499   */\ntag_8:\n    /* \"#utility.yul\":2246:2250   */\n  0x00\n    /* \"#utility.yul\":2284:2286   */\n  0x20\n    /* \"#utility.yul\":2273:2282   */\n  dup3\n    /* \"#utility.yul\":2269:2287   */\n  add\n    /* \"#utility.yul\":2261:2287   */\n  swap1\n  pop\n    /* \"#utility.yul\":2333:2342   */\n  dup2\n    /* \"#utility.yul\":2327:2331   */\n  dup2\n    /* \"#utility.yul\":2323:2343   */\n  sub\n    /* \"#utility.yul\":2319:2320   */\n  0x00\n    /* \"#utility.yul\":2308:2317   */\n  dup4\n    /* \"#utility.yul\":2304:2321   */\n  add\n    /* \"#utility.yul\":2297:2344   */\n  mstore\n    /* \"#utility.yul\":2361:2492   */\n  tag_45\n    /* \"#utility.yul\":2487:2491   */\n  dup2\n    /* \"#utility.yul\":2361:2492   */\n  tag_21\n  jump\t// in\ntag_45:\n    /* \"#utility.yul\":2353:2492   */\n  swap1\n  pop\n    /* \"#utility.yul\":2080:2499   */\n  swap2\n  swap1\n  pop\n  jump\t// out\n    /* \"contracts/nft-market.sol\":179:5252  contract Market{... */\ntag_11:\n  dataSize(sub_0)\n  dup1\n  dataOffset(sub_0)\n  0x00\n  codecopy\n  0x00\n  return\nstop\n\nsub_0: assembly {\n        /* \"contracts/nft-market.sol\":179:5252  contract Market{... */\n      mstore(0x40, 0x80)\n      callvalue\n      dup1\n      iszero\n      tag_1\n      jumpi\n      0x00\n      dup1\n      revert\n    tag_1:\n      pop\n      jumpi(tag_2, lt(calldatasize, 0x04))\n      shr(0xe0, calldataload(0x00))\n      dup1\n      0xbca6ce64\n      gt\n      tag_15\n      jumpi\n      dup1\n      0xbca6ce64\n      eq\n      tag_9\n      jumpi\n      dup1\n      0xd6febde8\n      eq\n      tag_10\n      jumpi\n      dup1\n      0xe0391b09\n      eq\n      tag_11\n      jumpi\n      dup1\n      0xe5ac40b3\n      eq\n      tag_12\n      jumpi\n      dup1\n      0xe9e8e962\n      eq\n      tag_13\n      jumpi\n      dup1\n      0xfcce4883\n      eq\n      tag_14\n      jumpi\n      jump(tag_2)\n    tag_15:\n      dup1\n      0x07c2e16c\n      eq\n      tag_3\n      jumpi\n      dup1\n      0x150b7a02\n      eq\n      tag_4\n      jumpi\n      dup1\n      0x394a9077\n      eq\n      tag_5\n      jumpi\n      dup1\n      0x514fcac7\n      eq\n      tag_6\n      jumpi\n      dup1\n      0x785e9e86\n      eq\n      tag_7\n      jumpi\n      dup1\n      0xa85c38ef\n      eq\n      tag_8\n      jumpi\n    tag_2:\n      0x00\n      dup1\n      revert\n        /* \"contracts/nft-market.sol\":4671:4767  function getOrdersLength() external view returns(uint256){... */\n    tag_3:\n      tag_16\n      tag_17\n      jump\t// in\n    tag_16:\n      mload(0x40)\n      tag_18\n      swap2\n      swap1\n      tag_19\n      jump\t// in\n    tag_18:\n      mload(0x40)\n      dup1\n      swap2\n      sub\n      swap1\n      return\n        /* \"contracts/nft-market.sol\":3486:3966  function onERC721Received(address operator, address from, uint256 tokenId, bytes calldata data) external returns(bytes4){... */\n    tag_4:\n      tag_20\n      0x04\n      dup1\n      calldatasize\n      sub\n      dup2\n      add\n      swap1\n      tag_21\n      swap2\n      swap1\n      tag_22\n      jump\t// in\n    tag_21:\n      tag_23\n      jump\t// in\n    tag_20:\n      mload(0x40)\n      tag_24\n      swap2\n      swap1\n      tag_25\n      jump\t// in\n    tag_24:\n      mload(0x40)\n      dup1\n      swap2\n      sub\n      swap1\n      return\n        /* \"contracts/nft-market.sol\":427:469  mapping(uint256 => Order) public orderOfId */\n    tag_5:\n      tag_26\n      0x04\n      dup1\n      calldatasize\n      sub\n      dup2\n      add\n      swap1\n      tag_27\n      swap2\n      swap1\n      tag_28\n      jump\t// in\n    tag_27:\n      tag_29\n      jump\t// in\n    tag_26:\n      mload(0x40)\n      tag_30\n      swap4\n      swap3\n      swap2\n      swap1\n      tag_31\n      jump\t// in\n    tag_30:\n      mload(0x40)\n      dup1\n      swap2\n      sub\n      swap1\n      return\n        /* \"contracts/nft-market.sol\":2263:2567  function cancelOrder(uint256 _tokenId) public {... */\n    tag_6:\n      tag_32\n      0x04\n      dup1\n      calldatasize\n      sub\n      dup2\n      add\n      swap1\n      tag_33\n      swap2\n      swap1\n      tag_28\n      jump\t// in\n    tag_33:\n      tag_34\n      jump\t// in\n    tag_32:\n      stop\n        /* \"contracts/nft-market.sol\":201:220  IERC20 public erc20 */\n    tag_7:\n      tag_35\n      tag_36\n      jump\t// in\n    tag_35:\n      mload(0x40)\n      tag_37\n      swap2\n      swap1\n      tag_38\n      jump\t// in\n    tag_37:\n      mload(0x40)\n      dup1\n      swap2\n      sub\n      swap1\n      return\n        /* \"contracts/nft-market.sol\":476:497  Order[] public orders */\n    tag_8:\n      tag_39\n      0x04\n      dup1\n      calldatasize\n      sub\n      dup2\n      add\n      swap1\n      tag_40\n      swap2\n      swap1\n      tag_28\n      jump\t// in\n    tag_40:\n      tag_41\n      jump\t// in\n    tag_39:\n      mload(0x40)\n      tag_42\n      swap4\n      swap3\n      swap2\n      swap1\n      tag_31\n      jump\t// in\n    tag_42:\n      mload(0x40)\n      dup1\n      swap2\n      sub\n      swap1\n      return\n        /* \"contracts/nft-market.sol\":227:248  IERC721 public erc721 */\n    tag_9:\n      tag_43\n      tag_44\n      jump\t// in\n    tag_43:\n      mload(0x40)\n      tag_45\n      swap2\n      swap1\n      tag_46\n      jump\t// in\n    tag_45:\n      mload(0x40)\n      dup1\n      swap2\n      sub\n      swap1\n      return\n        /* \"contracts/nft-market.sol\":1612:2253  function buy(uint256 _tokenId, uint256 _price) external {... */\n    tag_10:\n      tag_47\n      0x04\n      dup1\n      calldatasize\n      sub\n      dup2\n      add\n      swap1\n      tag_48\n      swap2\n      swap1\n      tag_49\n      jump\t// in\n    tag_48:\n      tag_50\n      jump\t// in\n    tag_47:\n      stop\n        /* \"contracts/nft-market.sol\":4775:4866  function getAllNFTs() external view returns(Order[] memory){... */\n    tag_11:\n      tag_51\n      tag_52\n      jump\t// in\n    tag_51:\n      mload(0x40)\n      tag_53\n      swap2\n      swap1\n      tag_54\n      jump\t// in\n    tag_53:\n      mload(0x40)\n      dup1\n      swap2\n      sub\n      swap1\n      return\n        /* \"contracts/nft-market.sol\":2575:3022  function chagePrice(uint256 _tokenId,uint256 _newPrice) public {... */\n    tag_12:\n      tag_55\n      0x04\n      dup1\n      calldatasize\n      sub\n      dup2\n      add\n      swap1\n      tag_56\n      swap2\n      swap1\n      tag_49\n      jump\t// in\n    tag_56:\n      tag_57\n      jump\t// in\n    tag_55:\n      stop\n        /* \"contracts/nft-market.sol\":4874:5249  function getMyNFTS() external view returns(Order[] memory){... */\n    tag_13:\n      tag_58\n      tag_59\n      jump\t// in\n    tag_58:\n      mload(0x40)\n      tag_60\n      swap2\n      swap1\n      tag_54\n      jump\t// in\n    tag_60:\n      mload(0x40)\n      dup1\n      swap2\n      sub\n      swap1\n      return\n        /* \"contracts/nft-market.sol\":3975:4104  function isListed(uint256 _tokenId) public view returns (bool) {... */\n    tag_14:\n      tag_61\n      0x04\n      dup1\n      calldatasize\n      sub\n      dup2\n      add\n      swap1\n      tag_62\n      swap2\n      swap1\n      tag_28\n      jump\t// in\n    tag_62:\n      tag_63\n      jump\t// in\n    tag_61:\n      mload(0x40)\n      tag_64\n      swap2\n      swap1\n      tag_65\n      jump\t// in\n    tag_64:\n      mload(0x40)\n      dup1\n      swap2\n      sub\n      swap1\n      return\n        /* \"contracts/nft-market.sol\":4671:4767  function getOrdersLength() external view returns(uint256){... */\n    tag_17:\n        /* \"contracts/nft-market.sol\":4720:4727  uint256 */\n      0x00\n        /* \"contracts/nft-market.sol\":4746:4752  orders */\n      0x03\n        /* \"contracts/nft-market.sol\":4746:4759  orders.length */\n      dup1\n      sload\n      swap1\n      pop\n        /* \"contracts/nft-market.sol\":4739:4759  return orders.length */\n      swap1\n      pop\n        /* \"contracts/nft-market.sol\":4671:4767  function getOrdersLength() external view returns(uint256){... */\n      swap1\n      jump\t// out\n        /* \"contracts/nft-market.sol\":3486:3966  function onERC721Received(address operator, address from, uint256 tokenId, bytes calldata data) external returns(bytes4){... */\n    tag_23:\n        /* \"contracts/nft-market.sol\":3599:3605  bytes4 */\n      0x00\n        /* \"contracts/nft-market.sol\":3617:3630  uint256 price */\n      dup1\n        /* \"contracts/nft-market.sol\":3633:3650  toUint256(data,0) */\n      tag_68\n        /* \"contracts/nft-market.sol\":3643:3647  data */\n      dup5\n      dup5\n        /* \"contracts/nft-market.sol\":3633:3650  toUint256(data,0) */\n      dup1\n      dup1\n      0x1f\n      add\n      0x20\n      dup1\n      swap2\n      div\n      mul\n      0x20\n      add\n      mload(0x40)\n      swap1\n      dup2\n      add\n      0x40\n      mstore\n      dup1\n      swap4\n      swap3\n      swap2\n      swap1\n      dup2\n      dup2\n      mstore\n      0x20\n      add\n      dup4\n      dup4\n      dup1\n      dup3\n      dup5\n      calldatacopy\n      0x00\n      dup2\n      dup5\n      add\n      mstore\n      not(0x1f)\n      0x1f\n      dup3\n      add\n      and\n      swap1\n      pop\n      dup1\n      dup4\n      add\n      swap3\n      pop\n      pop\n      pop\n      pop\n      pop\n      pop\n      pop\n        /* \"contracts/nft-market.sol\":3648:3649  0 */\n      0x00\n        /* \"contracts/nft-market.sol\":3633:3642  toUint256 */\n      tag_69\n        /* \"contracts/nft-market.sol\":3633:3650  toUint256(data,0) */\n      jump\t// in\n    tag_68:\n        /* \"contracts/nft-market.sol\":3617:3650  uint256 price = toUint256(data,0) */\n      swap1\n      pop\n        /* \"contracts/nft-market.sol\":3661:3667  orders */\n      0x03\n        /* \"contracts/nft-market.sol\":3673:3698  Order(from,tokenId,price) */\n      mload(0x40)\n      dup1\n      0x60\n      add\n      0x40\n      mstore\n      dup1\n        /* \"contracts/nft-market.sol\":3679:3683  from */\n      dup9\n        /* \"contracts/nft-market.sol\":3673:3698  Order(from,tokenId,price) */\n      0xffffffffffffffffffffffffffffffffffffffff\n      and\n      dup2\n      mstore\n      0x20\n      add\n        /* \"contracts/nft-market.sol\":3684:3691  tokenId */\n      dup8\n        /* \"contracts/nft-market.sol\":3673:3698  Order(from,tokenId,price) */\n      dup2\n      mstore\n      0x20\n      add\n        /* \"contracts/nft-market.sol\":3692:3697  price */\n      dup4\n        /* \"contracts/nft-market.sol\":3673:3698  Order(from,tokenId,price) */\n      dup2\n      mstore\n      pop\n        /* \"contracts/nft-market.sol\":3661:3699  orders.push(Order(from,tokenId,price)) */\n      swap1\n      dup1\n      0x01\n      dup2\n      sload\n      add\n      dup1\n      dup3\n      sstore\n      dup1\n      swap2\n      pop\n      pop\n      0x01\n      swap1\n      sub\n      swap1\n      0x00\n      mstore\n      keccak256(0x00, 0x20)\n      swap1\n      0x03\n      mul\n      add\n      0x00\n      swap1\n      swap2\n      swap1\n      swap2\n      swap1\n      swap2\n      pop\n      0x00\n      dup3\n      add\n      mload\n      dup2\n      0x00\n      add\n      exp(0x0100, 0x00)\n      dup2\n      sload\n      dup2\n      0xffffffffffffffffffffffffffffffffffffffff\n      mul\n      not\n      and\n      swap1\n      dup4\n      0xffffffffffffffffffffffffffffffffffffffff\n      and\n      mul\n      or\n      swap1\n      sstore\n      pop\n      0x20\n      dup3\n      add\n      mload\n      dup2\n      0x01\n      add\n      sstore\n      0x40\n      dup3\n      add\n      mload\n      dup2\n      0x02\n      add\n      sstore\n      pop\n      pop\n        /* \"contracts/nft-market.sol\":3731:3756  Order(from,tokenId,price) */\n      mload(0x40)\n      dup1\n      0x60\n      add\n      0x40\n      mstore\n      dup1\n        /* \"contracts/nft-market.sol\":3737:3741  from */\n      dup8\n        /* \"contracts/nft-market.sol\":3731:3756  Order(from,tokenId,price) */\n      0xffffffffffffffffffffffffffffffffffffffff\n      and\n      dup2\n      mstore\n      0x20\n      add\n        /* \"contracts/nft-market.sol\":3742:3749  tokenId */\n      dup7\n        /* \"contracts/nft-market.sol\":3731:3756  Order(from,tokenId,price) */\n      dup2\n      mstore\n      0x20\n      add\n        /* \"contracts/nft-market.sol\":3750:3755  price */\n      dup3\n        /* \"contracts/nft-market.sol\":3731:3756  Order(from,tokenId,price) */\n      dup2\n      mstore\n      pop\n        /* \"contracts/nft-market.sol\":3710:3719  orderOfId */\n      0x02\n        /* \"contracts/nft-market.sol\":3710:3728  orderOfId[tokenId] */\n      0x00\n        /* \"contracts/nft-market.sol\":3720:3727  tokenId */\n      dup8\n        /* \"contracts/nft-market.sol\":3710:3728  orderOfId[tokenId] */\n      dup2\n      mstore\n      0x20\n      add\n      swap1\n      dup2\n      mstore\n      0x20\n      add\n      0x00\n      keccak256\n        /* \"contracts/nft-market.sol\":3710:3756  orderOfId[tokenId] = Order(from,tokenId,price) */\n      0x00\n      dup3\n      add\n      mload\n      dup2\n      0x00\n      add\n      exp(0x0100, 0x00)\n      dup2\n      sload\n      dup2\n      0xffffffffffffffffffffffffffffffffffffffff\n      mul\n      not\n      and\n      swap1\n      dup4\n      0xffffffffffffffffffffffffffffffffffffffff\n      and\n      mul\n      or\n      swap1\n      sstore\n      pop\n      0x20\n      dup3\n      add\n      mload\n      dup2\n      0x01\n      add\n      sstore\n      0x40\n      dup3\n      add\n      mload\n      dup2\n      0x02\n      add\n      sstore\n      swap1\n      pop\n      pop\n        /* \"contracts/nft-market.sol\":3809:3810  1 */\n      0x01\n        /* \"contracts/nft-market.sol\":3793:3799  orders */\n      0x03\n        /* \"contracts/nft-market.sol\":3793:3806  orders.length */\n      dup1\n      sload\n      swap1\n      pop\n        /* \"contracts/nft-market.sol\":3793:3810  orders.length - 1 */\n      tag_71\n      swap2\n      swap1\n      tag_72\n      jump\t// in\n    tag_71:\n        /* \"contracts/nft-market.sol\":3767:3781  idToOrderIndex */\n      0x04\n        /* \"contracts/nft-market.sol\":3767:3790  idToOrderIndex[tokenId] */\n      0x00\n        /* \"contracts/nft-market.sol\":3782:3789  tokenId */\n      dup8\n        /* \"contracts/nft-market.sol\":3767:3790  idToOrderIndex[tokenId] */\n      dup2\n      mstore\n      0x20\n      add\n      swap1\n      dup2\n      mstore\n      0x20\n      add\n      0x00\n      keccak256\n        /* \"contracts/nft-market.sol\":3767:3810  idToOrderIndex[tokenId] = orders.length - 1 */\n      dup2\n      swap1\n      sstore\n      pop\n        /* \"contracts/nft-market.sol\":3826:3856  NewOrder(from, tokenId, price) */\n      0xd5b509e657d5ec37ae4bdcab658b7340c0453bb630516d26623359a34c1cecf3\n        /* \"contracts/nft-market.sol\":3835:3839  from */\n      dup7\n        /* \"contracts/nft-market.sol\":3841:3848  tokenId */\n      dup7\n        /* \"contracts/nft-market.sol\":3850:3855  price */\n      dup4\n        /* \"contracts/nft-market.sol\":3826:3856  NewOrder(from, tokenId, price) */\n      mload(0x40)\n      tag_73\n      swap4\n      swap3\n      swap2\n      swap1\n      tag_31\n      jump\t// in\n    tag_73:\n      mload(0x40)\n      dup1\n      swap2\n      sub\n      swap1\n      log1\n        /* \"contracts/nft-market.sol\":3882:3883  0 */\n      0x00\n        /* \"contracts/nft-market.sol\":3875:3880  price */\n      dup2\n        /* \"contracts/nft-market.sol\":3875:3883  price >0 */\n      gt\n        /* \"contracts/nft-market.sol\":3867:3916  require(price >0, \"price must be greater than 0\") */\n      tag_74\n      jumpi\n      mload(0x40)\n      0x08c379a000000000000000000000000000000000000000000000000000000000\n      dup2\n      mstore\n      0x04\n      add\n      tag_75\n      swap1\n      tag_76\n      jump\t// in\n    tag_75:\n      mload(0x40)\n      dup1\n      swap2\n      sub\n      swap1\n      revert\n    tag_74:\n        /* \"contracts/nft-market.sol\":308:318  0x150b7a02 */\n      0x150b7a02\n        /* \"contracts/nft-market.sol\":3934:3958  MAGIC_ON_ERC721_RECEIVED */\n      0xe0\n      shl\n        /* \"contracts/nft-market.sol\":3927:3958  return MAGIC_ON_ERC721_RECEIVED */\n      swap2\n      pop\n      pop\n        /* \"contracts/nft-market.sol\":3486:3966  function onERC721Received(address operator, address from, uint256 tokenId, bytes calldata data) external returns(bytes4){... */\n      swap6\n      swap5\n      pop\n      pop\n      pop\n      pop\n      pop\n      jump\t// out\n        /* \"contracts/nft-market.sol\":427:469  mapping(uint256 => Order) public orderOfId */\n    tag_29:\n      mstore(0x20, 0x02)\n      dup1\n      0x00\n      mstore\n      keccak256(0x00, 0x40)\n      0x00\n      swap2\n      pop\n      swap1\n      pop\n      dup1\n      0x00\n      add\n      0x00\n      swap1\n      sload\n      swap1\n      0x0100\n      exp\n      swap1\n      div\n      0xffffffffffffffffffffffffffffffffffffffff\n      and\n      swap1\n      dup1\n      0x01\n      add\n      sload\n      swap1\n      dup1\n      0x02\n      add\n      sload\n      swap1\n      pop\n      dup4\n      jump\t// out\n        /* \"contracts/nft-market.sol\":2263:2567  function cancelOrder(uint256 _tokenId) public {... */\n    tag_34:\n        /* \"contracts/nft-market.sol\":2320:2334  address seller */\n      0x00\n        /* \"contracts/nft-market.sol\":2337:2346  orderOfId */\n      0x02\n        /* \"contracts/nft-market.sol\":2337:2356  orderOfId[_tokenId] */\n      0x00\n        /* \"contracts/nft-market.sol\":2347:2355  _tokenId */\n      dup4\n        /* \"contracts/nft-market.sol\":2337:2356  orderOfId[_tokenId] */\n      dup2\n      mstore\n      0x20\n      add\n      swap1\n      dup2\n      mstore\n      0x20\n      add\n      0x00\n      keccak256\n        /* \"contracts/nft-market.sol\":2337:2363  orderOfId[_tokenId].seller */\n      0x00\n      add\n      0x00\n      swap1\n      sload\n      swap1\n      0x0100\n      exp\n      swap1\n      div\n      0xffffffffffffffffffffffffffffffffffffffff\n      and\n        /* \"contracts/nft-market.sol\":2320:2363  address seller = orderOfId[_tokenId].seller */\n      swap1\n      pop\n        /* \"contracts/nft-market.sol\":2396:2402  seller */\n      dup1\n        /* \"contracts/nft-market.sol\":2382:2402  msg.sender == seller */\n      0xffffffffffffffffffffffffffffffffffffffff\n      and\n        /* \"contracts/nft-market.sol\":2382:2392  msg.sender */\n      caller\n        /* \"contracts/nft-market.sol\":2382:2402  msg.sender == seller */\n      0xffffffffffffffffffffffffffffffffffffffff\n      and\n      eq\n        /* \"contracts/nft-market.sol\":2374:2417  require(msg.sender == seller, \"not seller\") */\n      tag_78\n      jumpi\n      mload(0x40)\n      0x08c379a000000000000000000000000000000000000000000000000000000000\n      dup2\n      mstore\n      0x04\n      add\n      tag_79\n      swap1\n      tag_80\n      jump\t// in\n    tag_79:\n      mload(0x40)\n      dup1\n      swap2\n      sub\n      swap1\n      revert\n    tag_78:\n        /* \"contracts/nft-market.sol\":2428:2434  erc721 */\n      0x01\n      0x00\n      swap1\n      sload\n      swap1\n      0x0100\n      exp\n      swap1\n      div\n      0xffffffffffffffffffffffffffffffffffffffff\n      and\n        /* \"contracts/nft-market.sol\":2428:2451  erc721.safeTransferFrom */\n      0xffffffffffffffffffffffffffffffffffffffff\n      and\n      0x42842e0e\n        /* \"contracts/nft-market.sol\":2460:2464  this */\n      address\n        /* \"contracts/nft-market.sol\":2466:2472  seller */\n      dup4\n        /* \"contracts/nft-market.sol\":2473:2481  _tokenId */\n      dup6\n        /* \"contracts/nft-market.sol\":2428:2482  erc721.safeTransferFrom(address(this),seller,_tokenId) */\n      mload(0x40)\n      dup5\n      0xffffffff\n      and\n      0xe0\n      shl\n      dup2\n      mstore\n      0x04\n      add\n      tag_81\n      swap4\n      swap3\n      swap2\n      swap1\n      tag_82\n      jump\t// in\n    tag_81:\n      0x00\n      mload(0x40)\n      dup1\n      dup4\n      sub\n      dup2\n      0x00\n      dup8\n      dup1\n      extcodesize\n      iszero\n      dup1\n      iszero\n      tag_83\n      jumpi\n      0x00\n      dup1\n      revert\n    tag_83:\n      pop\n      gas\n      call\n      iszero\n      dup1\n      iszero\n      tag_85\n      jumpi\n      returndatasize\n      0x00\n      dup1\n      returndatacopy\n      revert(0x00, returndatasize)\n    tag_85:\n      pop\n      pop\n      pop\n      pop\n        /* \"contracts/nft-market.sol\":2493:2514  removeOrder(_tokenId) */\n      tag_86\n        /* \"contracts/nft-market.sol\":2505:2513  _tokenId */\n      dup3\n        /* \"contracts/nft-market.sol\":2493:2504  removeOrder */\n      tag_87\n        /* \"contracts/nft-market.sol\":2493:2514  removeOrder(_tokenId) */\n      jump\t// in\n    tag_86:\n        /* \"contracts/nft-market.sol\":2530:2559  OrderCancel(seller, _tokenId) */\n      0xc62ea7d6dbbe6bae28aad53c0aafb30aac976285ac8d17598f119feff584f519\n        /* \"contracts/nft-market.sol\":2542:2548  seller */\n      dup2\n        /* \"contracts/nft-market.sol\":2550:2558  _tokenId */\n      dup4\n        /* \"contracts/nft-market.sol\":2530:2559  OrderCancel(seller, _tokenId) */\n      mload(0x40)\n      tag_88\n      swap3\n      swap2\n      swap1\n      tag_89\n      jump\t// in\n    tag_88:\n      mload(0x40)\n      dup1\n      swap2\n      sub\n      swap1\n      log1\n        /* \"contracts/nft-market.sol\":2309:2567  {... */\n      pop\n        /* \"contracts/nft-market.sol\":2263:2567  function cancelOrder(uint256 _tokenId) public {... */\n      pop\n      jump\t// out\n        /* \"contracts/nft-market.sol\":201:220  IERC20 public erc20 */\n    tag_36:\n      0x00\n      dup1\n      sload\n      swap1\n      0x0100\n      exp\n      swap1\n      div\n      0xffffffffffffffffffffffffffffffffffffffff\n      and\n      dup2\n      jump\t// out\n        /* \"contracts/nft-market.sol\":476:497  Order[] public orders */\n    tag_41:\n      0x03\n      dup2\n      dup2\n      sload\n      dup2\n      lt\n      tag_90\n      jumpi\n      0x00\n      dup1\n      revert\n    tag_90:\n      swap1\n      0x00\n      mstore\n      keccak256(0x00, 0x20)\n      swap1\n      0x03\n      mul\n      add\n      0x00\n      swap2\n      pop\n      swap1\n      pop\n      dup1\n      0x00\n      add\n      0x00\n      swap1\n      sload\n      swap1\n      0x0100\n      exp\n      swap1\n      div\n      0xffffffffffffffffffffffffffffffffffffffff\n      and\n      swap1\n      dup1\n      0x01\n      add\n      sload\n      swap1\n      dup1\n      0x02\n      add\n      sload\n      swap1\n      pop\n      dup4\n      jump\t// out\n        /* \"contracts/nft-market.sol\":227:248  IERC721 public erc721 */\n    tag_44:\n      0x01\n      0x00\n      swap1\n      sload\n      swap1\n      0x0100\n      exp\n      swap1\n      div\n      0xffffffffffffffffffffffffffffffffffffffff\n      and\n      dup2\n      jump\t// out\n        /* \"contracts/nft-market.sol\":1612:2253  function buy(uint256 _tokenId, uint256 _price) external {... */\n    tag_50:\n        /* \"contracts/nft-market.sol\":1687:1705  isListed(_tokenId) */\n      tag_93\n        /* \"contracts/nft-market.sol\":1696:1704  _tokenId */\n      dup3\n        /* \"contracts/nft-market.sol\":1687:1695  isListed */\n      tag_63\n        /* \"contracts/nft-market.sol\":1687:1705  isListed(_tokenId) */\n      jump\t// in\n    tag_93:\n        /* \"contracts/nft-market.sol\":1679:1740  require(isListed(_tokenId), \"Market: Token ID is not listed\") */\n      tag_94\n      jumpi\n      mload(0x40)\n      0x08c379a000000000000000000000000000000000000000000000000000000000\n      dup2\n      mstore\n      0x04\n      add\n      tag_95\n      swap1\n      tag_96\n      jump\t// in\n    tag_95:\n      mload(0x40)\n      dup1\n      swap2\n      sub\n      swap1\n      revert\n    tag_94:\n        /* \"contracts/nft-market.sol\":1753:1767  address seller */\n      0x00\n        /* \"contracts/nft-market.sol\":1770:1779  orderOfId */\n      0x02\n        /* \"contracts/nft-market.sol\":1770:1789  orderOfId[_tokenId] */\n      0x00\n        /* \"contracts/nft-market.sol\":1780:1788  _tokenId */\n      dup5\n        /* \"contracts/nft-market.sol\":1770:1789  orderOfId[_tokenId] */\n      dup2\n      mstore\n      0x20\n      add\n      swap1\n      dup2\n      mstore\n      0x20\n      add\n      0x00\n      keccak256\n        /* \"contracts/nft-market.sol\":1770:1796  orderOfId[_tokenId].seller */\n      0x00\n      add\n      0x00\n      swap1\n      sload\n      swap1\n      0x0100\n      exp\n      swap1\n      div\n      0xffffffffffffffffffffffffffffffffffffffff\n      and\n        /* \"contracts/nft-market.sol\":1753:1796  address seller = orderOfId[_tokenId].seller */\n      swap1\n      pop\n        /* \"contracts/nft-market.sol\":1807:1820  address buyer */\n      0x00\n        /* \"contracts/nft-market.sol\":1823:1833  msg.sender */\n      caller\n        /* \"contracts/nft-market.sol\":1807:1833  address buyer = msg.sender */\n      swap1\n      pop\n        /* \"contracts/nft-market.sol\":1844:1857  uint256 price */\n      0x00\n        /* \"contracts/nft-market.sol\":1860:1869  orderOfId */\n      0x02\n        /* \"contracts/nft-market.sol\":1860:1879  orderOfId[_tokenId] */\n      0x00\n        /* \"contracts/nft-market.sol\":1870:1878  _tokenId */\n      dup7\n        /* \"contracts/nft-market.sol\":1860:1879  orderOfId[_tokenId] */\n      dup2\n      mstore\n      0x20\n      add\n      swap1\n      dup2\n      mstore\n      0x20\n      add\n      0x00\n      keccak256\n        /* \"contracts/nft-market.sol\":1860:1885  orderOfId[_tokenId].price */\n      0x02\n      add\n      sload\n        /* \"contracts/nft-market.sol\":1844:1885  uint256 price = orderOfId[_tokenId].price */\n      swap1\n      pop\n        /* \"contracts/nft-market.sol\":1915:1921  _price */\n      dup4\n        /* \"contracts/nft-market.sol\":1906:1911  price */\n      dup2\n        /* \"contracts/nft-market.sol\":1906:1921  price == _price */\n      eq\n        /* \"contracts/nft-market.sol\":1898:1952  require(price == _price, \"Market: price is not equal\") */\n      tag_97\n      jumpi\n      mload(0x40)\n      0x08c379a000000000000000000000000000000000000000000000000000000000\n      dup2\n      mstore\n      0x04\n      add\n      tag_98\n      swap1\n      tag_99\n      jump\t// in\n    tag_98:\n      mload(0x40)\n      dup1\n      swap2\n      sub\n      swap1\n      revert\n    tag_97:\n        /* \"contracts/nft-market.sol\":1987:1992  erc20 */\n      0x00\n      dup1\n      sload\n      swap1\n      0x0100\n      exp\n      swap1\n      div\n      0xffffffffffffffffffffffffffffffffffffffff\n      and\n        /* \"contracts/nft-market.sol\":1987:2005  erc20.transferFrom */\n      0xffffffffffffffffffffffffffffffffffffffff\n      and\n      0x23b872dd\n        /* \"contracts/nft-market.sol\":2006:2011  buyer */\n      dup4\n        /* \"contracts/nft-market.sol\":2013:2019  seller */\n      dup6\n        /* \"contracts/nft-market.sol\":2021:2026  price */\n      dup5\n        /* \"contracts/nft-market.sol\":1987:2027  erc20.transferFrom(buyer, seller, price) */\n      mload(0x40)\n      dup5\n      0xffffffff\n      and\n      0xe0\n      shl\n      dup2\n      mstore\n      0x04\n      add\n      tag_100\n      swap4\n      swap3\n      swap2\n      swap1\n      tag_82\n      jump\t// in\n    tag_100:\n      0x20\n      mload(0x40)\n      dup1\n      dup4\n      sub\n      dup2\n      0x00\n      dup8\n      gas\n      call\n      iszero\n      dup1\n      iszero\n      tag_102\n      jumpi\n      returndatasize\n      0x00\n      dup1\n      returndatacopy\n      revert(0x00, returndatasize)\n    tag_102:\n      pop\n      pop\n      pop\n      pop\n      mload(0x40)\n      returndatasize\n      not(0x1f)\n      0x1f\n      dup3\n      add\n      and\n      dup3\n      add\n      dup1\n      0x40\n      mstore\n      pop\n      dup2\n      add\n      swap1\n      tag_103\n      swap2\n      swap1\n      tag_104\n      jump\t// in\n    tag_103:\n        /* \"contracts/nft-market.sol\":1965:2093  require(... */\n      tag_105\n      jumpi\n      mload(0x40)\n      0x08c379a000000000000000000000000000000000000000000000000000000000\n      dup2\n      mstore\n      0x04\n      add\n      tag_106\n      swap1\n      tag_107\n      jump\t// in\n    tag_106:\n      mload(0x40)\n      dup1\n      swap2\n      sub\n      swap1\n      revert\n    tag_105:\n        /* \"contracts/nft-market.sol\":2104:2110  erc721 */\n      0x01\n      0x00\n      swap1\n      sload\n      swap1\n      0x0100\n      exp\n      swap1\n      div\n      0xffffffffffffffffffffffffffffffffffffffff\n      and\n        /* \"contracts/nft-market.sol\":2104:2127  erc721.safeTransferFrom */\n      0xffffffffffffffffffffffffffffffffffffffff\n      and\n      0x42842e0e\n        /* \"contracts/nft-market.sol\":2136:2140  this */\n      address\n        /* \"contracts/nft-market.sol\":2143:2148  buyer */\n      dup5\n        /* \"contracts/nft-market.sol\":2150:2158  _tokenId */\n      dup9\n        /* \"contracts/nft-market.sol\":2104:2159  erc721.safeTransferFrom(address(this), buyer, _tokenId) */\n      mload(0x40)\n      dup5\n      0xffffffff\n      and\n      0xe0\n      shl\n      dup2\n      mstore\n      0x04\n      add\n      tag_108\n      swap4\n      swap3\n      swap2\n      swap1\n      tag_82\n      jump\t// in\n    tag_108:\n      0x00\n      mload(0x40)\n      dup1\n      dup4\n      sub\n      dup2\n      0x00\n      dup8\n      dup1\n      extcodesize\n      iszero\n      dup1\n      iszero\n      tag_109\n      jumpi\n      0x00\n      dup1\n      revert\n    tag_109:\n      pop\n      gas\n      call\n      iszero\n      dup1\n      iszero\n      tag_111\n      jumpi\n      returndatasize\n      0x00\n      dup1\n      returndatacopy\n      revert(0x00, returndatasize)\n    tag_111:\n      pop\n      pop\n      pop\n      pop\n        /* \"contracts/nft-market.sol\":2172:2193  removeOrder(_tokenId) */\n      tag_112\n        /* \"contracts/nft-market.sol\":2184:2192  _tokenId */\n      dup6\n        /* \"contracts/nft-market.sol\":2172:2183  removeOrder */\n      tag_87\n        /* \"contracts/nft-market.sol\":2172:2193  removeOrder(_tokenId) */\n      jump\t// in\n    tag_112:\n        /* \"contracts/nft-market.sol\":2209:2245  Deal(buyer, seller, _tokenId, price) */\n      0x424d5e5f0192c7dacdbe646ca31b00299146d883d76a95ef5cddbac7cd342eab\n        /* \"contracts/nft-market.sol\":2214:2219  buyer */\n      dup3\n        /* \"contracts/nft-market.sol\":2221:2227  seller */\n      dup5\n        /* \"contracts/nft-market.sol\":2229:2237  _tokenId */\n      dup8\n        /* \"contracts/nft-market.sol\":2239:2244  price */\n      dup5\n        /* \"contracts/nft-market.sol\":2209:2245  Deal(buyer, seller, _tokenId, price) */\n      mload(0x40)\n      tag_113\n      swap5\n      swap4\n      swap3\n      swap2\n      swap1\n      tag_114\n      jump\t// in\n    tag_113:\n      mload(0x40)\n      dup1\n      swap2\n      sub\n      swap1\n      log1\n        /* \"contracts/nft-market.sol\":1668:2253  {... */\n      pop\n      pop\n      pop\n        /* \"contracts/nft-market.sol\":1612:2253  function buy(uint256 _tokenId, uint256 _price) external {... */\n      pop\n      pop\n      jump\t// out\n        /* \"contracts/nft-market.sol\":4775:4866  function getAllNFTs() external view returns(Order[] memory){... */\n    tag_52:\n        /* \"contracts/nft-market.sol\":4819:4833  Order[] memory */\n      0x60\n        /* \"contracts/nft-market.sol\":4852:4858  orders */\n      0x03\n        /* \"contracts/nft-market.sol\":4845:4858  return orders */\n      dup1\n      sload\n      dup1\n      0x20\n      mul\n      0x20\n      add\n      mload(0x40)\n      swap1\n      dup2\n      add\n      0x40\n      mstore\n      dup1\n      swap3\n      swap2\n      swap1\n      dup2\n      dup2\n      mstore\n      0x20\n      add\n      0x00\n      swap1\n    tag_116:\n      dup3\n      dup3\n      lt\n      iszero\n      tag_117\n      jumpi\n      dup4\n      dup3\n      swap1\n      0x00\n      mstore\n      keccak256(0x00, 0x20)\n      swap1\n      0x03\n      mul\n      add\n      mload(0x40)\n      dup1\n      0x60\n      add\n      0x40\n      mstore\n      swap1\n      dup2\n      0x00\n      dup3\n      add\n      0x00\n      swap1\n      sload\n      swap1\n      0x0100\n      exp\n      swap1\n      div\n      0xffffffffffffffffffffffffffffffffffffffff\n      and\n      0xffffffffffffffffffffffffffffffffffffffff\n      and\n      0xffffffffffffffffffffffffffffffffffffffff\n      and\n      dup2\n      mstore\n      0x20\n      add\n      0x01\n      dup3\n      add\n      sload\n      dup2\n      mstore\n      0x20\n      add\n      0x02\n      dup3\n      add\n      sload\n      dup2\n      mstore\n      pop\n      pop\n      dup2\n      mstore\n      0x20\n      add\n      swap1\n      0x01\n      add\n      swap1\n      jump(tag_116)\n    tag_117:\n      pop\n      pop\n      pop\n      pop\n      swap1\n      pop\n        /* \"contracts/nft-market.sol\":4775:4866  function getAllNFTs() external view returns(Order[] memory){... */\n      swap1\n      jump\t// out\n        /* \"contracts/nft-market.sol\":2575:3022  function chagePrice(uint256 _tokenId,uint256 _newPrice) public {... */\n    tag_57:\n        /* \"contracts/nft-market.sol\":2649:2663  address seller */\n      0x00\n        /* \"contracts/nft-market.sol\":2666:2675  orderOfId */\n      0x02\n        /* \"contracts/nft-market.sol\":2666:2685  orderOfId[_tokenId] */\n      0x00\n        /* \"contracts/nft-market.sol\":2676:2684  _tokenId */\n      dup5\n        /* \"contracts/nft-market.sol\":2666:2685  orderOfId[_tokenId] */\n      dup2\n      mstore\n      0x20\n      add\n      swap1\n      dup2\n      mstore\n      0x20\n      add\n      0x00\n      keccak256\n        /* \"contracts/nft-market.sol\":2666:2692  orderOfId[_tokenId].seller */\n      0x00\n      add\n      0x00\n      swap1\n      sload\n      swap1\n      0x0100\n      exp\n      swap1\n      div\n      0xffffffffffffffffffffffffffffffffffffffff\n      and\n        /* \"contracts/nft-market.sol\":2649:2692  address seller = orderOfId[_tokenId].seller */\n      swap1\n      pop\n        /* \"contracts/nft-market.sol\":2725:2731  seller */\n      dup1\n        /* \"contracts/nft-market.sol\":2711:2731  msg.sender == seller */\n      0xffffffffffffffffffffffffffffffffffffffff\n      and\n        /* \"contracts/nft-market.sol\":2711:2721  msg.sender */\n      caller\n        /* \"contracts/nft-market.sol\":2711:2731  msg.sender == seller */\n      0xffffffffffffffffffffffffffffffffffffffff\n      and\n      eq\n        /* \"contracts/nft-market.sol\":2703:2746  require(msg.sender == seller, \"not seller\") */\n      tag_120\n      jumpi\n      mload(0x40)\n      0x08c379a000000000000000000000000000000000000000000000000000000000\n      dup2\n      mstore\n      0x04\n      add\n      tag_121\n      swap1\n      tag_80\n      jump\t// in\n    tag_121:\n      mload(0x40)\n      dup1\n      swap2\n      sub\n      swap1\n      revert\n    tag_120:\n        /* \"contracts/nft-market.sol\":2757:2773  uint256 oldPrice */\n      0x00\n        /* \"contracts/nft-market.sol\":2776:2785  orderOfId */\n      0x02\n        /* \"contracts/nft-market.sol\":2776:2795  orderOfId[_tokenId] */\n      0x00\n        /* \"contracts/nft-market.sol\":2786:2794  _tokenId */\n      dup6\n        /* \"contracts/nft-market.sol\":2776:2795  orderOfId[_tokenId] */\n      dup2\n      mstore\n      0x20\n      add\n      swap1\n      dup2\n      mstore\n      0x20\n      add\n      0x00\n      keccak256\n        /* \"contracts/nft-market.sol\":2776:2801  orderOfId[_tokenId].price */\n      0x02\n      add\n      sload\n        /* \"contracts/nft-market.sol\":2757:2801  uint256 oldPrice = orderOfId[_tokenId].price */\n      swap1\n      pop\n        /* \"contracts/nft-market.sol\":2840:2849  _newPrice */\n      dup3\n        /* \"contracts/nft-market.sol\":2812:2821  orderOfId */\n      0x02\n        /* \"contracts/nft-market.sol\":2812:2831  orderOfId[_tokenId] */\n      0x00\n        /* \"contracts/nft-market.sol\":2822:2830  _tokenId */\n      dup7\n        /* \"contracts/nft-market.sol\":2812:2831  orderOfId[_tokenId] */\n      dup2\n      mstore\n      0x20\n      add\n      swap1\n      dup2\n      mstore\n      0x20\n      add\n      0x00\n      keccak256\n        /* \"contracts/nft-market.sol\":2812:2837  orderOfId[_tokenId].price */\n      0x02\n      add\n        /* \"contracts/nft-market.sol\":2812:2849  orderOfId[_tokenId].price = _newPrice */\n      dup2\n      swap1\n      sstore\n      pop\n        /* \"contracts/nft-market.sol\":2860:2879  Order storage order */\n      0x00\n        /* \"contracts/nft-market.sol\":2882:2888  orders */\n      0x03\n        /* \"contracts/nft-market.sol\":2889:2903  idToOrderIndex */\n      0x04\n        /* \"contracts/nft-market.sol\":2889:2913  idToOrderIndex[_tokenId] */\n      0x00\n        /* \"contracts/nft-market.sol\":2904:2912  _tokenId */\n      dup8\n        /* \"contracts/nft-market.sol\":2889:2913  idToOrderIndex[_tokenId] */\n      dup2\n      mstore\n      0x20\n      add\n      swap1\n      dup2\n      mstore\n      0x20\n      add\n      0x00\n      keccak256\n      sload\n        /* \"contracts/nft-market.sol\":2882:2914  orders[idToOrderIndex[_tokenId]] */\n      dup2\n      sload\n      dup2\n      lt\n      tag_122\n      jumpi\n      tag_123\n      tag_124\n      jump\t// in\n    tag_123:\n    tag_122:\n      swap1\n      0x00\n      mstore\n      keccak256(0x00, 0x20)\n      swap1\n      0x03\n      mul\n      add\n        /* \"contracts/nft-market.sol\":2860:2914  Order storage order = orders[idToOrderIndex[_tokenId]] */\n      swap1\n      pop\n        /* \"contracts/nft-market.sol\":2939:2948  _newPrice */\n      dup4\n        /* \"contracts/nft-market.sol\":2925:2930  order */\n      dup2\n        /* \"contracts/nft-market.sol\":2925:2936  order.price */\n      0x02\n      add\n        /* \"contracts/nft-market.sol\":2925:2948  order.price = _newPrice */\n      dup2\n      swap1\n      sstore\n      pop\n        /* \"contracts/nft-market.sol\":2964:3014  PriceChange(seller, _tokenId, oldPrice, _newPrice) */\n      0x270ec2a3fde0260445003bf676803811db6776c19901b7481571d46e4d78aa36\n        /* \"contracts/nft-market.sol\":2976:2982  seller */\n      dup4\n        /* \"contracts/nft-market.sol\":2984:2992  _tokenId */\n      dup7\n        /* \"contracts/nft-market.sol\":2994:3002  oldPrice */\n      dup5\n        /* \"contracts/nft-market.sol\":3004:3013  _newPrice */\n      dup8\n        /* \"contracts/nft-market.sol\":2964:3014  PriceChange(seller, _tokenId, oldPrice, _newPrice) */\n      mload(0x40)\n      tag_126\n      swap5\n      swap4\n      swap3\n      swap2\n      swap1\n      tag_127\n      jump\t// in\n    tag_126:\n      mload(0x40)\n      dup1\n      swap2\n      sub\n      swap1\n      log1\n        /* \"contracts/nft-market.sol\":2638:3022  {... */\n      pop\n      pop\n      pop\n        /* \"contracts/nft-market.sol\":2575:3022  function chagePrice(uint256 _tokenId,uint256 _newPrice) public {... */\n      pop\n      pop\n      jump\t// out\n        /* \"contracts/nft-market.sol\":4874:5249  function getMyNFTS() external view returns(Order[] memory){... */\n    tag_59:\n        /* \"contracts/nft-market.sol\":4917:4931  Order[] memory */\n      0x60\n        /* \"contracts/nft-market.sol\":4943:4966  Order[] memory myOrders */\n      0x00\n        /* \"contracts/nft-market.sol\":4981:4987  orders */\n      0x03\n        /* \"contracts/nft-market.sol\":4981:4994  orders.length */\n      dup1\n      sload\n      swap1\n      pop\n        /* \"contracts/nft-market.sol\":4969:4995  new Order[](orders.length) */\n      0xffffffffffffffff\n      dup2\n      gt\n      iszero\n      tag_129\n      jumpi\n      tag_130\n      tag_131\n      jump\t// in\n    tag_130:\n    tag_129:\n      mload(0x40)\n      swap1\n      dup1\n      dup3\n      mstore\n      dup1\n      0x20\n      mul\n      0x20\n      add\n      dup3\n      add\n      0x40\n      mstore\n      dup1\n      iszero\n      tag_132\n      jumpi\n      dup2\n      0x20\n      add\n    tag_133:\n      tag_134\n      tag_135\n      jump\t// in\n    tag_134:\n      dup2\n      mstore\n      0x20\n      add\n      swap1\n      0x01\n      swap1\n      sub\n      swap1\n      dup2\n      tag_133\n      jumpi\n      swap1\n      pop\n    tag_132:\n      pop\n        /* \"contracts/nft-market.sol\":4943:4995  Order[] memory myOrders = new Order[](orders.length) */\n      swap1\n      pop\n        /* \"contracts/nft-market.sol\":5006:5019  uint256 count */\n      0x00\n        /* \"contracts/nft-market.sol\":5037:5043  uint i */\n      dup1\n        /* \"contracts/nft-market.sol\":5033:5216  for(uint i =0; i<orders.length;i++){... */\n    tag_136:\n        /* \"contracts/nft-market.sol\":5050:5056  orders */\n      0x03\n        /* \"contracts/nft-market.sol\":5050:5063  orders.length */\n      dup1\n      sload\n      swap1\n      pop\n        /* \"contracts/nft-market.sol\":5048:5049  i */\n      dup2\n        /* \"contracts/nft-market.sol\":5048:5063  i<orders.length */\n      lt\n        /* \"contracts/nft-market.sol\":5033:5216  for(uint i =0; i<orders.length;i++){... */\n      iszero\n      tag_137\n      jumpi\n        /* \"contracts/nft-market.sol\":5106:5116  msg.sender */\n      caller\n        /* \"contracts/nft-market.sol\":5086:5116  orders[i].seller == msg.sender */\n      0xffffffffffffffffffffffffffffffffffffffff\n      and\n        /* \"contracts/nft-market.sol\":5086:5092  orders */\n      0x03\n        /* \"contracts/nft-market.sol\":5093:5094  i */\n      dup3\n        /* \"contracts/nft-market.sol\":5086:5095  orders[i] */\n      dup2\n      sload\n      dup2\n      lt\n      tag_139\n      jumpi\n      tag_140\n      tag_124\n      jump\t// in\n    tag_140:\n    tag_139:\n      swap1\n      0x00\n      mstore\n      keccak256(0x00, 0x20)\n      swap1\n      0x03\n      mul\n      add\n        /* \"contracts/nft-market.sol\":5086:5102  orders[i].seller */\n      0x00\n      add\n      0x00\n      swap1\n      sload\n      swap1\n      0x0100\n      exp\n      swap1\n      div\n      0xffffffffffffffffffffffffffffffffffffffff\n      and\n        /* \"contracts/nft-market.sol\":5086:5116  orders[i].seller == msg.sender */\n      0xffffffffffffffffffffffffffffffffffffffff\n      and\n      sub\n        /* \"contracts/nft-market.sol\":5083:5205  if(orders[i].seller == msg.sender){... */\n      tag_142\n      jumpi\n        /* \"contracts/nft-market.sol\":5154:5160  orders */\n      0x03\n        /* \"contracts/nft-market.sol\":5161:5162  i */\n      dup2\n        /* \"contracts/nft-market.sol\":5154:5163  orders[i] */\n      dup2\n      sload\n      dup2\n      lt\n      tag_143\n      jumpi\n      tag_144\n      tag_124\n      jump\t// in\n    tag_144:\n    tag_143:\n      swap1\n      0x00\n      mstore\n      keccak256(0x00, 0x20)\n      swap1\n      0x03\n      mul\n      add\n        /* \"contracts/nft-market.sol\":5136:5163  myOrders[count] = orders[i] */\n      mload(0x40)\n      dup1\n      0x60\n      add\n      0x40\n      mstore\n      swap1\n      dup2\n      0x00\n      dup3\n      add\n      0x00\n      swap1\n      sload\n      swap1\n      0x0100\n      exp\n      swap1\n      div\n      0xffffffffffffffffffffffffffffffffffffffff\n      and\n      0xffffffffffffffffffffffffffffffffffffffff\n      and\n      0xffffffffffffffffffffffffffffffffffffffff\n      and\n      dup2\n      mstore\n      0x20\n      add\n      0x01\n      dup3\n      add\n      sload\n      dup2\n      mstore\n      0x20\n      add\n      0x02\n      dup3\n      add\n      sload\n      dup2\n      mstore\n      pop\n      pop\n        /* \"contracts/nft-market.sol\":5136:5144  myOrders */\n      dup4\n        /* \"contracts/nft-market.sol\":5145:5150  count */\n      dup4\n        /* \"contracts/nft-market.sol\":5136:5151  myOrders[count] */\n      dup2\n      mload\n      dup2\n      lt\n      tag_146\n      jumpi\n      tag_147\n      tag_124\n      jump\t// in\n    tag_147:\n    tag_146:\n      0x20\n      mul\n      0x20\n      add\n      add\n        /* \"contracts/nft-market.sol\":5136:5163  myOrders[count] = orders[i] */\n      dup2\n      swap1\n      mstore\n      pop\n        /* \"contracts/nft-market.sol\":5182:5189  count++ */\n      dup2\n      dup1\n      tag_148\n      swap1\n      tag_149\n      jump\t// in\n    tag_148:\n      swap3\n      pop\n      pop\n        /* \"contracts/nft-market.sol\":5083:5205  if(orders[i].seller == msg.sender){... */\n    tag_142:\n        /* \"contracts/nft-market.sol\":5064:5067  i++ */\n      dup1\n      dup1\n      0x01\n      add\n      swap2\n      pop\n      pop\n        /* \"contracts/nft-market.sol\":5033:5216  for(uint i =0; i<orders.length;i++){... */\n      jump(tag_136)\n    tag_137:\n      pop\n        /* \"contracts/nft-market.sol\":5233:5241  myOrders */\n      dup2\n        /* \"contracts/nft-market.sol\":5226:5241  return myOrders */\n      swap3\n      pop\n      pop\n      pop\n        /* \"contracts/nft-market.sol\":4874:5249  function getMyNFTS() external view returns(Order[] memory){... */\n      swap1\n      jump\t// out\n        /* \"contracts/nft-market.sol\":3975:4104  function isListed(uint256 _tokenId) public view returns (bool) {... */\n    tag_63:\n        /* \"contracts/nft-market.sol\":4032:4036  bool */\n      0x00\n        /* \"contracts/nft-market.sol\":4094:4095  0 */\n      dup1\n        /* \"contracts/nft-market.sol\":4056:4096  orderOfId[_tokenId].seller != address(0) */\n      0xffffffffffffffffffffffffffffffffffffffff\n      and\n        /* \"contracts/nft-market.sol\":4056:4065  orderOfId */\n      0x02\n        /* \"contracts/nft-market.sol\":4056:4075  orderOfId[_tokenId] */\n      0x00\n        /* \"contracts/nft-market.sol\":4066:4074  _tokenId */\n      dup5\n        /* \"contracts/nft-market.sol\":4056:4075  orderOfId[_tokenId] */\n      dup2\n      mstore\n      0x20\n      add\n      swap1\n      dup2\n      mstore\n      0x20\n      add\n      0x00\n      keccak256\n        /* \"contracts/nft-market.sol\":4056:4082  orderOfId[_tokenId].seller */\n      0x00\n      add\n      0x00\n      swap1\n      sload\n      swap1\n      0x0100\n      exp\n      swap1\n      div\n      0xffffffffffffffffffffffffffffffffffffffff\n      and\n        /* \"contracts/nft-market.sol\":4056:4096  orderOfId[_tokenId].seller != address(0) */\n      0xffffffffffffffffffffffffffffffffffffffff\n      and\n      eq\n      iszero\n        /* \"contracts/nft-market.sol\":4049:4096  return orderOfId[_tokenId].seller != address(0) */\n      swap1\n      pop\n        /* \"contracts/nft-market.sol\":3975:4104  function isListed(uint256 _tokenId) public view returns (bool) {... */\n      swap2\n      swap1\n      pop\n      jump\t// out\n        /* \"contracts/nft-market.sol\":4232:4663  function toUint256(bytes memory _bytes, uint256 _start)... */\n    tag_69:\n        /* \"contracts/nft-market.sol\":4338:4345  uint256 */\n      0x00\n        /* \"contracts/nft-market.sol\":4386:4392  _start */\n      dup2\n        /* \"contracts/nft-market.sol\":4380:4382  32 */\n      0x20\n        /* \"contracts/nft-market.sol\":4371:4377  _start */\n      dup4\n        /* \"contracts/nft-market.sol\":4371:4382  _start + 32 */\n      tag_152\n      swap2\n      swap1\n      tag_153\n      jump\t// in\n    tag_152:\n        /* \"contracts/nft-market.sol\":4371:4392  _start + 32 >= _start */\n      lt\n      iszero\n        /* \"contracts/nft-market.sol\":4363:4423  require(_start + 32 >= _start, \"Market: toUint256_overflow\") */\n      tag_154\n      jumpi\n      mload(0x40)\n      0x08c379a000000000000000000000000000000000000000000000000000000000\n      dup2\n      mstore\n      0x04\n      add\n      tag_155\n      swap1\n      tag_156\n      jump\t// in\n    tag_155:\n      mload(0x40)\n      dup1\n      swap2\n      sub\n      swap1\n      revert\n    tag_154:\n        /* \"contracts/nft-market.sol\":4468:4470  32 */\n      0x20\n        /* \"contracts/nft-market.sol\":4459:4465  _start */\n      dup3\n        /* \"contracts/nft-market.sol\":4459:4470  _start + 32 */\n      tag_157\n      swap2\n      swap1\n      tag_153\n      jump\t// in\n    tag_157:\n        /* \"contracts/nft-market.sol\":4442:4448  _bytes */\n      dup4\n        /* \"contracts/nft-market.sol\":4442:4455  _bytes.length */\n      mload\n        /* \"contracts/nft-market.sol\":4442:4470  _bytes.length >= _start + 32 */\n      lt\n      iszero\n        /* \"contracts/nft-market.sol\":4434:4504  require(_bytes.length >= _start + 32, \"Market: toUint256_outOfBounds\") */\n      tag_158\n      jumpi\n      mload(0x40)\n      0x08c379a000000000000000000000000000000000000000000000000000000000\n      dup2\n      mstore\n      0x04\n      add\n      tag_159\n      swap1\n      tag_160\n      jump\t// in\n    tag_159:\n      mload(0x40)\n      dup1\n      swap2\n      sub\n      swap1\n      revert\n    tag_158:\n        /* \"contracts/nft-market.sol\":4515:4531  uint256 tempUint */\n      0x00\n        /* \"contracts/nft-market.sol\":4609:4615  _start */\n      dup3\n        /* \"contracts/nft-market.sol\":4602:4606  0x20 */\n      0x20\n        /* \"contracts/nft-market.sol\":4594:4600  _bytes */\n      dup6\n        /* \"contracts/nft-market.sol\":4590:4607  add(_bytes, 0x20) */\n      add\n        /* \"contracts/nft-market.sol\":4586:4616  add(add(_bytes, 0x20), _start) */\n      add\n        /* \"contracts/nft-market.sol\":4580:4617  mload(add(add(_bytes, 0x20), _start)) */\n      mload\n        /* \"contracts/nft-market.sol\":4568:4617  tempUint := mload(add(add(_bytes, 0x20), _start)) */\n      swap1\n      pop\n        /* \"contracts/nft-market.sol\":4647:4655  tempUint */\n      dup1\n        /* \"contracts/nft-market.sol\":4640:4655  return tempUint */\n      swap2\n      pop\n      pop\n        /* \"contracts/nft-market.sol\":4232:4663  function toUint256(bytes memory _bytes, uint256 _start)... */\n      swap3\n      swap2\n      pop\n      pop\n      jump\t// out\n        /* \"contracts/nft-market.sol\":3030:3478  function removeOrder(uint256 _tokenId) internal {... */\n    tag_87:\n        /* \"contracts/nft-market.sol\":3089:3102  uint256 index */\n      0x00\n        /* \"contracts/nft-market.sol\":3105:3119  idToOrderIndex */\n      0x04\n        /* \"contracts/nft-market.sol\":3105:3129  idToOrderIndex[_tokenId] */\n      0x00\n        /* \"contracts/nft-market.sol\":3120:3128  _tokenId */\n      dup4\n        /* \"contracts/nft-market.sol\":3105:3129  idToOrderIndex[_tokenId] */\n      dup2\n      mstore\n      0x20\n      add\n      swap1\n      dup2\n      mstore\n      0x20\n      add\n      0x00\n      keccak256\n      sload\n        /* \"contracts/nft-market.sol\":3089:3129  uint256 index = idToOrderIndex[_tokenId] */\n      swap1\n      pop\n        /* \"contracts/nft-market.sol\":3140:3157  uint256 lastIndex */\n      0x00\n        /* \"contracts/nft-market.sol\":3174:3175  1 */\n      0x01\n        /* \"contracts/nft-market.sol\":3160:3166  orders */\n      0x03\n        /* \"contracts/nft-market.sol\":3160:3173  orders.length */\n      dup1\n      sload\n      swap1\n      pop\n        /* \"contracts/nft-market.sol\":3160:3175  orders.length-1 */\n      tag_162\n      swap2\n      swap1\n      tag_72\n      jump\t// in\n    tag_162:\n        /* \"contracts/nft-market.sol\":3140:3175  uint256 lastIndex = orders.length-1 */\n      swap1\n      pop\n        /* \"contracts/nft-market.sol\":3200:3209  lastIndex */\n      dup1\n        /* \"contracts/nft-market.sol\":3192:3197  index */\n      dup3\n        /* \"contracts/nft-market.sol\":3192:3209  index!= lastIndex */\n      eq\n        /* \"contracts/nft-market.sol\":3188:3369  if (index!= lastIndex) {... */\n      tag_163\n      jumpi\n        /* \"contracts/nft-market.sol\":3226:3249  Order storage lastOrder */\n      0x00\n        /* \"contracts/nft-market.sol\":3252:3258  orders */\n      0x03\n        /* \"contracts/nft-market.sol\":3259:3268  lastIndex */\n      dup3\n        /* \"contracts/nft-market.sol\":3252:3269  orders[lastIndex] */\n      dup2\n      sload\n      dup2\n      lt\n      tag_164\n      jumpi\n      tag_165\n      tag_124\n      jump\t// in\n    tag_165:\n    tag_164:\n      swap1\n      0x00\n      mstore\n      keccak256(0x00, 0x20)\n      swap1\n      0x03\n      mul\n      add\n        /* \"contracts/nft-market.sol\":3226:3269  Order storage lastOrder = orders[lastIndex] */\n      swap1\n      pop\n        /* \"contracts/nft-market.sol\":3300:3309  lastOrder */\n      dup1\n        /* \"contracts/nft-market.sol\":3284:3290  orders */\n      0x03\n        /* \"contracts/nft-market.sol\":3291:3296  index */\n      dup5\n        /* \"contracts/nft-market.sol\":3284:3297  orders[index] */\n      dup2\n      sload\n      dup2\n      lt\n      tag_167\n      jumpi\n      tag_168\n      tag_124\n      jump\t// in\n    tag_168:\n    tag_167:\n      swap1\n      0x00\n      mstore\n      keccak256(0x00, 0x20)\n      swap1\n      0x03\n      mul\n      add\n        /* \"contracts/nft-market.sol\":3284:3309  orders[index] = lastOrder */\n      0x00\n      dup3\n      add\n      0x00\n      swap1\n      sload\n      swap1\n      0x0100\n      exp\n      swap1\n      div\n      0xffffffffffffffffffffffffffffffffffffffff\n      and\n      dup2\n      0x00\n      add\n      exp(0x0100, 0x00)\n      dup2\n      sload\n      dup2\n      0xffffffffffffffffffffffffffffffffffffffff\n      mul\n      not\n      and\n      swap1\n      dup4\n      0xffffffffffffffffffffffffffffffffffffffff\n      and\n      mul\n      or\n      swap1\n      sstore\n      pop\n      0x01\n      dup3\n      add\n      sload\n      dup2\n      0x01\n      add\n      sstore\n      0x02\n      dup3\n      add\n      sload\n      dup2\n      0x02\n      add\n      sstore\n      swap1\n      pop\n      pop\n        /* \"contracts/nft-market.sol\":3351:3356  index */\n      dup3\n        /* \"contracts/nft-market.sol\":3324:3338  idToOrderIndex */\n      0x04\n        /* \"contracts/nft-market.sol\":3324:3348  idToOrderIndex[_tokenId] */\n      0x00\n        /* \"contracts/nft-market.sol\":3339:3347  _tokenId */\n      dup7\n        /* \"contracts/nft-market.sol\":3324:3348  idToOrderIndex[_tokenId] */\n      dup2\n      mstore\n      0x20\n      add\n      swap1\n      dup2\n      mstore\n      0x20\n      add\n      0x00\n      keccak256\n        /* \"contracts/nft-market.sol\":3324:3356  idToOrderIndex[_tokenId] = index */\n      dup2\n      swap1\n      sstore\n      pop\n        /* \"contracts/nft-market.sol\":3211:3369  {... */\n      pop\n        /* \"contracts/nft-market.sol\":3188:3369  if (index!= lastIndex) {... */\n    tag_163:\n        /* \"contracts/nft-market.sol\":3379:3385  orders */\n      0x03\n        /* \"contracts/nft-market.sol\":3379:3391  orders.pop() */\n      dup1\n      sload\n      dup1\n      tag_170\n      jumpi\n      tag_171\n      tag_172\n      jump\t// in\n    tag_171:\n    tag_170:\n      0x01\n      swap1\n      sub\n      dup2\n      dup2\n      swap1\n      0x00\n      mstore\n      keccak256(0x00, 0x20)\n      swap1\n      0x03\n      mul\n      add\n      0x00\n      dup1\n      dup3\n      add\n      exp(0x0100, 0x00)\n      dup2\n      sload\n      swap1\n      0xffffffffffffffffffffffffffffffffffffffff\n      mul\n      not\n      and\n      swap1\n      sstore\n      0x01\n      dup3\n      add\n      0x00\n      swap1\n      sstore\n      0x02\n      dup3\n      add\n      0x00\n      swap1\n      sstore\n      pop\n      pop\n      swap1\n      sstore\n        /* \"contracts/nft-market.sol\":3409:3423  idToOrderIndex */\n      0x04\n        /* \"contracts/nft-market.sol\":3409:3433  idToOrderIndex[_tokenId] */\n      0x00\n        /* \"contracts/nft-market.sol\":3424:3432  _tokenId */\n      dup5\n        /* \"contracts/nft-market.sol\":3409:3433  idToOrderIndex[_tokenId] */\n      dup2\n      mstore\n      0x20\n      add\n      swap1\n      dup2\n      mstore\n      0x20\n      add\n      0x00\n      keccak256\n        /* \"contracts/nft-market.sol\":3402:3433  delete idToOrderIndex[_tokenId] */\n      0x00\n      swap1\n      sstore\n        /* \"contracts/nft-market.sol\":3451:3460  orderOfId */\n      0x02\n        /* \"contracts/nft-market.sol\":3451:3470  orderOfId[_tokenId] */\n      0x00\n        /* \"contracts/nft-market.sol\":3461:3469  _tokenId */\n      dup5\n        /* \"contracts/nft-market.sol\":3451:3470  orderOfId[_tokenId] */\n      dup2\n      mstore\n      0x20\n      add\n      swap1\n      dup2\n      mstore\n      0x20\n      add\n      0x00\n      keccak256\n      0x00\n        /* \"contracts/nft-market.sol\":3444:3470  delete orderOfId[_tokenId] */\n      dup1\n      dup3\n      add\n      exp(0x0100, 0x00)\n      dup2\n      sload\n      swap1\n      0xffffffffffffffffffffffffffffffffffffffff\n      mul\n      not\n      and\n      swap1\n      sstore\n      0x01\n      dup3\n      add\n      0x00\n      swap1\n      sstore\n      0x02\n      dup3\n      add\n      0x00\n      swap1\n      sstore\n      pop\n      pop\n        /* \"contracts/nft-market.sol\":3078:3478  {... */\n      pop\n      pop\n        /* \"contracts/nft-market.sol\":3030:3478  function removeOrder(uint256 _tokenId) internal {... */\n      pop\n      jump\t// out\n    tag_135:\n      mload(0x40)\n      dup1\n      0x60\n      add\n      0x40\n      mstore\n      dup1\n      and(0xffffffffffffffffffffffffffffffffffffffff, 0x00)\n      dup2\n      mstore\n      0x20\n      add\n      0x00\n      dup2\n      mstore\n      0x20\n      add\n      0x00\n      dup2\n      mstore\n      pop\n      swap1\n      jump\t// out\n        /* \"#utility.yul\":7:84   */\n    tag_174:\n        /* \"#utility.yul\":44:51   */\n      0x00\n        /* \"#utility.yul\":73:78   */\n      dup2\n        /* \"#utility.yul\":62:78   */\n      swap1\n      pop\n        /* \"#utility.yul\":7:84   */\n      swap2\n      swap1\n      pop\n      jump\t// out\n        /* \"#utility.yul\":90:208   */\n    tag_175:\n        /* \"#utility.yul\":177:201   */\n      tag_231\n        /* \"#utility.yul\":195:200   */\n      dup2\n        /* \"#utility.yul\":177:201   */\n      tag_174\n      jump\t// in\n    tag_231:\n        /* \"#utility.yul\":172:175   */\n      dup3\n        /* \"#utility.yul\":165:202   */\n      mstore\n        /* \"#utility.yul\":90:208   */\n      pop\n      pop\n      jump\t// out\n        /* \"#utility.yul\":214:436   */\n    tag_19:\n        /* \"#utility.yul\":307:311   */\n      0x00\n        /* \"#utility.yul\":345:347   */\n      0x20\n        /* \"#utility.yul\":334:343   */\n      dup3\n        /* \"#utility.yul\":330:348   */\n      add\n        /* \"#utility.yul\":322:348   */\n      swap1\n      pop\n        /* \"#utility.yul\":358:429   */\n      tag_233\n        /* \"#utility.yul\":426:427   */\n      0x00\n        /* \"#utility.yul\":415:424   */\n      dup4\n        /* \"#utility.yul\":411:428   */\n      add\n        /* \"#utility.yul\":402:408   */\n      dup5\n        /* \"#utility.yul\":358:429   */\n      tag_175\n      jump\t// in\n    tag_233:\n        /* \"#utility.yul\":214:436   */\n      swap3\n      swap2\n      pop\n      pop\n      jump\t// out\n        /* \"#utility.yul\":523:640   */\n    tag_177:\n        /* \"#utility.yul\":632:633   */\n      0x00\n        /* \"#utility.yul\":629:630   */\n      dup1\n        /* \"#utility.yul\":622:634   */\n      revert\n        /* \"#utility.yul\":646:763   */\n    tag_178:\n        /* \"#utility.yul\":755:756   */\n      0x00\n        /* \"#utility.yul\":752:753   */\n      dup1\n        /* \"#utility.yul\":745:757   */\n      revert\n        /* \"#utility.yul\":769:895   */\n    tag_179:\n        /* \"#utility.yul\":806:813   */\n      0x00\n        /* \"#utility.yul\":846:888   */\n      0xffffffffffffffffffffffffffffffffffffffff\n        /* \"#utility.yul\":839:844   */\n      dup3\n        /* \"#utility.yul\":835:889   */\n      and\n        /* \"#utility.yul\":824:889   */\n      swap1\n      pop\n        /* \"#utility.yul\":769:895   */\n      swap2\n      swap1\n      pop\n      jump\t// out\n        /* \"#utility.yul\":901:997   */\n    tag_180:\n        /* \"#utility.yul\":938:945   */\n      0x00\n        /* \"#utility.yul\":967:991   */\n      tag_239\n        /* \"#utility.yul\":985:990   */\n      dup3\n        /* \"#utility.yul\":967:991   */\n      tag_179\n      jump\t// in\n    tag_239:\n        /* \"#utility.yul\":956:991   */\n      swap1\n      pop\n        /* \"#utility.yul\":901:997   */\n      swap2\n      swap1\n      pop\n      jump\t// out\n        /* \"#utility.yul\":1003:1125   */\n    tag_181:\n        /* \"#utility.yul\":1076:1100   */\n      tag_241\n        /* \"#utility.yul\":1094:1099   */\n      dup2\n        /* \"#utility.yul\":1076:1100   */\n      tag_180\n      jump\t// in\n    tag_241:\n        /* \"#utility.yul\":1069:1074   */\n      dup2\n        /* \"#utility.yul\":1066:1101   */\n      eq\n        /* \"#utility.yul\":1056:1119   */\n      tag_242\n      jumpi\n        /* \"#utility.yul\":1115:1116   */\n      0x00\n        /* \"#utility.yul\":1112:1113   */\n      dup1\n        /* \"#utility.yul\":1105:1117   */\n      revert\n        /* \"#utility.yul\":1056:1119   */\n    tag_242:\n        /* \"#utility.yul\":1003:1125   */\n      pop\n      jump\t// out\n        /* \"#utility.yul\":1131:1270   */\n    tag_182:\n        /* \"#utility.yul\":1177:1182   */\n      0x00\n        /* \"#utility.yul\":1215:1221   */\n      dup2\n        /* \"#utility.yul\":1202:1222   */\n      calldataload\n        /* \"#utility.yul\":1193:1222   */\n      swap1\n      pop\n        /* \"#utility.yul\":1231:1264   */\n      tag_244\n        /* \"#utility.yul\":1258:1263   */\n      dup2\n        /* \"#utility.yul\":1231:1264   */\n      tag_181\n      jump\t// in\n    tag_244:\n        /* \"#utility.yul\":1131:1270   */\n      swap3\n      swap2\n      pop\n      pop\n      jump\t// out\n        /* \"#utility.yul\":1276:1398   */\n    tag_183:\n        /* \"#utility.yul\":1349:1373   */\n      tag_246\n        /* \"#utility.yul\":1367:1372   */\n      dup2\n        /* \"#utility.yul\":1349:1373   */\n      tag_174\n      jump\t// in\n    tag_246:\n        /* \"#utility.yul\":1342:1347   */\n      dup2\n        /* \"#utility.yul\":1339:1374   */\n      eq\n        /* \"#utility.yul\":1329:1392   */\n      tag_247\n      jumpi\n        /* \"#utility.yul\":1388:1389   */\n      0x00\n        /* \"#utility.yul\":1385:1386   */\n      dup1\n        /* \"#utility.yul\":1378:1390   */\n      revert\n        /* \"#utility.yul\":1329:1392   */\n    tag_247:\n        /* \"#utility.yul\":1276:1398   */\n      pop\n      jump\t// out\n        /* \"#utility.yul\":1404:1543   */\n    tag_184:\n        /* \"#utility.yul\":1450:1455   */\n      0x00\n        /* \"#utility.yul\":1488:1494   */\n      dup2\n        /* \"#utility.yul\":1475:1495   */\n      calldataload\n        /* \"#utility.yul\":1466:1495   */\n      swap1\n      pop\n        /* \"#utility.yul\":1504:1537   */\n      tag_249\n        /* \"#utility.yul\":1531:1536   */\n      dup2\n        /* \"#utility.yul\":1504:1537   */\n      tag_183\n      jump\t// in\n    tag_249:\n        /* \"#utility.yul\":1404:1543   */\n      swap3\n      swap2\n      pop\n      pop\n      jump\t// out\n        /* \"#utility.yul\":1549:1666   */\n    tag_185:\n        /* \"#utility.yul\":1658:1659   */\n      0x00\n        /* \"#utility.yul\":1655:1656   */\n      dup1\n        /* \"#utility.yul\":1648:1660   */\n      revert\n        /* \"#utility.yul\":1672:1789   */\n    tag_186:\n        /* \"#utility.yul\":1781:1782   */\n      0x00\n        /* \"#utility.yul\":1778:1779   */\n      dup1\n        /* \"#utility.yul\":1771:1783   */\n      revert\n        /* \"#utility.yul\":1795:1912   */\n    tag_187:\n        /* \"#utility.yul\":1904:1905   */\n      0x00\n        /* \"#utility.yul\":1901:1902   */\n      dup1\n        /* \"#utility.yul\":1894:1906   */\n      revert\n        /* \"#utility.yul\":1931:2483   */\n    tag_188:\n        /* \"#utility.yul\":1988:1996   */\n      0x00\n        /* \"#utility.yul\":1998:2004   */\n      dup1\n        /* \"#utility.yul\":2048:2051   */\n      dup4\n        /* \"#utility.yul\":2041:2045   */\n      0x1f\n        /* \"#utility.yul\":2033:2039   */\n      dup5\n        /* \"#utility.yul\":2029:2046   */\n      add\n        /* \"#utility.yul\":2025:2052   */\n      slt\n        /* \"#utility.yul\":2015:2137   */\n      tag_254\n      jumpi\n        /* \"#utility.yul\":2056:2135   */\n      tag_255\n      tag_185\n      jump\t// in\n    tag_255:\n        /* \"#utility.yul\":2015:2137   */\n    tag_254:\n        /* \"#utility.yul\":2169:2175   */\n      dup3\n        /* \"#utility.yul\":2156:2176   */\n      calldataload\n        /* \"#utility.yul\":2146:2176   */\n      swap1\n      pop\n        /* \"#utility.yul\":2199:2217   */\n      0xffffffffffffffff\n        /* \"#utility.yul\":2191:2197   */\n      dup2\n        /* \"#utility.yul\":2188:2218   */\n      gt\n        /* \"#utility.yul\":2185:2302   */\n      iszero\n      tag_256\n      jumpi\n        /* \"#utility.yul\":2221:2300   */\n      tag_257\n      tag_186\n      jump\t// in\n    tag_257:\n        /* \"#utility.yul\":2185:2302   */\n    tag_256:\n        /* \"#utility.yul\":2335:2339   */\n      0x20\n        /* \"#utility.yul\":2327:2333   */\n      dup4\n        /* \"#utility.yul\":2323:2340   */\n      add\n        /* \"#utility.yul\":2311:2340   */\n      swap2\n      pop\n        /* \"#utility.yul\":2389:2392   */\n      dup4\n        /* \"#utility.yul\":2381:2385   */\n      0x01\n        /* \"#utility.yul\":2373:2379   */\n      dup3\n        /* \"#utility.yul\":2369:2386   */\n      mul\n        /* \"#utility.yul\":2359:2367   */\n      dup4\n        /* \"#utility.yul\":2355:2387   */\n      add\n        /* \"#utility.yul\":2352:2393   */\n      gt\n        /* \"#utility.yul\":2349:2477   */\n      iszero\n      tag_258\n      jumpi\n        /* \"#utility.yul\":2396:2475   */\n      tag_259\n      tag_187\n      jump\t// in\n    tag_259:\n        /* \"#utility.yul\":2349:2477   */\n    tag_258:\n        /* \"#utility.yul\":1931:2483   */\n      swap3\n      pop\n      swap3\n      swap1\n      pop\n      jump\t// out\n        /* \"#utility.yul\":2489:3452   */\n    tag_22:\n        /* \"#utility.yul\":2586:2592   */\n      0x00\n        /* \"#utility.yul\":2594:2600   */\n      dup1\n        /* \"#utility.yul\":2602:2608   */\n      0x00\n        /* \"#utility.yul\":2610:2616   */\n      dup1\n        /* \"#utility.yul\":2618:2624   */\n      0x00\n        /* \"#utility.yul\":2667:2670   */\n      0x80\n        /* \"#utility.yul\":2655:2664   */\n      dup7\n        /* \"#utility.yul\":2646:2653   */\n      dup9\n        /* \"#utility.yul\":2642:2665   */\n      sub\n        /* \"#utility.yul\":2638:2671   */\n      slt\n        /* \"#utility.yul\":2635:2755   */\n      iszero\n      tag_261\n      jumpi\n        /* \"#utility.yul\":2674:2753   */\n      tag_262\n      tag_177\n      jump\t// in\n    tag_262:\n        /* \"#utility.yul\":2635:2755   */\n    tag_261:\n        /* \"#utility.yul\":2794:2795   */\n      0x00\n        /* \"#utility.yul\":2819:2872   */\n      tag_263\n        /* \"#utility.yul\":2864:2871   */\n      dup9\n        /* \"#utility.yul\":2855:2861   */\n      dup3\n        /* \"#utility.yul\":2844:2853   */\n      dup10\n        /* \"#utility.yul\":2840:2862   */\n      add\n        /* \"#utility.yul\":2819:2872   */\n      tag_182\n      jump\t// in\n    tag_263:\n        /* \"#utility.yul\":2809:2872   */\n      swap6\n      pop\n        /* \"#utility.yul\":2765:2882   */\n      pop\n        /* \"#utility.yul\":2921:2923   */\n      0x20\n        /* \"#utility.yul\":2947:3000   */\n      tag_264\n        /* \"#utility.yul\":2992:2999   */\n      dup9\n        /* \"#utility.yul\":2983:2989   */\n      dup3\n        /* \"#utility.yul\":2972:2981   */\n      dup10\n        /* \"#utility.yul\":2968:2990   */\n      add\n        /* \"#utility.yul\":2947:3000   */\n      tag_182\n      jump\t// in\n    tag_264:\n        /* \"#utility.yul\":2937:3000   */\n      swap5\n      pop\n        /* \"#utility.yul\":2892:3010   */\n      pop\n        /* \"#utility.yul\":3049:3051   */\n      0x40\n        /* \"#utility.yul\":3075:3128   */\n      tag_265\n        /* \"#utility.yul\":3120:3127   */\n      dup9\n        /* \"#utility.yul\":3111:3117   */\n      dup3\n        /* \"#utility.yul\":3100:3109   */\n      dup10\n        /* \"#utility.yul\":3096:3118   */\n      add\n        /* \"#utility.yul\":3075:3128   */\n      tag_184\n      jump\t// in\n    tag_265:\n        /* \"#utility.yul\":3065:3128   */\n      swap4\n      pop\n        /* \"#utility.yul\":3020:3138   */\n      pop\n        /* \"#utility.yul\":3205:3207   */\n      0x60\n        /* \"#utility.yul\":3194:3203   */\n      dup7\n        /* \"#utility.yul\":3190:3208   */\n      add\n        /* \"#utility.yul\":3177:3209   */\n      calldataload\n        /* \"#utility.yul\":3236:3254   */\n      0xffffffffffffffff\n        /* \"#utility.yul\":3228:3234   */\n      dup2\n        /* \"#utility.yul\":3225:3255   */\n      gt\n        /* \"#utility.yul\":3222:3339   */\n      iszero\n      tag_266\n      jumpi\n        /* \"#utility.yul\":3258:3337   */\n      tag_267\n      tag_178\n      jump\t// in\n    tag_267:\n        /* \"#utility.yul\":3222:3339   */\n    tag_266:\n        /* \"#utility.yul\":3371:3435   */\n      tag_268\n        /* \"#utility.yul\":3427:3434   */\n      dup9\n        /* \"#utility.yul\":3418:3424   */\n      dup3\n        /* \"#utility.yul\":3407:3416   */\n      dup10\n        /* \"#utility.yul\":3403:3425   */\n      add\n        /* \"#utility.yul\":3371:3435   */\n      tag_188\n      jump\t// in\n    tag_268:\n        /* \"#utility.yul\":3353:3435   */\n      swap3\n      pop\n      swap3\n      pop\n        /* \"#utility.yul\":3148:3445   */\n      pop\n        /* \"#utility.yul\":2489:3452   */\n      swap3\n      swap6\n      pop\n      swap3\n      swap6\n      swap1\n      swap4\n      pop\n      jump\t// out\n        /* \"#utility.yul\":3458:3607   */\n    tag_189:\n        /* \"#utility.yul\":3494:3501   */\n      0x00\n        /* \"#utility.yul\":3534:3600   */\n      0xffffffff00000000000000000000000000000000000000000000000000000000\n        /* \"#utility.yul\":3527:3532   */\n      dup3\n        /* \"#utility.yul\":3523:3601   */\n      and\n        /* \"#utility.yul\":3512:3601   */\n      swap1\n      pop\n        /* \"#utility.yul\":3458:3607   */\n      swap2\n      swap1\n      pop\n      jump\t// out\n        /* \"#utility.yul\":3613:3728   */\n    tag_190:\n        /* \"#utility.yul\":3698:3721   */\n      tag_271\n        /* \"#utility.yul\":3715:3720   */\n      dup2\n        /* \"#utility.yul\":3698:3721   */\n      tag_189\n      jump\t// in\n    tag_271:\n        /* \"#utility.yul\":3693:3696   */\n      dup3\n        /* \"#utility.yul\":3686:3722   */\n      mstore\n        /* \"#utility.yul\":3613:3728   */\n      pop\n      pop\n      jump\t// out\n        /* \"#utility.yul\":3734:3952   */\n    tag_25:\n        /* \"#utility.yul\":3825:3829   */\n      0x00\n        /* \"#utility.yul\":3863:3865   */\n      0x20\n        /* \"#utility.yul\":3852:3861   */\n      dup3\n        /* \"#utility.yul\":3848:3866   */\n      add\n        /* \"#utility.yul\":3840:3866   */\n      swap1\n      pop\n        /* \"#utility.yul\":3876:3945   */\n      tag_273\n        /* \"#utility.yul\":3942:3943   */\n      0x00\n        /* \"#utility.yul\":3931:3940   */\n      dup4\n        /* \"#utility.yul\":3927:3944   */\n      add\n        /* \"#utility.yul\":3918:3924   */\n      dup5\n        /* \"#utility.yul\":3876:3945   */\n      tag_190\n      jump\t// in\n    tag_273:\n        /* \"#utility.yul\":3734:3952   */\n      swap3\n      swap2\n      pop\n      pop\n      jump\t// out\n        /* \"#utility.yul\":3958:4287   */\n    tag_28:\n        /* \"#utility.yul\":4017:4023   */\n      0x00\n        /* \"#utility.yul\":4066:4068   */\n      0x20\n        /* \"#utility.yul\":4054:4063   */\n      dup3\n        /* \"#utility.yul\":4045:4052   */\n      dup5\n        /* \"#utility.yul\":4041:4064   */\n      sub\n        /* \"#utility.yul\":4037:4069   */\n      slt\n        /* \"#utility.yul\":4034:4153   */\n      iszero\n      tag_275\n      jumpi\n        /* \"#utility.yul\":4072:4151   */\n      tag_276\n      tag_177\n      jump\t// in\n    tag_276:\n        /* \"#utility.yul\":4034:4153   */\n    tag_275:\n        /* \"#utility.yul\":4192:4193   */\n      0x00\n        /* \"#utility.yul\":4217:4270   */\n      tag_277\n        /* \"#utility.yul\":4262:4269   */\n      dup5\n        /* \"#utility.yul\":4253:4259   */\n      dup3\n        /* \"#utility.yul\":4242:4251   */\n      dup6\n        /* \"#utility.yul\":4238:4260   */\n      add\n        /* \"#utility.yul\":4217:4270   */\n      tag_184\n      jump\t// in\n    tag_277:\n        /* \"#utility.yul\":4207:4270   */\n      swap2\n      pop\n        /* \"#utility.yul\":4163:4280   */\n      pop\n        /* \"#utility.yul\":3958:4287   */\n      swap3\n      swap2\n      pop\n      pop\n      jump\t// out\n        /* \"#utility.yul\":4293:4411   */\n    tag_191:\n        /* \"#utility.yul\":4380:4404   */\n      tag_279\n        /* \"#utility.yul\":4398:4403   */\n      dup2\n        /* \"#utility.yul\":4380:4404   */\n      tag_180\n      jump\t// in\n    tag_279:\n        /* \"#utility.yul\":4375:4378   */\n      dup3\n        /* \"#utility.yul\":4368:4405   */\n      mstore\n        /* \"#utility.yul\":4293:4411   */\n      pop\n      pop\n      jump\t// out\n        /* \"#utility.yul\":4417:4859   */\n    tag_31:\n        /* \"#utility.yul\":4566:4570   */\n      0x00\n        /* \"#utility.yul\":4604:4606   */\n      0x60\n        /* \"#utility.yul\":4593:4602   */\n      dup3\n        /* \"#utility.yul\":4589:4607   */\n      add\n        /* \"#utility.yul\":4581:4607   */\n      swap1\n      pop\n        /* \"#utility.yul\":4617:4688   */\n      tag_281\n        /* \"#utility.yul\":4685:4686   */\n      0x00\n        /* \"#utility.yul\":4674:4683   */\n      dup4\n        /* \"#utility.yul\":4670:4687   */\n      add\n        /* \"#utility.yul\":4661:4667   */\n      dup7\n        /* \"#utility.yul\":4617:4688   */\n      tag_191\n      jump\t// in\n    tag_281:\n        /* \"#utility.yul\":4698:4770   */\n      tag_282\n        /* \"#utility.yul\":4766:4768   */\n      0x20\n        /* \"#utility.yul\":4755:4764   */\n      dup4\n        /* \"#utility.yul\":4751:4769   */\n      add\n        /* \"#utility.yul\":4742:4748   */\n      dup6\n        /* \"#utility.yul\":4698:4770   */\n      tag_175\n      jump\t// in\n    tag_282:\n        /* \"#utility.yul\":4780:4852   */\n      tag_283\n        /* \"#utility.yul\":4848:4850   */\n      0x40\n        /* \"#utility.yul\":4837:4846   */\n      dup4\n        /* \"#utility.yul\":4833:4851   */\n      add\n        /* \"#utility.yul\":4824:4830   */\n      dup5\n        /* \"#utility.yul\":4780:4852   */\n      tag_175\n      jump\t// in\n    tag_283:\n        /* \"#utility.yul\":4417:4859   */\n      swap5\n      swap4\n      pop\n      pop\n      pop\n      pop\n      jump\t// out\n        /* \"#utility.yul\":4865:4925   */\n    tag_192:\n        /* \"#utility.yul\":4893:4896   */\n      0x00\n        /* \"#utility.yul\":4914:4919   */\n      dup2\n        /* \"#utility.yul\":4907:4919   */\n      swap1\n      pop\n        /* \"#utility.yul\":4865:4925   */\n      swap2\n      swap1\n      pop\n      jump\t// out\n        /* \"#utility.yul\":4931:5073   */\n    tag_193:\n        /* \"#utility.yul\":4981:4990   */\n      0x00\n        /* \"#utility.yul\":5014:5067   */\n      tag_286\n        /* \"#utility.yul\":5032:5066   */\n      tag_287\n        /* \"#utility.yul\":5041:5065   */\n      tag_288\n        /* \"#utility.yul\":5059:5064   */\n      dup5\n        /* \"#utility.yul\":5041:5065   */\n      tag_179\n      jump\t// in\n    tag_288:\n        /* \"#utility.yul\":5032:5066   */\n      tag_192\n      jump\t// in\n    tag_287:\n        /* \"#utility.yul\":5014:5067   */\n      tag_179\n      jump\t// in\n    tag_286:\n        /* \"#utility.yul\":5001:5067   */\n      swap1\n      pop\n        /* \"#utility.yul\":4931:5073   */\n      swap2\n      swap1\n      pop\n      jump\t// out\n        /* \"#utility.yul\":5079:5205   */\n    tag_194:\n        /* \"#utility.yul\":5129:5138   */\n      0x00\n        /* \"#utility.yul\":5162:5199   */\n      tag_290\n        /* \"#utility.yul\":5193:5198   */\n      dup3\n        /* \"#utility.yul\":5162:5199   */\n      tag_193\n      jump\t// in\n    tag_290:\n        /* \"#utility.yul\":5149:5199   */\n      swap1\n      pop\n        /* \"#utility.yul\":5079:5205   */\n      swap2\n      swap1\n      pop\n      jump\t// out\n        /* \"#utility.yul\":5211:5350   */\n    tag_195:\n        /* \"#utility.yul\":5274:5283   */\n      0x00\n        /* \"#utility.yul\":5307:5344   */\n      tag_292\n        /* \"#utility.yul\":5338:5343   */\n      dup3\n        /* \"#utility.yul\":5307:5344   */\n      tag_194\n      jump\t// in\n    tag_292:\n        /* \"#utility.yul\":5294:5344   */\n      swap1\n      pop\n        /* \"#utility.yul\":5211:5350   */\n      swap2\n      swap1\n      pop\n      jump\t// out\n        /* \"#utility.yul\":5356:5513   */\n    tag_196:\n        /* \"#utility.yul\":5456:5506   */\n      tag_294\n        /* \"#utility.yul\":5500:5505   */\n      dup2\n        /* \"#utility.yul\":5456:5506   */\n      tag_195\n      jump\t// in\n    tag_294:\n        /* \"#utility.yul\":5451:5454   */\n      dup3\n        /* \"#utility.yul\":5444:5507   */\n      mstore\n        /* \"#utility.yul\":5356:5513   */\n      pop\n      pop\n      jump\t// out\n        /* \"#utility.yul\":5519:5767   */\n    tag_38:\n        /* \"#utility.yul\":5625:5629   */\n      0x00\n        /* \"#utility.yul\":5663:5665   */\n      0x20\n        /* \"#utility.yul\":5652:5661   */\n      dup3\n        /* \"#utility.yul\":5648:5666   */\n      add\n        /* \"#utility.yul\":5640:5666   */\n      swap1\n      pop\n        /* \"#utility.yul\":5676:5760   */\n      tag_296\n        /* \"#utility.yul\":5757:5758   */\n      0x00\n        /* \"#utility.yul\":5746:5755   */\n      dup4\n        /* \"#utility.yul\":5742:5759   */\n      add\n        /* \"#utility.yul\":5733:5739   */\n      dup5\n        /* \"#utility.yul\":5676:5760   */\n      tag_196\n      jump\t// in\n    tag_296:\n        /* \"#utility.yul\":5519:5767   */\n      swap3\n      swap2\n      pop\n      pop\n      jump\t// out\n        /* \"#utility.yul\":5773:5914   */\n    tag_197:\n        /* \"#utility.yul\":5838:5847   */\n      0x00\n        /* \"#utility.yul\":5871:5908   */\n      tag_298\n        /* \"#utility.yul\":5902:5907   */\n      dup3\n        /* \"#utility.yul\":5871:5908   */\n      tag_194\n      jump\t// in\n    tag_298:\n        /* \"#utility.yul\":5858:5908   */\n      swap1\n      pop\n        /* \"#utility.yul\":5773:5914   */\n      swap2\n      swap1\n      pop\n      jump\t// out\n        /* \"#utility.yul\":5920:6081   */\n    tag_198:\n        /* \"#utility.yul\":6022:6074   */\n      tag_300\n        /* \"#utility.yul\":6068:6073   */\n      dup2\n        /* \"#utility.yul\":6022:6074   */\n      tag_197\n      jump\t// in\n    tag_300:\n        /* \"#utility.yul\":6017:6020   */\n      dup3\n        /* \"#utility.yul\":6010:6075   */\n      mstore\n        /* \"#utility.yul\":5920:6081   */\n      pop\n      pop\n      jump\t// out\n        /* \"#utility.yul\":6087:6339   */\n    tag_46:\n        /* \"#utility.yul\":6195:6199   */\n      0x00\n        /* \"#utility.yul\":6233:6235   */\n      0x20\n        /* \"#utility.yul\":6222:6231   */\n      dup3\n        /* \"#utility.yul\":6218:6236   */\n      add\n        /* \"#utility.yul\":6210:6236   */\n      swap1\n      pop\n        /* \"#utility.yul\":6246:6332   */\n      tag_302\n        /* \"#utility.yul\":6329:6330   */\n      0x00\n        /* \"#utility.yul\":6318:6327   */\n      dup4\n        /* \"#utility.yul\":6314:6331   */\n      add\n        /* \"#utility.yul\":6305:6311   */\n      dup5\n        /* \"#utility.yul\":6246:6332   */\n      tag_198\n      jump\t// in\n    tag_302:\n        /* \"#utility.yul\":6087:6339   */\n      swap3\n      swap2\n      pop\n      pop\n      jump\t// out\n        /* \"#utility.yul\":6345:6819   */\n    tag_49:\n        /* \"#utility.yul\":6413:6419   */\n      0x00\n        /* \"#utility.yul\":6421:6427   */\n      dup1\n        /* \"#utility.yul\":6470:6472   */\n      0x40\n        /* \"#utility.yul\":6458:6467   */\n      dup4\n        /* \"#utility.yul\":6449:6456   */\n      dup6\n        /* \"#utility.yul\":6445:6468   */\n      sub\n        /* \"#utility.yul\":6441:6473   */\n      slt\n        /* \"#utility.yul\":6438:6557   */\n      iszero\n      tag_304\n      jumpi\n        /* \"#utility.yul\":6476:6555   */\n      tag_305\n      tag_177\n      jump\t// in\n    tag_305:\n        /* \"#utility.yul\":6438:6557   */\n    tag_304:\n        /* \"#utility.yul\":6596:6597   */\n      0x00\n        /* \"#utility.yul\":6621:6674   */\n      tag_306\n        /* \"#utility.yul\":6666:6673   */\n      dup6\n        /* \"#utility.yul\":6657:6663   */\n      dup3\n        /* \"#utility.yul\":6646:6655   */\n      dup7\n        /* \"#utility.yul\":6642:6664   */\n      add\n        /* \"#utility.yul\":6621:6674   */\n      tag_184\n      jump\t// in\n    tag_306:\n        /* \"#utility.yul\":6611:6674   */\n      swap3\n      pop\n        /* \"#utility.yul\":6567:6684   */\n      pop\n        /* \"#utility.yul\":6723:6725   */\n      0x20\n        /* \"#utility.yul\":6749:6802   */\n      tag_307\n        /* \"#utility.yul\":6794:6801   */\n      dup6\n        /* \"#utility.yul\":6785:6791   */\n      dup3\n        /* \"#utility.yul\":6774:6783   */\n      dup7\n        /* \"#utility.yul\":6770:6792   */\n      add\n        /* \"#utility.yul\":6749:6802   */\n      tag_184\n      jump\t// in\n    tag_307:\n        /* \"#utility.yul\":6739:6802   */\n      swap2\n      pop\n        /* \"#utility.yul\":6694:6812   */\n      pop\n        /* \"#utility.yul\":6345:6819   */\n      swap3\n      pop\n      swap3\n      swap1\n      pop\n      jump\t// out\n        /* \"#utility.yul\":6825:6961   */\n    tag_199:\n        /* \"#utility.yul\":6914:6920   */\n      0x00\n        /* \"#utility.yul\":6948:6953   */\n      dup2\n        /* \"#utility.yul\":6942:6954   */\n      mload\n        /* \"#utility.yul\":6932:6954   */\n      swap1\n      pop\n        /* \"#utility.yul\":6825:6961   */\n      swap2\n      swap1\n      pop\n      jump\t// out\n        /* \"#utility.yul\":6967:7173   */\n    tag_200:\n        /* \"#utility.yul\":7088:7099   */\n      0x00\n        /* \"#utility.yul\":7122:7128   */\n      dup3\n        /* \"#utility.yul\":7117:7120   */\n      dup3\n        /* \"#utility.yul\":7110:7129   */\n      mstore\n        /* \"#utility.yul\":7162:7166   */\n      0x20\n        /* \"#utility.yul\":7157:7160   */\n      dup3\n        /* \"#utility.yul\":7153:7167   */\n      add\n        /* \"#utility.yul\":7138:7167   */\n      swap1\n      pop\n        /* \"#utility.yul\":6967:7173   */\n      swap3\n      swap2\n      pop\n      pop\n      jump\t// out\n        /* \"#utility.yul\":7179:7333   */\n    tag_201:\n        /* \"#utility.yul\":7268:7272   */\n      0x00\n        /* \"#utility.yul\":7291:7294   */\n      dup2\n        /* \"#utility.yul\":7283:7294   */\n      swap1\n      pop\n        /* \"#utility.yul\":7321:7325   */\n      0x20\n        /* \"#utility.yul\":7316:7319   */\n      dup3\n        /* \"#utility.yul\":7312:7326   */\n      add\n        /* \"#utility.yul\":7304:7326   */\n      swap1\n      pop\n        /* \"#utility.yul\":7179:7333   */\n      swap2\n      swap1\n      pop\n      jump\t// out\n        /* \"#utility.yul\":7339:7447   */\n    tag_202:\n        /* \"#utility.yul\":7416:7440   */\n      tag_312\n        /* \"#utility.yul\":7434:7439   */\n      dup2\n        /* \"#utility.yul\":7416:7440   */\n      tag_180\n      jump\t// in\n    tag_312:\n        /* \"#utility.yul\":7411:7414   */\n      dup3\n        /* \"#utility.yul\":7404:7441   */\n      mstore\n        /* \"#utility.yul\":7339:7447   */\n      pop\n      pop\n      jump\t// out\n        /* \"#utility.yul\":7453:7561   */\n    tag_203:\n        /* \"#utility.yul\":7530:7554   */\n      tag_314\n        /* \"#utility.yul\":7548:7553   */\n      dup2\n        /* \"#utility.yul\":7530:7554   */\n      tag_174\n      jump\t// in\n    tag_314:\n        /* \"#utility.yul\":7525:7528   */\n      dup3\n        /* \"#utility.yul\":7518:7555   */\n      mstore\n        /* \"#utility.yul\":7453:7561   */\n      pop\n      pop\n      jump\t// out\n        /* \"#utility.yul\":7617:8288   */\n    tag_204:\n        /* \"#utility.yul\":7748:7752   */\n      0x60\n        /* \"#utility.yul\":7743:7746   */\n      dup3\n        /* \"#utility.yul\":7739:7753   */\n      add\n        /* \"#utility.yul\":7837:7841   */\n      0x00\n        /* \"#utility.yul\":7830:7835   */\n      dup3\n        /* \"#utility.yul\":7826:7842   */\n      add\n        /* \"#utility.yul\":7820:7843   */\n      mload\n        /* \"#utility.yul\":7856:7919   */\n      tag_316\n        /* \"#utility.yul\":7913:7917   */\n      0x00\n        /* \"#utility.yul\":7908:7911   */\n      dup6\n        /* \"#utility.yul\":7904:7918   */\n      add\n        /* \"#utility.yul\":7890:7902   */\n      dup3\n        /* \"#utility.yul\":7856:7919   */\n      tag_202\n      jump\t// in\n    tag_316:\n        /* \"#utility.yul\":7763:7929   */\n      pop\n        /* \"#utility.yul\":8014:8018   */\n      0x20\n        /* \"#utility.yul\":8007:8012   */\n      dup3\n        /* \"#utility.yul\":8003:8019   */\n      add\n        /* \"#utility.yul\":7997:8020   */\n      mload\n        /* \"#utility.yul\":8033:8096   */\n      tag_317\n        /* \"#utility.yul\":8090:8094   */\n      0x20\n        /* \"#utility.yul\":8085:8088   */\n      dup6\n        /* \"#utility.yul\":8081:8095   */\n      add\n        /* \"#utility.yul\":8067:8079   */\n      dup3\n        /* \"#utility.yul\":8033:8096   */\n      tag_203\n      jump\t// in\n    tag_317:\n        /* \"#utility.yul\":7939:8106   */\n      pop\n        /* \"#utility.yul\":8189:8193   */\n      0x40\n        /* \"#utility.yul\":8182:8187   */\n      dup3\n        /* \"#utility.yul\":8178:8194   */\n      add\n        /* \"#utility.yul\":8172:8195   */\n      mload\n        /* \"#utility.yul\":8208:8271   */\n      tag_318\n        /* \"#utility.yul\":8265:8269   */\n      0x40\n        /* \"#utility.yul\":8260:8263   */\n      dup6\n        /* \"#utility.yul\":8256:8270   */\n      add\n        /* \"#utility.yul\":8242:8254   */\n      dup3\n        /* \"#utility.yul\":8208:8271   */\n      tag_203\n      jump\t// in\n    tag_318:\n        /* \"#utility.yul\":8116:8281   */\n      pop\n        /* \"#utility.yul\":7717:8288   */\n      pop\n        /* \"#utility.yul\":7617:8288   */\n      pop\n      pop\n      jump\t// out\n        /* \"#utility.yul\":8294:8561   */\n    tag_205:\n        /* \"#utility.yul\":8407:8417   */\n      0x00\n        /* \"#utility.yul\":8428:8518   */\n      tag_320\n        /* \"#utility.yul\":8514:8517   */\n      dup4\n        /* \"#utility.yul\":8506:8512   */\n      dup4\n        /* \"#utility.yul\":8428:8518   */\n      tag_204\n      jump\t// in\n    tag_320:\n        /* \"#utility.yul\":8550:8554   */\n      0x60\n        /* \"#utility.yul\":8545:8548   */\n      dup4\n        /* \"#utility.yul\":8541:8555   */\n      add\n        /* \"#utility.yul\":8527:8555   */\n      swap1\n      pop\n        /* \"#utility.yul\":8294:8561   */\n      swap3\n      swap2\n      pop\n      pop\n      jump\t// out\n        /* \"#utility.yul\":8567:8702   */\n    tag_206:\n        /* \"#utility.yul\":8659:8663   */\n      0x00\n        /* \"#utility.yul\":8691:8695   */\n      0x20\n        /* \"#utility.yul\":8686:8689   */\n      dup3\n        /* \"#utility.yul\":8682:8696   */\n      add\n        /* \"#utility.yul\":8674:8696   */\n      swap1\n      pop\n        /* \"#utility.yul\":8567:8702   */\n      swap2\n      swap1\n      pop\n      jump\t// out\n        /* \"#utility.yul\":8762:9670   */\n    tag_207:\n        /* \"#utility.yul\":8925:8928   */\n      0x00\n        /* \"#utility.yul\":8954:9030   */\n      tag_323\n        /* \"#utility.yul\":9024:9029   */\n      dup3\n        /* \"#utility.yul\":8954:9030   */\n      tag_199\n      jump\t// in\n    tag_323:\n        /* \"#utility.yul\":9046:9154   */\n      tag_324\n        /* \"#utility.yul\":9147:9153   */\n      dup2\n        /* \"#utility.yul\":9142:9145   */\n      dup6\n        /* \"#utility.yul\":9046:9154   */\n      tag_200\n      jump\t// in\n    tag_324:\n        /* \"#utility.yul\":9039:9154   */\n      swap4\n      pop\n        /* \"#utility.yul\":9178:9256   */\n      tag_325\n        /* \"#utility.yul\":9250:9255   */\n      dup4\n        /* \"#utility.yul\":9178:9256   */\n      tag_201\n      jump\t// in\n    tag_325:\n        /* \"#utility.yul\":9279:9286   */\n      dup1\n        /* \"#utility.yul\":9310:9311   */\n      0x00\n        /* \"#utility.yul\":9295:9645   */\n    tag_326:\n        /* \"#utility.yul\":9320:9326   */\n      dup4\n        /* \"#utility.yul\":9317:9318   */\n      dup2\n        /* \"#utility.yul\":9314:9327   */\n      lt\n        /* \"#utility.yul\":9295:9645   */\n      iszero\n      tag_328\n      jumpi\n        /* \"#utility.yul\":9396:9402   */\n      dup2\n        /* \"#utility.yul\":9390:9403   */\n      mload\n        /* \"#utility.yul\":9423:9530   */\n      tag_329\n        /* \"#utility.yul\":9526:9529   */\n      dup9\n        /* \"#utility.yul\":9511:9524   */\n      dup3\n        /* \"#utility.yul\":9423:9530   */\n      tag_205\n      jump\t// in\n    tag_329:\n        /* \"#utility.yul\":9416:9530   */\n      swap8\n      pop\n        /* \"#utility.yul\":9553:9635   */\n      tag_330\n        /* \"#utility.yul\":9628:9634   */\n      dup4\n        /* \"#utility.yul\":9553:9635   */\n      tag_206\n      jump\t// in\n    tag_330:\n        /* \"#utility.yul\":9543:9635   */\n      swap3\n      pop\n        /* \"#utility.yul\":9355:9645   */\n      pop\n        /* \"#utility.yul\":9342:9343   */\n      0x01\n        /* \"#utility.yul\":9339:9340   */\n      dup2\n        /* \"#utility.yul\":9335:9344   */\n      add\n        /* \"#utility.yul\":9330:9344   */\n      swap1\n      pop\n        /* \"#utility.yul\":9295:9645   */\n      jump(tag_326)\n    tag_328:\n        /* \"#utility.yul\":9299:9313   */\n      pop\n        /* \"#utility.yul\":9661:9664   */\n      dup6\n        /* \"#utility.yul\":9654:9664   */\n      swap4\n      pop\n        /* \"#utility.yul\":8930:9670   */\n      pop\n      pop\n      pop\n        /* \"#utility.yul\":8762:9670   */\n      swap3\n      swap2\n      pop\n      pop\n      jump\t// out\n        /* \"#utility.yul\":9676:10137   */\n    tag_54:\n        /* \"#utility.yul\":9863:9867   */\n      0x00\n        /* \"#utility.yul\":9901:9903   */\n      0x20\n        /* \"#utility.yul\":9890:9899   */\n      dup3\n        /* \"#utility.yul\":9886:9904   */\n      add\n        /* \"#utility.yul\":9878:9904   */\n      swap1\n      pop\n        /* \"#utility.yul\":9950:9959   */\n      dup2\n        /* \"#utility.yul\":9944:9948   */\n      dup2\n        /* \"#utility.yul\":9940:9960   */\n      sub\n        /* \"#utility.yul\":9936:9937   */\n      0x00\n        /* \"#utility.yul\":9925:9934   */\n      dup4\n        /* \"#utility.yul\":9921:9938   */\n      add\n        /* \"#utility.yul\":9914:9961   */\n      mstore\n        /* \"#utility.yul\":9978:10130   */\n      tag_332\n        /* \"#utility.yul\":10125:10129   */\n      dup2\n        /* \"#utility.yul\":10116:10122   */\n      dup5\n        /* \"#utility.yul\":9978:10130   */\n      tag_207\n      jump\t// in\n    tag_332:\n        /* \"#utility.yul\":9970:10130   */\n      swap1\n      pop\n        /* \"#utility.yul\":9676:10137   */\n      swap3\n      swap2\n      pop\n      pop\n      jump\t// out\n        /* \"#utility.yul\":10143:10233   */\n    tag_208:\n        /* \"#utility.yul\":10177:10184   */\n      0x00\n        /* \"#utility.yul\":10220:10225   */\n      dup2\n        /* \"#utility.yul\":10213:10226   */\n      iszero\n        /* \"#utility.yul\":10206:10227   */\n      iszero\n        /* \"#utility.yul\":10195:10227   */\n      swap1\n      pop\n        /* \"#utility.yul\":10143:10233   */\n      swap2\n      swap1\n      pop\n      jump\t// out\n        /* \"#utility.yul\":10239:10348   */\n    tag_209:\n        /* \"#utility.yul\":10320:10341   */\n      tag_335\n        /* \"#utility.yul\":10335:10340   */\n      dup2\n        /* \"#utility.yul\":10320:10341   */\n      tag_208\n      jump\t// in\n    tag_335:\n        /* \"#utility.yul\":10315:10318   */\n      dup3\n        /* \"#utility.yul\":10308:10342   */\n      mstore\n        /* \"#utility.yul\":10239:10348   */\n      pop\n      pop\n      jump\t// out\n        /* \"#utility.yul\":10354:10564   */\n    tag_65:\n        /* \"#utility.yul\":10441:10445   */\n      0x00\n        /* \"#utility.yul\":10479:10481   */\n      0x20\n        /* \"#utility.yul\":10468:10477   */\n      dup3\n        /* \"#utility.yul\":10464:10482   */\n      add\n        /* \"#utility.yul\":10456:10482   */\n      swap1\n      pop\n        /* \"#utility.yul\":10492:10557   */\n      tag_337\n        /* \"#utility.yul\":10554:10555   */\n      0x00\n        /* \"#utility.yul\":10543:10552   */\n      dup4\n        /* \"#utility.yul\":10539:10556   */\n      add\n        /* \"#utility.yul\":10530:10536   */\n      dup5\n        /* \"#utility.yul\":10492:10557   */\n      tag_209\n      jump\t// in\n    tag_337:\n        /* \"#utility.yul\":10354:10564   */\n      swap3\n      swap2\n      pop\n      pop\n      jump\t// out\n        /* \"#utility.yul\":10570:10750   */\n    tag_210:\n        /* \"#utility.yul\":10618:10695   */\n      0x4e487b7100000000000000000000000000000000000000000000000000000000\n        /* \"#utility.yul\":10615:10616   */\n      0x00\n        /* \"#utility.yul\":10608:10696   */\n      mstore\n        /* \"#utility.yul\":10715:10719   */\n      0x11\n        /* \"#utility.yul\":10712:10713   */\n      0x04\n        /* \"#utility.yul\":10705:10720   */\n      mstore\n        /* \"#utility.yul\":10739:10743   */\n      0x24\n        /* \"#utility.yul\":10736:10737   */\n      0x00\n        /* \"#utility.yul\":10729:10744   */\n      revert\n        /* \"#utility.yul\":10756:10950   */\n    tag_72:\n        /* \"#utility.yul\":10796:10800   */\n      0x00\n        /* \"#utility.yul\":10816:10836   */\n      tag_340\n        /* \"#utility.yul\":10834:10835   */\n      dup3\n        /* \"#utility.yul\":10816:10836   */\n      tag_174\n      jump\t// in\n    tag_340:\n        /* \"#utility.yul\":10811:10836   */\n      swap2\n      pop\n        /* \"#utility.yul\":10850:10870   */\n      tag_341\n        /* \"#utility.yul\":10868:10869   */\n      dup4\n        /* \"#utility.yul\":10850:10870   */\n      tag_174\n      jump\t// in\n    tag_341:\n        /* \"#utility.yul\":10845:10870   */\n      swap3\n      pop\n        /* \"#utility.yul\":10894:10895   */\n      dup3\n        /* \"#utility.yul\":10891:10892   */\n      dup3\n        /* \"#utility.yul\":10887:10896   */\n      sub\n        /* \"#utility.yul\":10879:10896   */\n      swap1\n      pop\n        /* \"#utility.yul\":10918:10919   */\n      dup2\n        /* \"#utility.yul\":10912:10916   */\n      dup2\n        /* \"#utility.yul\":10909:10920   */\n      gt\n        /* \"#utility.yul\":10906:10943   */\n      iszero\n      tag_342\n      jumpi\n        /* \"#utility.yul\":10923:10941   */\n      tag_343\n      tag_210\n      jump\t// in\n    tag_343:\n        /* \"#utility.yul\":10906:10943   */\n    tag_342:\n        /* \"#utility.yul\":10756:10950   */\n      swap3\n      swap2\n      pop\n      pop\n      jump\t// out\n        /* \"#utility.yul\":10956:11125   */\n    tag_211:\n        /* \"#utility.yul\":11040:11051   */\n      0x00\n        /* \"#utility.yul\":11074:11080   */\n      dup3\n        /* \"#utility.yul\":11069:11072   */\n      dup3\n        /* \"#utility.yul\":11062:11081   */\n      mstore\n        /* \"#utility.yul\":11114:11118   */\n      0x20\n        /* \"#utility.yul\":11109:11112   */\n      dup3\n        /* \"#utility.yul\":11105:11119   */\n      add\n        /* \"#utility.yul\":11090:11119   */\n      swap1\n      pop\n        /* \"#utility.yul\":10956:11125   */\n      swap3\n      swap2\n      pop\n      pop\n      jump\t// out\n        /* \"#utility.yul\":11131:11309   */\n    tag_212:\n        /* \"#utility.yul\":11271:11301   */\n      0x7072696365206d7573742062652067726561746572207468616e203000000000\n        /* \"#utility.yul\":11267:11268   */\n      0x00\n        /* \"#utility.yul\":11259:11265   */\n      dup3\n        /* \"#utility.yul\":11255:11269   */\n      add\n        /* \"#utility.yul\":11248:11302   */\n      mstore\n        /* \"#utility.yul\":11131:11309   */\n      pop\n      jump\t// out\n        /* \"#utility.yul\":11315:11681   */\n    tag_213:\n        /* \"#utility.yul\":11457:11460   */\n      0x00\n        /* \"#utility.yul\":11478:11545   */\n      tag_347\n        /* \"#utility.yul\":11542:11544   */\n      0x1c\n        /* \"#utility.yul\":11537:11540   */\n      dup4\n        /* \"#utility.yul\":11478:11545   */\n      tag_211\n      jump\t// in\n    tag_347:\n        /* \"#utility.yul\":11471:11545   */\n      swap2\n      pop\n        /* \"#utility.yul\":11554:11647   */\n      tag_348\n        /* \"#utility.yul\":11643:11646   */\n      dup3\n        /* \"#utility.yul\":11554:11647   */\n      tag_212\n      jump\t// in\n    tag_348:\n        /* \"#utility.yul\":11672:11674   */\n      0x20\n        /* \"#utility.yul\":11667:11670   */\n      dup3\n        /* \"#utility.yul\":11663:11675   */\n      add\n        /* \"#utility.yul\":11656:11675   */\n      swap1\n      pop\n        /* \"#utility.yul\":11315:11681   */\n      swap2\n      swap1\n      pop\n      jump\t// out\n        /* \"#utility.yul\":11687:12106   */\n    tag_76:\n        /* \"#utility.yul\":11853:11857   */\n      0x00\n        /* \"#utility.yul\":11891:11893   */\n      0x20\n        /* \"#utility.yul\":11880:11889   */\n      dup3\n        /* \"#utility.yul\":11876:11894   */\n      add\n        /* \"#utility.yul\":11868:11894   */\n      swap1\n      pop\n        /* \"#utility.yul\":11940:11949   */\n      dup2\n        /* \"#utility.yul\":11934:11938   */\n      dup2\n        /* \"#utility.yul\":11930:11950   */\n      sub\n        /* \"#utility.yul\":11926:11927   */\n      0x00\n        /* \"#utility.yul\":11915:11924   */\n      dup4\n        /* \"#utility.yul\":11911:11928   */\n      add\n        /* \"#utility.yul\":11904:11951   */\n      mstore\n        /* \"#utility.yul\":11968:12099   */\n      tag_350\n        /* \"#utility.yul\":12094:12098   */\n      dup2\n        /* \"#utility.yul\":11968:12099   */\n      tag_213\n      jump\t// in\n    tag_350:\n        /* \"#utility.yul\":11960:12099   */\n      swap1\n      pop\n        /* \"#utility.yul\":11687:12106   */\n      swap2\n      swap1\n      pop\n      jump\t// out\n        /* \"#utility.yul\":12112:12272   */\n    tag_214:\n        /* \"#utility.yul\":12252:12264   */\n      0x6e6f742073656c6c657200000000000000000000000000000000000000000000\n        /* \"#utility.yul\":12248:12249   */\n      0x00\n        /* \"#utility.yul\":12240:12246   */\n      dup3\n        /* \"#utility.yul\":12236:12250   */\n      add\n        /* \"#utility.yul\":12229:12265   */\n      mstore\n        /* \"#utility.yul\":12112:12272   */\n      pop\n      jump\t// out\n        /* \"#utility.yul\":12278:12644   */\n    tag_215:\n        /* \"#utility.yul\":12420:12423   */\n      0x00\n        /* \"#utility.yul\":12441:12508   */\n      tag_353\n        /* \"#utility.yul\":12505:12507   */\n      0x0a\n        /* \"#utility.yul\":12500:12503   */\n      dup4\n        /* \"#utility.yul\":12441:12508   */\n      tag_211\n      jump\t// in\n    tag_353:\n        /* \"#utility.yul\":12434:12508   */\n      swap2\n      pop\n        /* \"#utility.yul\":12517:12610   */\n      tag_354\n        /* \"#utility.yul\":12606:12609   */\n      dup3\n        /* \"#utility.yul\":12517:12610   */\n      tag_214\n      jump\t// in\n    tag_354:\n        /* \"#utility.yul\":12635:12637   */\n      0x20\n        /* \"#utility.yul\":12630:12633   */\n      dup3\n        /* \"#utility.yul\":12626:12638   */\n      add\n        /* \"#utility.yul\":12619:12638   */\n      swap1\n      pop\n        /* \"#utility.yul\":12278:12644   */\n      swap2\n      swap1\n      pop\n      jump\t// out\n        /* \"#utility.yul\":12650:13069   */\n    tag_80:\n        /* \"#utility.yul\":12816:12820   */\n      0x00\n        /* \"#utility.yul\":12854:12856   */\n      0x20\n        /* \"#utility.yul\":12843:12852   */\n      dup3\n        /* \"#utility.yul\":12839:12857   */\n      add\n        /* \"#utility.yul\":12831:12857   */\n      swap1\n      pop\n        /* \"#utility.yul\":12903:12912   */\n      dup2\n        /* \"#utility.yul\":12897:12901   */\n      dup2\n        /* \"#utility.yul\":12893:12913   */\n      sub\n        /* \"#utility.yul\":12889:12890   */\n      0x00\n        /* \"#utility.yul\":12878:12887   */\n      dup4\n        /* \"#utility.yul\":12874:12891   */\n      add\n        /* \"#utility.yul\":12867:12914   */\n      mstore\n        /* \"#utility.yul\":12931:13062   */\n      tag_356\n        /* \"#utility.yul\":13057:13061   */\n      dup2\n        /* \"#utility.yul\":12931:13062   */\n      tag_215\n      jump\t// in\n    tag_356:\n        /* \"#utility.yul\":12923:13062   */\n      swap1\n      pop\n        /* \"#utility.yul\":12650:13069   */\n      swap2\n      swap1\n      pop\n      jump\t// out\n        /* \"#utility.yul\":13075:13517   */\n    tag_82:\n        /* \"#utility.yul\":13224:13228   */\n      0x00\n        /* \"#utility.yul\":13262:13264   */\n      0x60\n        /* \"#utility.yul\":13251:13260   */\n      dup3\n        /* \"#utility.yul\":13247:13265   */\n      add\n        /* \"#utility.yul\":13239:13265   */\n      swap1\n      pop\n        /* \"#utility.yul\":13275:13346   */\n      tag_358\n        /* \"#utility.yul\":13343:13344   */\n      0x00\n        /* \"#utility.yul\":13332:13341   */\n      dup4\n        /* \"#utility.yul\":13328:13345   */\n      add\n        /* \"#utility.yul\":13319:13325   */\n      dup7\n        /* \"#utility.yul\":13275:13346   */\n      tag_191\n      jump\t// in\n    tag_358:\n        /* \"#utility.yul\":13356:13428   */\n      tag_359\n        /* \"#utility.yul\":13424:13426   */\n      0x20\n        /* \"#utility.yul\":13413:13422   */\n      dup4\n        /* \"#utility.yul\":13409:13427   */\n      add\n        /* \"#utility.yul\":13400:13406   */\n      dup6\n        /* \"#utility.yul\":13356:13428   */\n      tag_191\n      jump\t// in\n    tag_359:\n        /* \"#utility.yul\":13438:13510   */\n      tag_360\n        /* \"#utility.yul\":13506:13508   */\n      0x40\n        /* \"#utility.yul\":13495:13504   */\n      dup4\n        /* \"#utility.yul\":13491:13509   */\n      add\n        /* \"#utility.yul\":13482:13488   */\n      dup5\n        /* \"#utility.yul\":13438:13510   */\n      tag_175\n      jump\t// in\n    tag_360:\n        /* \"#utility.yul\":13075:13517   */\n      swap5\n      swap4\n      pop\n      pop\n      pop\n      pop\n      jump\t// out\n        /* \"#utility.yul\":13523:13855   */\n    tag_89:\n        /* \"#utility.yul\":13644:13648   */\n      0x00\n        /* \"#utility.yul\":13682:13684   */\n      0x40\n        /* \"#utility.yul\":13671:13680   */\n      dup3\n        /* \"#utility.yul\":13667:13685   */\n      add\n        /* \"#utility.yul\":13659:13685   */\n      swap1\n      pop\n        /* \"#utility.yul\":13695:13766   */\n      tag_362\n        /* \"#utility.yul\":13763:13764   */\n      0x00\n        /* \"#utility.yul\":13752:13761   */\n      dup4\n        /* \"#utility.yul\":13748:13765   */\n      add\n        /* \"#utility.yul\":13739:13745   */\n      dup6\n        /* \"#utility.yul\":13695:13766   */\n      tag_191\n      jump\t// in\n    tag_362:\n        /* \"#utility.yul\":13776:13848   */\n      tag_363\n        /* \"#utility.yul\":13844:13846   */\n      0x20\n        /* \"#utility.yul\":13833:13842   */\n      dup4\n        /* \"#utility.yul\":13829:13847   */\n      add\n        /* \"#utility.yul\":13820:13826   */\n      dup5\n        /* \"#utility.yul\":13776:13848   */\n      tag_175\n      jump\t// in\n    tag_363:\n        /* \"#utility.yul\":13523:13855   */\n      swap4\n      swap3\n      pop\n      pop\n      pop\n      jump\t// out\n        /* \"#utility.yul\":13861:14041   */\n    tag_216:\n        /* \"#utility.yul\":14001:14033   */\n      0x4d61726b65743a20546f6b656e204944206973206e6f74206c69737465640000\n        /* \"#utility.yul\":13997:13998   */\n      0x00\n        /* \"#utility.yul\":13989:13995   */\n      dup3\n        /* \"#utility.yul\":13985:13999   */\n      add\n        /* \"#utility.yul\":13978:14034   */\n      mstore\n        /* \"#utility.yul\":13861:14041   */\n      pop\n      jump\t// out\n        /* \"#utility.yul\":14047:14413   */\n    tag_217:\n        /* \"#utility.yul\":14189:14192   */\n      0x00\n        /* \"#utility.yul\":14210:14277   */\n      tag_366\n        /* \"#utility.yul\":14274:14276   */\n      0x1e\n        /* \"#utility.yul\":14269:14272   */\n      dup4\n        /* \"#utility.yul\":14210:14277   */\n      tag_211\n      jump\t// in\n    tag_366:\n        /* \"#utility.yul\":14203:14277   */\n      swap2\n      pop\n        /* \"#utility.yul\":14286:14379   */\n      tag_367\n        /* \"#utility.yul\":14375:14378   */\n      dup3\n        /* \"#utility.yul\":14286:14379   */\n      tag_216\n      jump\t// in\n    tag_367:\n        /* \"#utility.yul\":14404:14406   */\n      0x20\n        /* \"#utility.yul\":14399:14402   */\n      dup3\n        /* \"#utility.yul\":14395:14407   */\n      add\n        /* \"#utility.yul\":14388:14407   */\n      swap1\n      pop\n        /* \"#utility.yul\":14047:14413   */\n      swap2\n      swap1\n      pop\n      jump\t// out\n        /* \"#utility.yul\":14419:14838   */\n    tag_96:\n        /* \"#utility.yul\":14585:14589   */\n      0x00\n        /* \"#utility.yul\":14623:14625   */\n      0x20\n        /* \"#utility.yul\":14612:14621   */\n      dup3\n        /* \"#utility.yul\":14608:14626   */\n      add\n        /* \"#utility.yul\":14600:14626   */\n      swap1\n      pop\n        /* \"#utility.yul\":14672:14681   */\n      dup2\n        /* \"#utility.yul\":14666:14670   */\n      dup2\n        /* \"#utility.yul\":14662:14682   */\n      sub\n        /* \"#utility.yul\":14658:14659   */\n      0x00\n        /* \"#utility.yul\":14647:14656   */\n      dup4\n        /* \"#utility.yul\":14643:14660   */\n      add\n        /* \"#utility.yul\":14636:14683   */\n      mstore\n        /* \"#utility.yul\":14700:14831   */\n      tag_369\n        /* \"#utility.yul\":14826:14830   */\n      dup2\n        /* \"#utility.yul\":14700:14831   */\n      tag_217\n      jump\t// in\n    tag_369:\n        /* \"#utility.yul\":14692:14831   */\n      swap1\n      pop\n        /* \"#utility.yul\":14419:14838   */\n      swap2\n      swap1\n      pop\n      jump\t// out\n        /* \"#utility.yul\":14844:15020   */\n    tag_218:\n        /* \"#utility.yul\":14984:15012   */\n      0x4d61726b65743a207072696365206973206e6f7420657175616c000000000000\n        /* \"#utility.yul\":14980:14981   */\n      0x00\n        /* \"#utility.yul\":14972:14978   */\n      dup3\n        /* \"#utility.yul\":14968:14982   */\n      add\n        /* \"#utility.yul\":14961:15013   */\n      mstore\n        /* \"#utility.yul\":14844:15020   */\n      pop\n      jump\t// out\n        /* \"#utility.yul\":15026:15392   */\n    tag_219:\n        /* \"#utility.yul\":15168:15171   */\n      0x00\n        /* \"#utility.yul\":15189:15256   */\n      tag_372\n        /* \"#utility.yul\":15253:15255   */\n      0x1a\n        /* \"#utility.yul\":15248:15251   */\n      dup4\n        /* \"#utility.yul\":15189:15256   */\n      tag_211\n      jump\t// in\n    tag_372:\n        /* \"#utility.yul\":15182:15256   */\n      swap2\n      pop\n        /* \"#utility.yul\":15265:15358   */\n      tag_373\n        /* \"#utility.yul\":15354:15357   */\n      dup3\n        /* \"#utility.yul\":15265:15358   */\n      tag_218\n      jump\t// in\n    tag_373:\n        /* \"#utility.yul\":15383:15385   */\n      0x20\n        /* \"#utility.yul\":15378:15381   */\n      dup3\n        /* \"#utility.yul\":15374:15386   */\n      add\n        /* \"#utility.yul\":15367:15386   */\n      swap1\n      pop\n        /* \"#utility.yul\":15026:15392   */\n      swap2\n      swap1\n      pop\n      jump\t// out\n        /* \"#utility.yul\":15398:15817   */\n    tag_99:\n        /* \"#utility.yul\":15564:15568   */\n      0x00\n        /* \"#utility.yul\":15602:15604   */\n      0x20\n        /* \"#utility.yul\":15591:15600   */\n      dup3\n        /* \"#utility.yul\":15587:15605   */\n      add\n        /* \"#utility.yul\":15579:15605   */\n      swap1\n      pop\n        /* \"#utility.yul\":15651:15660   */\n      dup2\n        /* \"#utility.yul\":15645:15649   */\n      dup2\n        /* \"#utility.yul\":15641:15661   */\n      sub\n        /* \"#utility.yul\":15637:15638   */\n      0x00\n        /* \"#utility.yul\":15626:15635   */\n      dup4\n        /* \"#utility.yul\":15622:15639   */\n      add\n        /* \"#utility.yul\":15615:15662   */\n      mstore\n        /* \"#utility.yul\":15679:15810   */\n      tag_375\n        /* \"#utility.yul\":15805:15809   */\n      dup2\n        /* \"#utility.yul\":15679:15810   */\n      tag_219\n      jump\t// in\n    tag_375:\n        /* \"#utility.yul\":15671:15810   */\n      swap1\n      pop\n        /* \"#utility.yul\":15398:15817   */\n      swap2\n      swap1\n      pop\n      jump\t// out\n        /* \"#utility.yul\":15823:15939   */\n    tag_220:\n        /* \"#utility.yul\":15893:15914   */\n      tag_377\n        /* \"#utility.yul\":15908:15913   */\n      dup2\n        /* \"#utility.yul\":15893:15914   */\n      tag_208\n      jump\t// in\n    tag_377:\n        /* \"#utility.yul\":15886:15891   */\n      dup2\n        /* \"#utility.yul\":15883:15915   */\n      eq\n        /* \"#utility.yul\":15873:15933   */\n      tag_378\n      jumpi\n        /* \"#utility.yul\":15929:15930   */\n      0x00\n        /* \"#utility.yul\":15926:15927   */\n      dup1\n        /* \"#utility.yul\":15919:15931   */\n      revert\n        /* \"#utility.yul\":15873:15933   */\n    tag_378:\n        /* \"#utility.yul\":15823:15939   */\n      pop\n      jump\t// out\n        /* \"#utility.yul\":15945:16082   */\n    tag_221:\n        /* \"#utility.yul\":15999:16004   */\n      0x00\n        /* \"#utility.yul\":16030:16036   */\n      dup2\n        /* \"#utility.yul\":16024:16037   */\n      mload\n        /* \"#utility.yul\":16015:16037   */\n      swap1\n      pop\n        /* \"#utility.yul\":16046:16076   */\n      tag_380\n        /* \"#utility.yul\":16070:16075   */\n      dup2\n        /* \"#utility.yul\":16046:16076   */\n      tag_220\n      jump\t// in\n    tag_380:\n        /* \"#utility.yul\":15945:16082   */\n      swap3\n      swap2\n      pop\n      pop\n      jump\t// out\n        /* \"#utility.yul\":16088:16433   */\n    tag_104:\n        /* \"#utility.yul\":16155:16161   */\n      0x00\n        /* \"#utility.yul\":16204:16206   */\n      0x20\n        /* \"#utility.yul\":16192:16201   */\n      dup3\n        /* \"#utility.yul\":16183:16190   */\n      dup5\n        /* \"#utility.yul\":16179:16202   */\n      sub\n        /* \"#utility.yul\":16175:16207   */\n      slt\n        /* \"#utility.yul\":16172:16291   */\n      iszero\n      tag_382\n      jumpi\n        /* \"#utility.yul\":16210:16289   */\n      tag_383\n      tag_177\n      jump\t// in\n    tag_383:\n        /* \"#utility.yul\":16172:16291   */\n    tag_382:\n        /* \"#utility.yul\":16330:16331   */\n      0x00\n        /* \"#utility.yul\":16355:16416   */\n      tag_384\n        /* \"#utility.yul\":16408:16415   */\n      dup5\n        /* \"#utility.yul\":16399:16405   */\n      dup3\n        /* \"#utility.yul\":16388:16397   */\n      dup6\n        /* \"#utility.yul\":16384:16406   */\n      add\n        /* \"#utility.yul\":16355:16416   */\n      tag_221\n      jump\t// in\n    tag_384:\n        /* \"#utility.yul\":16345:16416   */\n      swap2\n      pop\n        /* \"#utility.yul\":16301:16426   */\n      pop\n        /* \"#utility.yul\":16088:16433   */\n      swap3\n      swap2\n      pop\n      pop\n      jump\t// out\n        /* \"#utility.yul\":16439:16664   */\n    tag_222:\n        /* \"#utility.yul\":16579:16613   */\n      0x4d61726b65743a204552433230207472616e73666572206e6f74207375636365\n        /* \"#utility.yul\":16575:16576   */\n      0x00\n        /* \"#utility.yul\":16567:16573   */\n      dup3\n        /* \"#utility.yul\":16563:16577   */\n      add\n        /* \"#utility.yul\":16556:16614   */\n      mstore\n        /* \"#utility.yul\":16648:16656   */\n      0x737366756c6c0000000000000000000000000000000000000000000000000000\n        /* \"#utility.yul\":16643:16645   */\n      0x20\n        /* \"#utility.yul\":16635:16641   */\n      dup3\n        /* \"#utility.yul\":16631:16646   */\n      add\n        /* \"#utility.yul\":16624:16657   */\n      mstore\n        /* \"#utility.yul\":16439:16664   */\n      pop\n      jump\t// out\n        /* \"#utility.yul\":16670:17036   */\n    tag_223:\n        /* \"#utility.yul\":16812:16815   */\n      0x00\n        /* \"#utility.yul\":16833:16900   */\n      tag_387\n        /* \"#utility.yul\":16897:16899   */\n      0x26\n        /* \"#utility.yul\":16892:16895   */\n      dup4\n        /* \"#utility.yul\":16833:16900   */\n      tag_211\n      jump\t// in\n    tag_387:\n        /* \"#utility.yul\":16826:16900   */\n      swap2\n      pop\n        /* \"#utility.yul\":16909:17002   */\n      tag_388\n        /* \"#utility.yul\":16998:17001   */\n      dup3\n        /* \"#utility.yul\":16909:17002   */\n      tag_222\n      jump\t// in\n    tag_388:\n        /* \"#utility.yul\":17027:17029   */\n      0x40\n        /* \"#utility.yul\":17022:17025   */\n      dup3\n        /* \"#utility.yul\":17018:17030   */\n      add\n        /* \"#utility.yul\":17011:17030   */\n      swap1\n      pop\n        /* \"#utility.yul\":16670:17036   */\n      swap2\n      swap1\n      pop\n      jump\t// out\n        /* \"#utility.yul\":17042:17461   */\n    tag_107:\n        /* \"#utility.yul\":17208:17212   */\n      0x00\n        /* \"#utility.yul\":17246:17248   */\n      0x20\n        /* \"#utility.yul\":17235:17244   */\n      dup3\n        /* \"#utility.yul\":17231:17249   */\n      add\n        /* \"#utility.yul\":17223:17249   */\n      swap1\n      pop\n        /* \"#utility.yul\":17295:17304   */\n      dup2\n        /* \"#utility.yul\":17289:17293   */\n      dup2\n        /* \"#utility.yul\":17285:17305   */\n      sub\n        /* \"#utility.yul\":17281:17282   */\n      0x00\n        /* \"#utility.yul\":17270:17279   */\n      dup4\n        /* \"#utility.yul\":17266:17283   */\n      add\n        /* \"#utility.yul\":17259:17306   */\n      mstore\n        /* \"#utility.yul\":17323:17454   */\n      tag_390\n        /* \"#utility.yul\":17449:17453   */\n      dup2\n        /* \"#utility.yul\":17323:17454   */\n      tag_223\n      jump\t// in\n    tag_390:\n        /* \"#utility.yul\":17315:17454   */\n      swap1\n      pop\n        /* \"#utility.yul\":17042:17461   */\n      swap2\n      swap1\n      pop\n      jump\t// out\n        /* \"#utility.yul\":17467:18020   */\n    tag_114:\n        /* \"#utility.yul\":17644:17648   */\n      0x00\n        /* \"#utility.yul\":17682:17685   */\n      0x80\n        /* \"#utility.yul\":17671:17680   */\n      dup3\n        /* \"#utility.yul\":17667:17686   */\n      add\n        /* \"#utility.yul\":17659:17686   */\n      swap1\n      pop\n        /* \"#utility.yul\":17696:17767   */\n      tag_392\n        /* \"#utility.yul\":17764:17765   */\n      0x00\n        /* \"#utility.yul\":17753:17762   */\n      dup4\n        /* \"#utility.yul\":17749:17766   */\n      add\n        /* \"#utility.yul\":17740:17746   */\n      dup8\n        /* \"#utility.yul\":17696:17767   */\n      tag_191\n      jump\t// in\n    tag_392:\n        /* \"#utility.yul\":17777:17849   */\n      tag_393\n        /* \"#utility.yul\":17845:17847   */\n      0x20\n        /* \"#utility.yul\":17834:17843   */\n      dup4\n        /* \"#utility.yul\":17830:17848   */\n      add\n        /* \"#utility.yul\":17821:17827   */\n      dup7\n        /* \"#utility.yul\":17777:17849   */\n      tag_191\n      jump\t// in\n    tag_393:\n        /* \"#utility.yul\":17859:17931   */\n      tag_394\n        /* \"#utility.yul\":17927:17929   */\n      0x40\n        /* \"#utility.yul\":17916:17925   */\n      dup4\n        /* \"#utility.yul\":17912:17930   */\n      add\n        /* \"#utility.yul\":17903:17909   */\n      dup6\n        /* \"#utility.yul\":17859:17931   */\n      tag_175\n      jump\t// in\n    tag_394:\n        /* \"#utility.yul\":17941:18013   */\n      tag_395\n        /* \"#utility.yul\":18009:18011   */\n      0x60\n        /* \"#utility.yul\":17998:18007   */\n      dup4\n        /* \"#utility.yul\":17994:18012   */\n      add\n        /* \"#utility.yul\":17985:17991   */\n      dup5\n        /* \"#utility.yul\":17941:18013   */\n      tag_175\n      jump\t// in\n    tag_395:\n        /* \"#utility.yul\":17467:18020   */\n      swap6\n      swap5\n      pop\n      pop\n      pop\n      pop\n      pop\n      jump\t// out\n        /* \"#utility.yul\":18026:18206   */\n    tag_124:\n        /* \"#utility.yul\":18074:18151   */\n      0x4e487b7100000000000000000000000000000000000000000000000000000000\n        /* \"#utility.yul\":18071:18072   */\n      0x00\n        /* \"#utility.yul\":18064:18152   */\n      mstore\n        /* \"#utility.yul\":18171:18175   */\n      0x32\n        /* \"#utility.yul\":18168:18169   */\n      0x04\n        /* \"#utility.yul\":18161:18176   */\n      mstore\n        /* \"#utility.yul\":18195:18199   */\n      0x24\n        /* \"#utility.yul\":18192:18193   */\n      0x00\n        /* \"#utility.yul\":18185:18200   */\n      revert\n        /* \"#utility.yul\":18212:18765   */\n    tag_127:\n        /* \"#utility.yul\":18389:18393   */\n      0x00\n        /* \"#utility.yul\":18427:18430   */\n      0x80\n        /* \"#utility.yul\":18416:18425   */\n      dup3\n        /* \"#utility.yul\":18412:18431   */\n      add\n        /* \"#utility.yul\":18404:18431   */\n      swap1\n      pop\n        /* \"#utility.yul\":18441:18512   */\n      tag_398\n        /* \"#utility.yul\":18509:18510   */\n      0x00\n        /* \"#utility.yul\":18498:18507   */\n      dup4\n        /* \"#utility.yul\":18494:18511   */\n      add\n        /* \"#utility.yul\":18485:18491   */\n      dup8\n        /* \"#utility.yul\":18441:18512   */\n      tag_191\n      jump\t// in\n    tag_398:\n        /* \"#utility.yul\":18522:18594   */\n      tag_399\n        /* \"#utility.yul\":18590:18592   */\n      0x20\n        /* \"#utility.yul\":18579:18588   */\n      dup4\n        /* \"#utility.yul\":18575:18593   */\n      add\n        /* \"#utility.yul\":18566:18572   */\n      dup7\n        /* \"#utility.yul\":18522:18594   */\n      tag_175\n      jump\t// in\n    tag_399:\n        /* \"#utility.yul\":18604:18676   */\n      tag_400\n        /* \"#utility.yul\":18672:18674   */\n      0x40\n        /* \"#utility.yul\":18661:18670   */\n      dup4\n        /* \"#utility.yul\":18657:18675   */\n      add\n        /* \"#utility.yul\":18648:18654   */\n      dup6\n        /* \"#utility.yul\":18604:18676   */\n      tag_175\n      jump\t// in\n    tag_400:\n        /* \"#utility.yul\":18686:18758   */\n      tag_401\n        /* \"#utility.yul\":18754:18756   */\n      0x60\n        /* \"#utility.yul\":18743:18752   */\n      dup4\n        /* \"#utility.yul\":18739:18757   */\n      add\n        /* \"#utility.yul\":18730:18736   */\n      dup5\n        /* \"#utility.yul\":18686:18758   */\n      tag_175\n      jump\t// in\n    tag_401:\n        /* \"#utility.yul\":18212:18765   */\n      swap6\n      swap5\n      pop\n      pop\n      pop\n      pop\n      pop\n      jump\t// out\n        /* \"#utility.yul\":18771:18951   */\n    tag_131:\n        /* \"#utility.yul\":18819:18896   */\n      0x4e487b7100000000000000000000000000000000000000000000000000000000\n        /* \"#utility.yul\":18816:18817   */\n      0x00\n        /* \"#utility.yul\":18809:18897   */\n      mstore\n        /* \"#utility.yul\":18916:18920   */\n      0x41\n        /* \"#utility.yul\":18913:18914   */\n      0x04\n        /* \"#utility.yul\":18906:18921   */\n      mstore\n        /* \"#utility.yul\":18940:18944   */\n      0x24\n        /* \"#utility.yul\":18937:18938   */\n      0x00\n        /* \"#utility.yul\":18930:18945   */\n      revert\n        /* \"#utility.yul\":18957:19190   */\n    tag_149:\n        /* \"#utility.yul\":18996:18999   */\n      0x00\n        /* \"#utility.yul\":19019:19043   */\n      tag_404\n        /* \"#utility.yul\":19037:19042   */\n      dup3\n        /* \"#utility.yul\":19019:19043   */\n      tag_174\n      jump\t// in\n    tag_404:\n        /* \"#utility.yul\":19010:19043   */\n      swap2\n      pop\n        /* \"#utility.yul\":19065:19131   */\n      0xffffffffffffffffffffffffffffffffffffffffffffffffffffffffffffffff\n        /* \"#utility.yul\":19058:19063   */\n      dup3\n        /* \"#utility.yul\":19055:19132   */\n      sub\n        /* \"#utility.yul\":19052:19155   */\n      tag_405\n      jumpi\n        /* \"#utility.yul\":19135:19153   */\n      tag_406\n      tag_210\n      jump\t// in\n    tag_406:\n        /* \"#utility.yul\":19052:19155   */\n    tag_405:\n        /* \"#utility.yul\":19182:19183   */\n      0x01\n        /* \"#utility.yul\":19175:19180   */\n      dup3\n        /* \"#utility.yul\":19171:19184   */\n      add\n        /* \"#utility.yul\":19164:19184   */\n      swap1\n      pop\n        /* \"#utility.yul\":18957:19190   */\n      swap2\n      swap1\n      pop\n      jump\t// out\n        /* \"#utility.yul\":19196:19387   */\n    tag_153:\n        /* \"#utility.yul\":19236:19239   */\n      0x00\n        /* \"#utility.yul\":19255:19275   */\n      tag_408\n        /* \"#utility.yul\":19273:19274   */\n      dup3\n        /* \"#utility.yul\":19255:19275   */\n      tag_174\n      jump\t// in\n    tag_408:\n        /* \"#utility.yul\":19250:19275   */\n      swap2\n      pop\n        /* \"#utility.yul\":19289:19309   */\n      tag_409\n        /* \"#utility.yul\":19307:19308   */\n      dup4\n        /* \"#utility.yul\":19289:19309   */\n      tag_174\n      jump\t// in\n    tag_409:\n        /* \"#utility.yul\":19284:19309   */\n      swap3\n      pop\n        /* \"#utility.yul\":19332:19333   */\n      dup3\n        /* \"#utility.yul\":19329:19330   */\n      dup3\n        /* \"#utility.yul\":19325:19334   */\n      add\n        /* \"#utility.yul\":19318:19334   */\n      swap1\n      pop\n        /* \"#utility.yul\":19353:19356   */\n      dup1\n        /* \"#utility.yul\":19350:19351   */\n      dup3\n        /* \"#utility.yul\":19347:19357   */\n      gt\n        /* \"#utility.yul\":19344:19380   */\n      iszero\n      tag_410\n      jumpi\n        /* \"#utility.yul\":19360:19378   */\n      tag_411\n      tag_210\n      jump\t// in\n    tag_411:\n        /* \"#utility.yul\":19344:19380   */\n    tag_410:\n        /* \"#utility.yul\":19196:19387   */\n      swap3\n      swap2\n      pop\n      pop\n      jump\t// out\n        /* \"#utility.yul\":19393:19569   */\n    tag_224:\n        /* \"#utility.yul\":19533:19561   */\n      0x4d61726b65743a20746f55696e743235365f6f766572666c6f77000000000000\n        /* \"#utility.yul\":19529:19530   */\n      0x00\n        /* \"#utility.yul\":19521:19527   */\n      dup3\n        /* \"#utility.yul\":19517:19531   */\n      add\n        /* \"#utility.yul\":19510:19562   */\n      mstore\n        /* \"#utility.yul\":19393:19569   */\n      pop\n      jump\t// out\n        /* \"#utility.yul\":19575:19941   */\n    tag_225:\n        /* \"#utility.yul\":19717:19720   */\n      0x00\n        /* \"#utility.yul\":19738:19805   */\n      tag_414\n        /* \"#utility.yul\":19802:19804   */\n      0x1a\n        /* \"#utility.yul\":19797:19800   */\n      dup4\n        /* \"#utility.yul\":19738:19805   */\n      tag_211\n      jump\t// in\n    tag_414:\n        /* \"#utility.yul\":19731:19805   */\n      swap2\n      pop\n        /* \"#utility.yul\":19814:19907   */\n      tag_415\n        /* \"#utility.yul\":19903:19906   */\n      dup3\n        /* \"#utility.yul\":19814:19907   */\n      tag_224\n      jump\t// in\n    tag_415:\n        /* \"#utility.yul\":19932:19934   */\n      0x20\n        /* \"#utility.yul\":19927:19930   */\n      dup3\n        /* \"#utility.yul\":19923:19935   */\n      add\n        /* \"#utility.yul\":19916:19935   */\n      swap1\n      pop\n        /* \"#utility.yul\":19575:19941   */\n      swap2\n      swap1\n      pop\n      jump\t// out\n        /* \"#utility.yul\":19947:20366   */\n    tag_156:\n        /* \"#utility.yul\":20113:20117   */\n      0x00\n        /* \"#utility.yul\":20151:20153   */\n      0x20\n        /* \"#utility.yul\":20140:20149   */\n      dup3\n        /* \"#utility.yul\":20136:20154   */\n      add\n        /* \"#utility.yul\":20128:20154   */\n      swap1\n      pop\n        /* \"#utility.yul\":20200:20209   */\n      dup2\n        /* \"#utility.yul\":20194:20198   */\n      dup2\n        /* \"#utility.yul\":20190:20210   */\n      sub\n        /* \"#utility.yul\":20186:20187   */\n      0x00\n        /* \"#utility.yul\":20175:20184   */\n      dup4\n        /* \"#utility.yul\":20171:20188   */\n      add\n        /* \"#utility.yul\":20164:20211   */\n      mstore\n        /* \"#utility.yul\":20228:20359   */\n      tag_417\n        /* \"#utility.yul\":20354:20358   */\n      dup2\n        /* \"#utility.yul\":20228:20359   */\n      tag_225\n      jump\t// in\n    tag_417:\n        /* \"#utility.yul\":20220:20359   */\n      swap1\n      pop\n        /* \"#utility.yul\":19947:20366   */\n      swap2\n      swap1\n      pop\n      jump\t// out\n        /* \"#utility.yul\":20372:20551   */\n    tag_226:\n        /* \"#utility.yul\":20512:20543   */\n      0x4d61726b65743a20746f55696e743235365f6f75744f66426f756e6473000000\n        /* \"#utility.yul\":20508:20509   */\n      0x00\n        /* \"#utility.yul\":20500:20506   */\n      dup3\n        /* \"#utility.yul\":20496:20510   */\n      add\n        /* \"#utility.yul\":20489:20544   */\n      mstore\n        /* \"#utility.yul\":20372:20551   */\n      pop\n      jump\t// out\n        /* \"#utility.yul\":20557:20923   */\n    tag_227:\n        /* \"#utility.yul\":20699:20702   */\n      0x00\n        /* \"#utility.yul\":20720:20787   */\n      tag_420\n        /* \"#utility.yul\":20784:20786   */\n      0x1d\n        /* \"#utility.yul\":20779:20782   */\n      dup4\n        /* \"#utility.yul\":20720:20787   */\n      tag_211\n      jump\t// in\n    tag_420:\n        /* \"#utility.yul\":20713:20787   */\n      swap2\n      pop\n        /* \"#utility.yul\":20796:20889   */\n      tag_421\n        /* \"#utility.yul\":20885:20888   */\n      dup3\n        /* \"#utility.yul\":20796:20889   */\n      tag_226\n      jump\t// in\n    tag_421:\n        /* \"#utility.yul\":20914:20916   */\n      0x20\n        /* \"#utility.yul\":20909:20912   */\n      dup3\n        /* \"#utility.yul\":20905:20917   */\n      add\n        /* \"#utility.yul\":20898:20917   */\n      swap1\n      pop\n        /* \"#utility.yul\":20557:20923   */\n      swap2\n      swap1\n      pop\n      jump\t// out\n        /* \"#utility.yul\":20929:21348   */\n    tag_160:\n        /* \"#utility.yul\":21095:21099   */\n      0x00\n        /* \"#utility.yul\":21133:21135   */\n      0x20\n        /* \"#utility.yul\":21122:21131   */\n      dup3\n        /* \"#utility.yul\":21118:21136   */\n      add\n        /* \"#utility.yul\":21110:21136   */\n      swap1\n      pop\n        /* \"#utility.yul\":21182:21191   */\n      dup2\n        /* \"#utility.yul\":21176:21180   */\n      dup2\n        /* \"#utility.yul\":21172:21192   */\n      sub\n        /* \"#utility.yul\":21168:21169   */\n      0x00\n        /* \"#utility.yul\":21157:21166   */\n      dup4\n        /* \"#utility.yul\":21153:21170   */\n      add\n        /* \"#utility.yul\":21146:21193   */\n      mstore\n        /* \"#utility.yul\":21210:21341   */\n      tag_423\n        /* \"#utility.yul\":21336:21340   */\n      dup2\n        /* \"#utility.yul\":21210:21341   */\n      tag_227\n      jump\t// in\n    tag_423:\n        /* \"#utility.yul\":21202:21341   */\n      swap1\n      pop\n        /* \"#utility.yul\":20929:21348   */\n      swap2\n      swap1\n      pop\n      jump\t// out\n        /* \"#utility.yul\":21354:21534   */\n    tag_172:\n        /* \"#utility.yul\":21402:21479   */\n      0x4e487b7100000000000000000000000000000000000000000000000000000000\n        /* \"#utility.yul\":21399:21400   */\n      0x00\n        /* \"#utility.yul\":21392:21480   */\n      mstore\n        /* \"#utility.yul\":21499:21503   */\n      0x31\n        /* \"#utility.yul\":21496:21497   */\n      0x04\n        /* \"#utility.yul\":21489:21504   */\n      mstore\n        /* \"#utility.yul\":21523:21527   */\n      0x24\n        /* \"#utility.yul\":21520:21521   */\n      0x00\n        /* \"#utility.yul\":21513:21528   */\n      revert\n\n    auxdata: 0xa2646970667358221220aa453f99f608f72f16b7b23e22448f53255fd0445edf0d709850cca6fbb8a14d64736f6c634300081a0033\n}\n",
				"bytecode": {
					"linkReferences": {},
					"object": "608060405234801561000f575f80fd5b50604051611dcd380380611dcd833981810160405281019061003191906101f1565b5f73ffffffffffffffffffffffffffffffffffffffff168273ffffffffffffffffffffffffffffffffffffffff160361009f576040517f08c379a000000000000000000000000000000000000000000000000000000000815260040161009690610289565b60405180910390fd5b5f73ffffffffffffffffffffffffffffffffffffffff168173ffffffffffffffffffffffffffffffffffffffff160361010d576040517f08c379a000000000000000000000000000000000000000000000000000000000815260040161010490610289565b60405180910390fd5b815f806101000a81548173ffffffffffffffffffffffffffffffffffffffff021916908373ffffffffffffffffffffffffffffffffffffffff1602179055508060015f6101000a81548173ffffffffffffffffffffffffffffffffffffffff021916908373ffffffffffffffffffffffffffffffffffffffff16021790555050506102a7565b5f80fd5b5f73ffffffffffffffffffffffffffffffffffffffff82169050919050565b5f6101c082610197565b9050919050565b6101d0816101b6565b81146101da575f80fd5b50565b5f815190506101eb816101c7565b92915050565b5f806040838503121561020757610206610193565b5b5f610214858286016101dd565b9250506020610225858286016101dd565b9150509250929050565b5f82825260208201905092915050565b7f6572726f723a207a65726f2061646472657373000000000000000000000000005f82015250565b5f61027360138361022f565b915061027e8261023f565b602082019050919050565b5f6020820190508181035f8301526102a081610267565b9050919050565b611b19806102b45f395ff3fe608060405234801561000f575f80fd5b50600436106100b2575f3560e01c8063bca6ce641161006f578063bca6ce64146101a2578063d6febde8146101c0578063e0391b09146101dc578063e5ac40b3146101fa578063e9e8e96214610216578063fcce488314610234576100b2565b806307c2e16c146100b6578063150b7a02146100d4578063394a907714610104578063514fcac714610136578063785e9e8614610152578063a85c38ef14610170575b5f80fd5b6100be610264565b6040516100cb91906110ad565b60405180910390f35b6100ee60048036038101906100e991906111b3565b610270565b6040516100fb9190611271565b60405180910390f35b61011e6004803603810190610119919061128a565b6104c9565b60405161012d939291906112c4565b60405180910390f35b610150600480360381019061014b919061128a565b61050e565b005b61015a610683565b6040516101679190611354565b60405180910390f35b61018a6004803603810190610185919061128a565b6106a6565b604051610199939291906112c4565b60405180910390f35b6101aa6106fa565b6040516101b7919061138d565b60405180910390f35b6101da60048036038101906101d591906113a6565b61071f565b005b6101e46109ae565b6040516101f191906114ea565b60405180910390f35b610214600480360381019061020f91906113a6565b610a72565b005b61021e610bc8565b60405161022b91906114ea565b60405180910390f35b61024e6004803603810190610249919061128a565b610d80565b60405161025b9190611524565b60405180910390f35b5f600380549050905090565b5f806102bf84848080601f0160208091040260200160405190810160405280939291908181526020018383808284375f81840152601f19601f820116905080830192505050505050505f610dea565b9050600360405180606001604052808873ffffffffffffffffffffffffffffffffffffffff16815260200187815260200183815250908060018154018082558091505060019003905f5260205f2090600302015f909190919091505f820151815f015f6101000a81548173ffffffffffffffffffffffffffffffffffffffff021916908373ffffffffffffffffffffffffffffffffffffffff1602179055506020820151816001015560408201518160020155505060405180606001604052808773ffffffffffffffffffffffffffffffffffffffff1681526020018681526020018281525060025f8781526020019081526020015f205f820151815f015f6101000a81548173ffffffffffffffffffffffffffffffffffffffff021916908373ffffffffffffffffffffffffffffffffffffffff16021790555060208201518160010155604082015181600201559050506001600380549050610423919061156a565b60045f8781526020019081526020015f20819055507fd5b509e657d5ec37ae4bdcab658b7340c0453bb630516d26623359a34c1cecf386868360405161046b939291906112c4565b60405180910390a15f81116104b5576040517f08c379a00000000000000000000000000000000000000000000000000000000081526004016104ac906115f7565b60405180910390fd5b63150b7a0260e01b91505095945050505050565b6002602052805f5260405f205f91509050805f015f9054906101000a900473ffffffffffffffffffffffffffffffffffffffff16908060010154908060020154905083565b5f60025f8381526020019081526020015f205f015f9054906101000a900473ffffffffffffffffffffffffffffffffffffffff1690508073ffffffffffffffffffffffffffffffffffffffff163373ffffffffffffffffffffffffffffffffffffffff16146105b2576040517f08c379a00000000000000000000000000000000000000000000000000000000081526004016105a99061165f565b60405180910390fd5b60015f9054906101000a900473ffffffffffffffffffffffffffffffffffffffff1673ffffffffffffffffffffffffffffffffffffffff166342842e0e3083856040518463ffffffff1660e01b81526004016106109392919061167d565b5f604051808303815f87803b158015610627575f80fd5b505af1158015610639573d5f803e3d5ffd5b5050505061064682610e9e565b7fc62ea7d6dbbe6bae28aad53c0aafb30aac976285ac8d17598f119feff584f51981836040516106779291906116b2565b60405180910390a15050565b5f8054906101000a900473ffffffffffffffffffffffffffffffffffffffff1681565b600381815481106106b5575f80fd5b905f5260205f2090600302015f91509050805f015f9054906101000a900473ffffffffffffffffffffffffffffffffffffffff16908060010154908060020154905083565b60015f9054906101000a900473ffffffffffffffffffffffffffffffffffffffff1681565b61072882610d80565b610767576040517f08c379a000000000000000000000000000000000000000000000000000000000815260040161075e90611723565b60405180910390fd5b5f60025f8481526020019081526020015f205f015f9054906101000a900473ffffffffffffffffffffffffffffffffffffffff1690505f3390505f60025f8681526020019081526020015f206002015490508381146107fb576040517f08c379a00000000000000000000000000000000000000000000000000000000081526004016107f29061178b565b60405180910390fd5b5f8054906101000a900473ffffffffffffffffffffffffffffffffffffffff1673ffffffffffffffffffffffffffffffffffffffff166323b872dd8385846040518463ffffffff1660e01b81526004016108579392919061167d565b6020604051808303815f875af1158015610873573d5f803e3d5ffd5b505050506040513d601f19601f8201168201806040525081019061089791906117d3565b6108d6576040517f08c379a00000000000000000000000000000000000000000000000000000000081526004016108cd9061186e565b60405180910390fd5b60015f9054906101000a900473ffffffffffffffffffffffffffffffffffffffff1673ffffffffffffffffffffffffffffffffffffffff166342842e0e3084886040518463ffffffff1660e01b81526004016109349392919061167d565b5f604051808303815f87803b15801561094b575f80fd5b505af115801561095d573d5f803e3d5ffd5b5050505061096a85610e9e565b7f424d5e5f0192c7dacdbe646ca31b00299146d883d76a95ef5cddbac7cd342eab8284878460405161099f949392919061188c565b60405180910390a15050505050565b60606003805480602002602001604051908101604052809291908181526020015f905b82821015610a69578382905f5260205f2090600302016040518060600160405290815f82015f9054906101000a900473ffffffffffffffffffffffffffffffffffffffff1673ffffffffffffffffffffffffffffffffffffffff1673ffffffffffffffffffffffffffffffffffffffff16815260200160018201548152602001600282015481525050815260200190600101906109d1565b50505050905090565b5f60025f8481526020019081526020015f205f015f9054906101000a900473ffffffffffffffffffffffffffffffffffffffff1690508073ffffffffffffffffffffffffffffffffffffffff163373ffffffffffffffffffffffffffffffffffffffff1614610b16576040517f08c379a0000000000000000000000000000000000000000000000000000000008152600401610b0d9061165f565b60405180910390fd5b5f60025f8581526020019081526020015f206002015490508260025f8681526020019081526020015f20600201819055505f600360045f8781526020019081526020015f205481548110610b6d57610b6c6118cf565b5b905f5260205f20906003020190508381600201819055507f270ec2a3fde0260445003bf676803811db6776c19901b7481571d46e4d78aa3683868487604051610bb994939291906118fc565b60405180910390a15050505050565b60605f60038054905067ffffffffffffffff811115610bea57610be961193f565b5b604051908082528060200260200182016040528015610c2357816020015b610c10611061565b815260200190600190039081610c085790505b5090505f805b600380549050811015610d77573373ffffffffffffffffffffffffffffffffffffffff1660038281548110610c6157610c606118cf565b5b905f5260205f2090600302015f015f9054906101000a900473ffffffffffffffffffffffffffffffffffffffff1673ffffffffffffffffffffffffffffffffffffffff1603610d6a5760038181548110610cbe57610cbd6118cf565b5b905f5260205f2090600302016040518060600160405290815f82015f9054906101000a900473ffffffffffffffffffffffffffffffffffffffff1673ffffffffffffffffffffffffffffffffffffffff1673ffffffffffffffffffffffffffffffffffffffff16815260200160018201548152602001600282015481525050838381518110610d5057610d4f6118cf565b5b60200260200101819052508180610d669061196c565b9250505b8080600101915050610c29565b50819250505090565b5f8073ffffffffffffffffffffffffffffffffffffffff1660025f8481526020019081526020015f205f015f9054906101000a900473ffffffffffffffffffffffffffffffffffffffff1673ffffffffffffffffffffffffffffffffffffffff1614159050919050565b5f81602083610df991906119b3565b1015610e3a576040517f08c379a0000000000000000000000000000000000000000000000000000000008152600401610e3190611a30565b60405180910390fd5b602082610e4791906119b3565b83511015610e8a576040517f08c379a0000000000000000000000000000000000000000000000000000000008152600401610e8190611a98565b60405180910390fd5b5f8260208501015190508091505092915050565b5f60045f8381526020019081526020015f205490505f6001600380549050610ec6919061156a565b9050808214610fa5575f60038281548110610ee457610ee36118cf565b5b905f5260205f20906003020190508060038481548110610f0757610f066118cf565b5b905f5260205f2090600302015f82015f9054906101000a900473ffffffffffffffffffffffffffffffffffffffff16815f015f6101000a81548173ffffffffffffffffffffffffffffffffffffffff021916908373ffffffffffffffffffffffffffffffffffffffff16021790555060018201548160010155600282015481600201559050508260045f8681526020019081526020015f2081905550505b6003805480610fb757610fb6611ab6565b5b600190038181905f5260205f2090600302015f8082015f6101000a81549073ffffffffffffffffffffffffffffffffffffffff0219169055600182015f9055600282015f90555050905560045f8481526020019081526020015f205f905560025f8481526020019081526020015f205f8082015f6101000a81549073ffffffffffffffffffffffffffffffffffffffff0219169055600182015f9055600282015f90555050505050565b60405180606001604052805f73ffffffffffffffffffffffffffffffffffffffff1681526020015f81526020015f81525090565b5f819050919050565b6110a781611095565b82525050565b5f6020820190506110c05f83018461109e565b92915050565b5f80fd5b5f80fd5b5f73ffffffffffffffffffffffffffffffffffffffff82169050919050565b5f6110f7826110ce565b9050919050565b611107816110ed565b8114611111575f80fd5b50565b5f81359050611122816110fe565b92915050565b61113181611095565b811461113b575f80fd5b50565b5f8135905061114c81611128565b92915050565b5f80fd5b5f80fd5b5f80fd5b5f8083601f84011261117357611172611152565b5b8235905067ffffffffffffffff8111156111905761118f611156565b5b6020830191508360018202830111156111ac576111ab61115a565b5b9250929050565b5f805f805f608086880312156111cc576111cb6110c6565b5b5f6111d988828901611114565b95505060206111ea88828901611114565b94505060406111fb8882890161113e565b935050606086013567ffffffffffffffff81111561121c5761121b6110ca565b5b6112288882890161115e565b92509250509295509295909350565b5f7fffffffff0000000000000000000000000000000000000000000000000000000082169050919050565b61126b81611237565b82525050565b5f6020820190506112845f830184611262565b92915050565b5f6020828403121561129f5761129e6110c6565b5b5f6112ac8482850161113e565b91505092915050565b6112be816110ed565b82525050565b5f6060820190506112d75f8301866112b5565b6112e4602083018561109e565b6112f1604083018461109e565b949350505050565b5f819050919050565b5f61131c611317611312846110ce565b6112f9565b6110ce565b9050919050565b5f61132d82611302565b9050919050565b5f61133e82611323565b9050919050565b61134e81611334565b82525050565b5f6020820190506113675f830184611345565b92915050565b5f61137782611323565b9050919050565b6113878161136d565b82525050565b5f6020820190506113a05f83018461137e565b92915050565b5f80604083850312156113bc576113bb6110c6565b5b5f6113c98582860161113e565b92505060206113da8582860161113e565b9150509250929050565b5f81519050919050565b5f82825260208201905092915050565b5f819050602082019050919050565b611416816110ed565b82525050565b61142581611095565b82525050565b606082015f82015161143f5f85018261140d565b506020820151611452602085018261141c565b506040820151611465604085018261141c565b50505050565b5f611476838361142b565b60608301905092915050565b5f602082019050919050565b5f611498826113e4565b6114a281856113ee565b93506114ad836113fe565b805f5b838110156114dd5781516114c4888261146b565b97506114cf83611482565b9250506001810190506114b0565b5085935050505092915050565b5f6020820190508181035f830152611502818461148e565b905092915050565b5f8115159050919050565b61151e8161150a565b82525050565b5f6020820190506115375f830184611515565b92915050565b7f4e487b71000000000000000000000000000000000000000000000000000000005f52601160045260245ffd5b5f61157482611095565b915061157f83611095565b92508282039050818111156115975761159661153d565b5b92915050565b5f82825260208201905092915050565b7f7072696365206d7573742062652067726561746572207468616e2030000000005f82015250565b5f6115e1601c8361159d565b91506115ec826115ad565b602082019050919050565b5f6020820190508181035f83015261160e816115d5565b9050919050565b7f6e6f742073656c6c6572000000000000000000000000000000000000000000005f82015250565b5f611649600a8361159d565b915061165482611615565b602082019050919050565b5f6020820190508181035f8301526116768161163d565b9050919050565b5f6060820190506116905f8301866112b5565b61169d60208301856112b5565b6116aa604083018461109e565b949350505050565b5f6040820190506116c55f8301856112b5565b6116d2602083018461109e565b9392505050565b7f4d61726b65743a20546f6b656e204944206973206e6f74206c697374656400005f82015250565b5f61170d601e8361159d565b9150611718826116d9565b602082019050919050565b5f6020820190508181035f83015261173a81611701565b9050919050565b7f4d61726b65743a207072696365206973206e6f7420657175616c0000000000005f82015250565b5f611775601a8361159d565b915061178082611741565b602082019050919050565b5f6020820190508181035f8301526117a281611769565b9050919050565b6117b28161150a565b81146117bc575f80fd5b50565b5f815190506117cd816117a9565b92915050565b5f602082840312156117e8576117e76110c6565b5b5f6117f5848285016117bf565b91505092915050565b7f4d61726b65743a204552433230207472616e73666572206e6f742073756363655f8201527f737366756c6c0000000000000000000000000000000000000000000000000000602082015250565b5f61185860268361159d565b9150611863826117fe565b604082019050919050565b5f6020820190508181035f8301526118858161184c565b9050919050565b5f60808201905061189f5f8301876112b5565b6118ac60208301866112b5565b6118b9604083018561109e565b6118c6606083018461109e565b95945050505050565b7f4e487b71000000000000000000000000000000000000000000000000000000005f52603260045260245ffd5b5f60808201905061190f5f8301876112b5565b61191c602083018661109e565b611929604083018561109e565b611936606083018461109e565b95945050505050565b7f4e487b71000000000000000000000000000000000000000000000000000000005f52604160045260245ffd5b5f61197682611095565b91507fffffffffffffffffffffffffffffffffffffffffffffffffffffffffffffffff82036119a8576119a761153d565b5b600182019050919050565b5f6119bd82611095565b91506119c883611095565b92508282019050808211156119e0576119df61153d565b5b92915050565b7f4d61726b65743a20746f55696e743235365f6f766572666c6f770000000000005f82015250565b5f611a1a601a8361159d565b9150611a25826119e6565b602082019050919050565b5f6020820190508181035f830152611a4781611a0e565b9050919050565b7f4d61726b65743a20746f55696e743235365f6f75744f66426f756e64730000005f82015250565b5f611a82601d8361159d565b9150611a8d82611a4e565b602082019050919050565b5f6020820190508181035f830152611aaf81611a76565b9050919050565b7f4e487b71000000000000000000000000000000000000000000000000000000005f52603160045260245ffdfea2646970667358221220aa453f99f608f72f16b7b23e22448f53255fd0445edf0d709850cca6fbb8a14d64736f6c634300081a0033",
					"opcodes": "PUSH1 0x80 PUSH1 0x40 MSTORE CALLVALUE DUP1 ISZERO PUSH2 0xF JUMPI PUSH0 DUP1 REVERT JUMPDEST POP PUSH1 0x40 MLOAD PUSH2 0x1DCD CODESIZE SUB DUP1 PUSH2 0x1DCD DUP4 CODECOPY DUP2 DUP2 ADD PUSH1 0x40 MSTORE DUP2 ADD SWAP1 PUSH2 0x31 SWAP2 SWAP1 PUSH2 0x1F1 JUMP JUMPDEST PUSH0 PUSH20 0xFFFFFFFFFFFFFFFFFFFFFFFFFFFFFFFFFFFFFFFF AND DUP3 PUSH20 0xFFFFFFFFFFFFFFFFFFFFFFFFFFFFFFFFFFFFFFFF AND SUB PUSH2 0x9F JUMPI PUSH1 0x40 MLOAD PUSH32 0x8C379A000000000000000000000000000000000000000000000000000000000 DUP2 MSTORE PUSH1 0x4 ADD PUSH2 0x96 SWAP1 PUSH2 0x289 JUMP JUMPDEST PUSH1 0x40 MLOAD DUP1 SWAP2 SUB SWAP1 REVERT JUMPDEST PUSH0 PUSH20 0xFFFFFFFFFFFFFFFFFFFFFFFFFFFFFFFFFFFFFFFF AND DUP2 PUSH20 0xFFFFFFFFFFFFFFFFFFFFFFFFFFFFFFFFFFFFFFFF AND SUB PUSH2 0x10D JUMPI PUSH1 0x40 MLOAD PUSH32 0x8C379A000000000000000000000000000000000000000000000000000000000 DUP2 MSTORE PUSH1 0x4 ADD PUSH2 0x104 SWAP1 PUSH2 0x289 JUMP JUMPDEST PUSH1 0x40 MLOAD DUP1 SWAP2 SUB SWAP1 REVERT JUMPDEST DUP2 PUSH0 DUP1 PUSH2 0x100 EXP DUP2 SLOAD DUP2 PUSH20 0xFFFFFFFFFFFFFFFFFFFFFFFFFFFFFFFFFFFFFFFF MUL NOT AND SWAP1 DUP4 PUSH20 0xFFFFFFFFFFFFFFFFFFFFFFFFFFFFFFFFFFFFFFFF AND MUL OR SWAP1 SSTORE POP DUP1 PUSH1 0x1 PUSH0 PUSH2 0x100 EXP DUP2 SLOAD DUP2 PUSH20 0xFFFFFFFFFFFFFFFFFFFFFFFFFFFFFFFFFFFFFFFF MUL NOT AND SWAP1 DUP4 PUSH20 0xFFFFFFFFFFFFFFFFFFFFFFFFFFFFFFFFFFFFFFFF AND MUL OR SWAP1 SSTORE POP POP POP PUSH2 0x2A7 JUMP JUMPDEST PUSH0 DUP1 REVERT JUMPDEST PUSH0 PUSH20 0xFFFFFFFFFFFFFFFFFFFFFFFFFFFFFFFFFFFFFFFF DUP3 AND SWAP1 POP SWAP2 SWAP1 POP JUMP JUMPDEST PUSH0 PUSH2 0x1C0 DUP3 PUSH2 0x197 JUMP JUMPDEST SWAP1 POP SWAP2 SWAP1 POP JUMP JUMPDEST PUSH2 0x1D0 DUP2 PUSH2 0x1B6 JUMP JUMPDEST DUP2 EQ PUSH2 0x1DA JUMPI PUSH0 DUP1 REVERT JUMPDEST POP JUMP JUMPDEST PUSH0 DUP2 MLOAD SWAP1 POP PUSH2 0x1EB DUP2 PUSH2 0x1C7 JUMP JUMPDEST SWAP3 SWAP2 POP POP JUMP JUMPDEST PUSH0 DUP1 PUSH1 0x40 DUP4 DUP6 SUB SLT ISZERO PUSH2 0x207 JUMPI PUSH2 0x206 PUSH2 0x193 JUMP JUMPDEST JUMPDEST PUSH0 PUSH2 0x214 DUP6 DUP3 DUP7 ADD PUSH2 0x1DD JUMP JUMPDEST SWAP3 POP POP PUSH1 0x20 PUSH2 0x225 DUP6 DUP3 DUP7 ADD PUSH2 0x1DD JUMP JUMPDEST SWAP2 POP POP SWAP3 POP SWAP3 SWAP1 POP JUMP JUMPDEST PUSH0 DUP3 DUP3 MSTORE PUSH1 0x20 DUP3 ADD SWAP1 POP SWAP3 SWAP2 POP POP JUMP JUMPDEST PUSH32 0x6572726F723A207A65726F206164647265737300000000000000000000000000 PUSH0 DUP3 ADD MSTORE POP JUMP JUMPDEST PUSH0 PUSH2 0x273 PUSH1 0x13 DUP4 PUSH2 0x22F JUMP JUMPDEST SWAP2 POP PUSH2 0x27E DUP3 PUSH2 0x23F JUMP JUMPDEST PUSH1 0x20 DUP3 ADD SWAP1 POP SWAP2 SWAP1 POP JUMP JUMPDEST PUSH0 PUSH1 0x20 DUP3 ADD SWAP1 POP DUP2 DUP2 SUB PUSH0 DUP4 ADD MSTORE PUSH2 0x2A0 DUP2 PUSH2 0x267 JUMP JUMPDEST SWAP1 POP SWAP2 SWAP1 POP JUMP JUMPDEST PUSH2 0x1B19 DUP1 PUSH2 0x2B4 PUSH0 CODECOPY PUSH0 RETURN INVALID PUSH1 0x80 PUSH1 0x40 MSTORE CALLVALUE DUP1 ISZERO PUSH2 0xF JUMPI PUSH0 DUP1 REVERT JUMPDEST POP PUSH1 0x4 CALLDATASIZE LT PUSH2 0xB2 JUMPI PUSH0 CALLDATALOAD PUSH1 0xE0 SHR DUP1 PUSH4 0xBCA6CE64 GT PUSH2 0x6F JUMPI DUP1 PUSH4 0xBCA6CE64 EQ PUSH2 0x1A2 JUMPI DUP1 PUSH4 0xD6FEBDE8 EQ PUSH2 0x1C0 JUMPI DUP1 PUSH4 0xE0391B09 EQ PUSH2 0x1DC JUMPI DUP1 PUSH4 0xE5AC40B3 EQ PUSH2 0x1FA JUMPI DUP1 PUSH4 0xE9E8E962 EQ PUSH2 0x216 JUMPI DUP1 PUSH4 0xFCCE4883 EQ PUSH2 0x234 JUMPI PUSH2 0xB2 JUMP JUMPDEST DUP1 PUSH4 0x7C2E16C EQ PUSH2 0xB6 JUMPI DUP1 PUSH4 0x150B7A02 EQ PUSH2 0xD4 JUMPI DUP1 PUSH4 0x394A9077 EQ PUSH2 0x104 JUMPI DUP1 PUSH4 0x514FCAC7 EQ PUSH2 0x136 JUMPI DUP1 PUSH4 0x785E9E86 EQ PUSH2 0x152 JUMPI DUP1 PUSH4 0xA85C38EF EQ PUSH2 0x170 JUMPI JUMPDEST PUSH0 DUP1 REVERT JUMPDEST PUSH2 0xBE PUSH2 0x264 JUMP JUMPDEST PUSH1 0x40 MLOAD PUSH2 0xCB SWAP2 SWAP1 PUSH2 0x10AD JUMP JUMPDEST PUSH1 0x40 MLOAD DUP1 SWAP2 SUB SWAP1 RETURN JUMPDEST PUSH2 0xEE PUSH1 0x4 DUP1 CALLDATASIZE SUB DUP2 ADD SWAP1 PUSH2 0xE9 SWAP2 SWAP1 PUSH2 0x11B3 JUMP JUMPDEST PUSH2 0x270 JUMP JUMPDEST PUSH1 0x40 MLOAD PUSH2 0xFB SWAP2 SWAP1 PUSH2 0x1271 JUMP JUMPDEST PUSH1 0x40 MLOAD DUP1 SWAP2 SUB SWAP1 RETURN JUMPDEST PUSH2 0x11E PUSH1 0x4 DUP1 CALLDATASIZE SUB DUP2 ADD SWAP1 PUSH2 0x119 SWAP2 SWAP1 PUSH2 0x128A JUMP JUMPDEST PUSH2 0x4C9 JUMP JUMPDEST PUSH1 0x40 MLOAD PUSH2 0x12D SWAP4 SWAP3 SWAP2 SWAP1 PUSH2 0x12C4 JUMP JUMPDEST PUSH1 0x40 MLOAD DUP1 SWAP2 SUB SWAP1 RETURN JUMPDEST PUSH2 0x150 PUSH1 0x4 DUP1 CALLDATASIZE SUB DUP2 ADD SWAP1 PUSH2 0x14B SWAP2 SWAP1 PUSH2 0x128A JUMP JUMPDEST PUSH2 0x50E JUMP JUMPDEST STOP JUMPDEST PUSH2 0x15A PUSH2 0x683 JUMP JUMPDEST PUSH1 0x40 MLOAD PUSH2 0x167 SWAP2 SWAP1 PUSH2 0x1354 JUMP JUMPDEST PUSH1 0x40 MLOAD DUP1 SWAP2 SUB SWAP1 RETURN JUMPDEST PUSH2 0x18A PUSH1 0x4 DUP1 CALLDATASIZE SUB DUP2 ADD SWAP1 PUSH2 0x185 SWAP2 SWAP1 PUSH2 0x128A JUMP JUMPDEST PUSH2 0x6A6 JUMP JUMPDEST PUSH1 0x40 MLOAD PUSH2 0x199 SWAP4 SWAP3 SWAP2 SWAP1 PUSH2 0x12C4 JUMP JUMPDEST PUSH1 0x40 MLOAD DUP1 SWAP2 SUB SWAP1 RETURN JUMPDEST PUSH2 0x1AA PUSH2 0x6FA JUMP JUMPDEST PUSH1 0x40 MLOAD PUSH2 0x1B7 SWAP2 SWAP1 PUSH2 0x138D JUMP JUMPDEST PUSH1 0x40 MLOAD DUP1 SWAP2 SUB SWAP1 RETURN JUMPDEST PUSH2 0x1DA PUSH1 0x4 DUP1 CALLDATASIZE SUB DUP2 ADD SWAP1 PUSH2 0x1D5 SWAP2 SWAP1 PUSH2 0x13A6 JUMP JUMPDEST PUSH2 0x71F JUMP JUMPDEST STOP JUMPDEST PUSH2 0x1E4 PUSH2 0x9AE JUMP JUMPDEST PUSH1 0x40 MLOAD PUSH2 0x1F1 SWAP2 SWAP1 PUSH2 0x14EA JUMP JUMPDEST PUSH1 0x40 MLOAD DUP1 SWAP2 SUB SWAP1 RETURN JUMPDEST PUSH2 0x214 PUSH1 0x4 DUP1 CALLDATASIZE SUB DUP2 ADD SWAP1 PUSH2 0x20F SWAP2 SWAP1 PUSH2 0x13A6 JUMP JUMPDEST PUSH2 0xA72 JUMP JUMPDEST STOP JUMPDEST PUSH2 0x21E PUSH2 0xBC8 JUMP JUMPDEST PUSH1 0x40 MLOAD PUSH2 0x22B SWAP2 SWAP1 PUSH2 0x14EA JUMP JUMPDEST PUSH1 0x40 MLOAD DUP1 SWAP2 SUB SWAP1 RETURN JUMPDEST PUSH2 0x24E PUSH1 0x4 DUP1 CALLDATASIZE SUB DUP2 ADD SWAP1 PUSH2 0x249 SWAP2 SWAP1 PUSH2 0x128A JUMP JUMPDEST PUSH2 0xD80 JUMP JUMPDEST PUSH1 0x40 MLOAD PUSH2 0x25B SWAP2 SWAP1 PUSH2 0x1524 JUMP JUMPDEST PUSH1 0x40 MLOAD DUP1 SWAP2 SUB SWAP1 RETURN JUMPDEST PUSH0 PUSH1 0x3 DUP1 SLOAD SWAP1 POP SWAP1 POP SWAP1 JUMP JUMPDEST PUSH0 DUP1 PUSH2 0x2BF DUP5 DUP5 DUP1 DUP1 PUSH1 0x1F ADD PUSH1 0x20 DUP1 SWAP2 DIV MUL PUSH1 0x20 ADD PUSH1 0x40 MLOAD SWAP1 DUP2 ADD PUSH1 0x40 MSTORE DUP1 SWAP4 SWAP3 SWAP2 SWAP1 DUP2 DUP2 MSTORE PUSH1 0x20 ADD DUP4 DUP4 DUP1 DUP3 DUP5 CALLDATACOPY PUSH0 DUP2 DUP5 ADD MSTORE PUSH1 0x1F NOT PUSH1 0x1F DUP3 ADD AND SWAP1 POP DUP1 DUP4 ADD SWAP3 POP POP POP POP POP POP POP PUSH0 PUSH2 0xDEA JUMP JUMPDEST SWAP1 POP PUSH1 0x3 PUSH1 0x40 MLOAD DUP1 PUSH1 0x60 ADD PUSH1 0x40 MSTORE DUP1 DUP9 PUSH20 0xFFFFFFFFFFFFFFFFFFFFFFFFFFFFFFFFFFFFFFFF AND DUP2 MSTORE PUSH1 0x20 ADD DUP8 DUP2 MSTORE PUSH1 0x20 ADD DUP4 DUP2 MSTORE POP SWAP1 DUP1 PUSH1 0x1 DUP2 SLOAD ADD DUP1 DUP3 SSTORE DUP1 SWAP2 POP POP PUSH1 0x1 SWAP1 SUB SWAP1 PUSH0 MSTORE PUSH1 0x20 PUSH0 KECCAK256 SWAP1 PUSH1 0x3 MUL ADD PUSH0 SWAP1 SWAP2 SWAP1 SWAP2 SWAP1 SWAP2 POP PUSH0 DUP3 ADD MLOAD DUP2 PUSH0 ADD PUSH0 PUSH2 0x100 EXP DUP2 SLOAD DUP2 PUSH20 0xFFFFFFFFFFFFFFFFFFFFFFFFFFFFFFFFFFFFFFFF MUL NOT AND SWAP1 DUP4 PUSH20 0xFFFFFFFFFFFFFFFFFFFFFFFFFFFFFFFFFFFFFFFF AND MUL OR SWAP1 SSTORE POP PUSH1 0x20 DUP3 ADD MLOAD DUP2 PUSH1 0x1 ADD SSTORE PUSH1 0x40 DUP3 ADD MLOAD DUP2 PUSH1 0x2 ADD SSTORE POP POP PUSH1 0x40 MLOAD DUP1 PUSH1 0x60 ADD PUSH1 0x40 MSTORE DUP1 DUP8 PUSH20 0xFFFFFFFFFFFFFFFFFFFFFFFFFFFFFFFFFFFFFFFF AND DUP2 MSTORE PUSH1 0x20 ADD DUP7 DUP2 MSTORE PUSH1 0x20 ADD DUP3 DUP2 MSTORE POP PUSH1 0x2 PUSH0 DUP8 DUP2 MSTORE PUSH1 0x20 ADD SWAP1 DUP2 MSTORE PUSH1 0x20 ADD PUSH0 KECCAK256 PUSH0 DUP3 ADD MLOAD DUP2 PUSH0 ADD PUSH0 PUSH2 0x100 EXP DUP2 SLOAD DUP2 PUSH20 0xFFFFFFFFFFFFFFFFFFFFFFFFFFFFFFFFFFFFFFFF MUL NOT AND SWAP1 DUP4 PUSH20 0xFFFFFFFFFFFFFFFFFFFFFFFFFFFFFFFFFFFFFFFF AND MUL OR SWAP1 SSTORE POP PUSH1 0x20 DUP3 ADD MLOAD DUP2 PUSH1 0x1 ADD SSTORE PUSH1 0x40 DUP3 ADD MLOAD DUP2 PUSH1 0x2 ADD SSTORE SWAP1 POP POP PUSH1 0x1 PUSH1 0x3 DUP1 SLOAD SWAP1 POP PUSH2 0x423 SWAP2 SWAP1 PUSH2 0x156A JUMP JUMPDEST PUSH1 0x4 PUSH0 DUP8 DUP2 MSTORE PUSH1 0x20 ADD SWAP1 DUP2 MSTORE PUSH1 0x20 ADD PUSH0 KECCAK256 DUP2 SWAP1 SSTORE POP PUSH32 0xD5B509E657D5EC37AE4BDCAB658B7340C0453BB630516D26623359A34C1CECF3 DUP7 DUP7 DUP4 PUSH1 0x40 MLOAD PUSH2 0x46B SWAP4 SWAP3 SWAP2 SWAP1 PUSH2 0x12C4 JUMP JUMPDEST PUSH1 0x40 MLOAD DUP1 SWAP2 SUB SWAP1 LOG1 PUSH0 DUP2 GT PUSH2 0x4B5 JUMPI PUSH1 0x40 MLOAD PUSH32 0x8C379A000000000000000000000000000000000000000000000000000000000 DUP2 MSTORE PUSH1 0x4 ADD PUSH2 0x4AC SWAP1 PUSH2 0x15F7 JUMP JUMPDEST PUSH1 0x40 MLOAD DUP1 SWAP2 SUB SWAP1 REVERT JUMPDEST PUSH4 0x150B7A02 PUSH1 0xE0 SHL SWAP2 POP POP SWAP6 SWAP5 POP POP POP POP POP JUMP JUMPDEST PUSH1 0x2 PUSH1 0x20 MSTORE DUP1 PUSH0 MSTORE PUSH1 0x40 PUSH0 KECCAK256 PUSH0 SWAP2 POP SWAP1 POP DUP1 PUSH0 ADD PUSH0 SWAP1 SLOAD SWAP1 PUSH2 0x100 EXP SWAP1 DIV PUSH20 0xFFFFFFFFFFFFFFFFFFFFFFFFFFFFFFFFFFFFFFFF AND SWAP1 DUP1 PUSH1 0x1 ADD SLOAD SWAP1 DUP1 PUSH1 0x2 ADD SLOAD SWAP1 POP DUP4 JUMP JUMPDEST PUSH0 PUSH1 0x2 PUSH0 DUP4 DUP2 MSTORE PUSH1 0x20 ADD SWAP1 DUP2 MSTORE PUSH1 0x20 ADD PUSH0 KECCAK256 PUSH0 ADD PUSH0 SWAP1 SLOAD SWAP1 PUSH2 0x100 EXP SWAP1 DIV PUSH20 0xFFFFFFFFFFFFFFFFFFFFFFFFFFFFFFFFFFFFFFFF AND SWAP1 POP DUP1 PUSH20 0xFFFFFFFFFFFFFFFFFFFFFFFFFFFFFFFFFFFFFFFF AND CALLER PUSH20 0xFFFFFFFFFFFFFFFFFFFFFFFFFFFFFFFFFFFFFFFF AND EQ PUSH2 0x5B2 JUMPI PUSH1 0x40 MLOAD PUSH32 0x8C379A000000000000000000000000000000000000000000000000000000000 DUP2 MSTORE PUSH1 0x4 ADD PUSH2 0x5A9 SWAP1 PUSH2 0x165F JUMP JUMPDEST PUSH1 0x40 MLOAD DUP1 SWAP2 SUB SWAP1 REVERT JUMPDEST PUSH1 0x1 PUSH0 SWAP1 SLOAD SWAP1 PUSH2 0x100 EXP SWAP1 DIV PUSH20 0xFFFFFFFFFFFFFFFFFFFFFFFFFFFFFFFFFFFFFFFF AND PUSH20 0xFFFFFFFFFFFFFFFFFFFFFFFFFFFFFFFFFFFFFFFF AND PUSH4 0x42842E0E ADDRESS DUP4 DUP6 PUSH1 0x40 MLOAD DUP5 PUSH4 0xFFFFFFFF AND PUSH1 0xE0 SHL DUP2 MSTORE PUSH1 0x4 ADD PUSH2 0x610 SWAP4 SWAP3 SWAP2 SWAP1 PUSH2 0x167D JUMP JUMPDEST PUSH0 PUSH1 0x40 MLOAD DUP1 DUP4 SUB DUP2 PUSH0 DUP8 DUP1 EXTCODESIZE ISZERO DUP1 ISZERO PUSH2 0x627 JUMPI PUSH0 DUP1 REVERT JUMPDEST POP GAS CALL ISZERO DUP1 ISZERO PUSH2 0x639 JUMPI RETURNDATASIZE PUSH0 DUP1 RETURNDATACOPY RETURNDATASIZE PUSH0 REVERT JUMPDEST POP POP POP POP PUSH2 0x646 DUP3 PUSH2 0xE9E JUMP JUMPDEST PUSH32 0xC62EA7D6DBBE6BAE28AAD53C0AAFB30AAC976285AC8D17598F119FEFF584F519 DUP2 DUP4 PUSH1 0x40 MLOAD PUSH2 0x677 SWAP3 SWAP2 SWAP1 PUSH2 0x16B2 JUMP JUMPDEST PUSH1 0x40 MLOAD DUP1 SWAP2 SUB SWAP1 LOG1 POP POP JUMP JUMPDEST PUSH0 DUP1 SLOAD SWAP1 PUSH2 0x100 EXP SWAP1 DIV PUSH20 0xFFFFFFFFFFFFFFFFFFFFFFFFFFFFFFFFFFFFFFFF AND DUP2 JUMP JUMPDEST PUSH1 0x3 DUP2 DUP2 SLOAD DUP2 LT PUSH2 0x6B5 JUMPI PUSH0 DUP1 REVERT JUMPDEST SWAP1 PUSH0 MSTORE PUSH1 0x20 PUSH0 KECCAK256 SWAP1 PUSH1 0x3 MUL ADD PUSH0 SWAP2 POP SWAP1 POP DUP1 PUSH0 ADD PUSH0 SWAP1 SLOAD SWAP1 PUSH2 0x100 EXP SWAP1 DIV PUSH20 0xFFFFFFFFFFFFFFFFFFFFFFFFFFFFFFFFFFFFFFFF AND SWAP1 DUP1 PUSH1 0x1 ADD SLOAD SWAP1 DUP1 PUSH1 0x2 ADD SLOAD SWAP1 POP DUP4 JUMP JUMPDEST PUSH1 0x1 PUSH0 SWAP1 SLOAD SWAP1 PUSH2 0x100 EXP SWAP1 DIV PUSH20 0xFFFFFFFFFFFFFFFFFFFFFFFFFFFFFFFFFFFFFFFF AND DUP2 JUMP JUMPDEST PUSH2 0x728 DUP3 PUSH2 0xD80 JUMP JUMPDEST PUSH2 0x767 JUMPI PUSH1 0x40 MLOAD PUSH32 0x8C379A000000000000000000000000000000000000000000000000000000000 DUP2 MSTORE PUSH1 0x4 ADD PUSH2 0x75E SWAP1 PUSH2 0x1723 JUMP JUMPDEST PUSH1 0x40 MLOAD DUP1 SWAP2 SUB SWAP1 REVERT JUMPDEST PUSH0 PUSH1 0x2 PUSH0 DUP5 DUP2 MSTORE PUSH1 0x20 ADD SWAP1 DUP2 MSTORE PUSH1 0x20 ADD PUSH0 KECCAK256 PUSH0 ADD PUSH0 SWAP1 SLOAD SWAP1 PUSH2 0x100 EXP SWAP1 DIV PUSH20 0xFFFFFFFFFFFFFFFFFFFFFFFFFFFFFFFFFFFFFFFF AND SWAP1 POP PUSH0 CALLER SWAP1 POP PUSH0 PUSH1 0x2 PUSH0 DUP7 DUP2 MSTORE PUSH1 0x20 ADD SWAP1 DUP2 MSTORE PUSH1 0x20 ADD PUSH0 KECCAK256 PUSH1 0x2 ADD SLOAD SWAP1 POP DUP4 DUP2 EQ PUSH2 0x7FB JUMPI PUSH1 0x40 MLOAD PUSH32 0x8C379A000000000000000000000000000000000000000000000000000000000 DUP2 MSTORE PUSH1 0x4 ADD PUSH2 0x7F2 SWAP1 PUSH2 0x178B JUMP JUMPDEST PUSH1 0x40 MLOAD DUP1 SWAP2 SUB SWAP1 REVERT JUMPDEST PUSH0 DUP1 SLOAD SWAP1 PUSH2 0x100 EXP SWAP1 DIV PUSH20 0xFFFFFFFFFFFFFFFFFFFFFFFFFFFFFFFFFFFFFFFF AND PUSH20 0xFFFFFFFFFFFFFFFFFFFFFFFFFFFFFFFFFFFFFFFF AND PUSH4 0x23B872DD DUP4 DUP6 DUP5 PUSH1 0x40 MLOAD DUP5 PUSH4 0xFFFFFFFF AND PUSH1 0xE0 SHL DUP2 MSTORE PUSH1 0x4 ADD PUSH2 0x857 SWAP4 SWAP3 SWAP2 SWAP1 PUSH2 0x167D JUMP JUMPDEST PUSH1 0x20 PUSH1 0x40 MLOAD DUP1 DUP4 SUB DUP2 PUSH0 DUP8 GAS CALL ISZERO DUP1 ISZERO PUSH2 0x873 JUMPI RETURNDATASIZE PUSH0 DUP1 RETURNDATACOPY RETURNDATASIZE PUSH0 REVERT JUMPDEST POP POP POP POP PUSH1 0x40 MLOAD RETURNDATASIZE PUSH1 0x1F NOT PUSH1 0x1F DUP3 ADD AND DUP3 ADD DUP1 PUSH1 0x40 MSTORE POP DUP2 ADD SWAP1 PUSH2 0x897 SWAP2 SWAP1 PUSH2 0x17D3 JUMP JUMPDEST PUSH2 0x8D6 JUMPI PUSH1 0x40 MLOAD PUSH32 0x8C379A000000000000000000000000000000000000000000000000000000000 DUP2 MSTORE PUSH1 0x4 ADD PUSH2 0x8CD SWAP1 PUSH2 0x186E JUMP JUMPDEST PUSH1 0x40 MLOAD DUP1 SWAP2 SUB SWAP1 REVERT JUMPDEST PUSH1 0x1 PUSH0 SWAP1 SLOAD SWAP1 PUSH2 0x100 EXP SWAP1 DIV PUSH20 0xFFFFFFFFFFFFFFFFFFFFFFFFFFFFFFFFFFFFFFFF AND PUSH20 0xFFFFFFFFFFFFFFFFFFFFFFFFFFFFFFFFFFFFFFFF AND PUSH4 0x42842E0E ADDRESS DUP5 DUP9 PUSH1 0x40 MLOAD DUP5 PUSH4 0xFFFFFFFF AND PUSH1 0xE0 SHL DUP2 MSTORE PUSH1 0x4 ADD PUSH2 0x934 SWAP4 SWAP3 SWAP2 SWAP1 PUSH2 0x167D JUMP JUMPDEST PUSH0 PUSH1 0x40 MLOAD DUP1 DUP4 SUB DUP2 PUSH0 DUP8 DUP1 EXTCODESIZE ISZERO DUP1 ISZERO PUSH2 0x94B JUMPI PUSH0 DUP1 REVERT JUMPDEST POP GAS CALL ISZERO DUP1 ISZERO PUSH2 0x95D JUMPI RETURNDATASIZE PUSH0 DUP1 RETURNDATACOPY RETURNDATASIZE PUSH0 REVERT JUMPDEST POP POP POP POP PUSH2 0x96A DUP6 PUSH2 0xE9E JUMP JUMPDEST PUSH32 0x424D5E5F0192C7DACDBE646CA31B00299146D883D76A95EF5CDDBAC7CD342EAB DUP3 DUP5 DUP8 DUP5 PUSH1 0x40 MLOAD PUSH2 0x99F SWAP5 SWAP4 SWAP3 SWAP2 SWAP1 PUSH2 0x188C JUMP JUMPDEST PUSH1 0x40 MLOAD DUP1 SWAP2 SUB SWAP1 LOG1 POP POP POP POP POP JUMP JUMPDEST PUSH1 0x60 PUSH1 0x3 DUP1 SLOAD DUP1 PUSH1 0x20 MUL PUSH1 0x20 ADD PUSH1 0x40 MLOAD SWAP1 DUP2 ADD PUSH1 0x40 MSTORE DUP1 SWAP3 SWAP2 SWAP1 DUP2 DUP2 MSTORE PUSH1 0x20 ADD PUSH0 SWAP1 JUMPDEST DUP3 DUP3 LT ISZERO PUSH2 0xA69 JUMPI DUP4 DUP3 SWAP1 PUSH0 MSTORE PUSH1 0x20 PUSH0 KECCAK256 SWAP1 PUSH1 0x3 MUL ADD PUSH1 0x40 MLOAD DUP1 PUSH1 0x60 ADD PUSH1 0x40 MSTORE SWAP1 DUP2 PUSH0 DUP3 ADD PUSH0 SWAP1 SLOAD SWAP1 PUSH2 0x100 EXP SWAP1 DIV PUSH20 0xFFFFFFFFFFFFFFFFFFFFFFFFFFFFFFFFFFFFFFFF AND PUSH20 0xFFFFFFFFFFFFFFFFFFFFFFFFFFFFFFFFFFFFFFFF AND PUSH20 0xFFFFFFFFFFFFFFFFFFFFFFFFFFFFFFFFFFFFFFFF AND DUP2 MSTORE PUSH1 0x20 ADD PUSH1 0x1 DUP3 ADD SLOAD DUP2 MSTORE PUSH1 0x20 ADD PUSH1 0x2 DUP3 ADD SLOAD DUP2 MSTORE POP POP DUP2 MSTORE PUSH1 0x20 ADD SWAP1 PUSH1 0x1 ADD SWAP1 PUSH2 0x9D1 JUMP JUMPDEST POP POP POP POP SWAP1 POP SWAP1 JUMP JUMPDEST PUSH0 PUSH1 0x2 PUSH0 DUP5 DUP2 MSTORE PUSH1 0x20 ADD SWAP1 DUP2 MSTORE PUSH1 0x20 ADD PUSH0 KECCAK256 PUSH0 ADD PUSH0 SWAP1 SLOAD SWAP1 PUSH2 0x100 EXP SWAP1 DIV PUSH20 0xFFFFFFFFFFFFFFFFFFFFFFFFFFFFFFFFFFFFFFFF AND SWAP1 POP DUP1 PUSH20 0xFFFFFFFFFFFFFFFFFFFFFFFFFFFFFFFFFFFFFFFF AND CALLER PUSH20 0xFFFFFFFFFFFFFFFFFFFFFFFFFFFFFFFFFFFFFFFF AND EQ PUSH2 0xB16 JUMPI PUSH1 0x40 MLOAD PUSH32 0x8C379A000000000000000000000000000000000000000000000000000000000 DUP2 MSTORE PUSH1 0x4 ADD PUSH2 0xB0D SWAP1 PUSH2 0x165F JUMP JUMPDEST PUSH1 0x40 MLOAD DUP1 SWAP2 SUB SWAP1 REVERT JUMPDEST PUSH0 PUSH1 0x2 PUSH0 DUP6 DUP2 MSTORE PUSH1 0x20 ADD SWAP1 DUP2 MSTORE PUSH1 0x20 ADD PUSH0 KECCAK256 PUSH1 0x2 ADD SLOAD SWAP1 POP DUP3 PUSH1 0x2 PUSH0 DUP7 DUP2 MSTORE PUSH1 0x20 ADD SWAP1 DUP2 MSTORE PUSH1 0x20 ADD PUSH0 KECCAK256 PUSH1 0x2 ADD DUP2 SWAP1 SSTORE POP PUSH0 PUSH1 0x3 PUSH1 0x4 PUSH0 DUP8 DUP2 MSTORE PUSH1 0x20 ADD SWAP1 DUP2 MSTORE PUSH1 0x20 ADD PUSH0 KECCAK256 SLOAD DUP2 SLOAD DUP2 LT PUSH2 0xB6D JUMPI PUSH2 0xB6C PUSH2 0x18CF JUMP JUMPDEST JUMPDEST SWAP1 PUSH0 MSTORE PUSH1 0x20 PUSH0 KECCAK256 SWAP1 PUSH1 0x3 MUL ADD SWAP1 POP DUP4 DUP2 PUSH1 0x2 ADD DUP2 SWAP1 SSTORE POP PUSH32 0x270EC2A3FDE0260445003BF676803811DB6776C19901B7481571D46E4D78AA36 DUP4 DUP7 DUP5 DUP8 PUSH1 0x40 MLOAD PUSH2 0xBB9 SWAP5 SWAP4 SWAP3 SWAP2 SWAP1 PUSH2 0x18FC JUMP JUMPDEST PUSH1 0x40 MLOAD DUP1 SWAP2 SUB SWAP1 LOG1 POP POP POP POP POP JUMP JUMPDEST PUSH1 0x60 PUSH0 PUSH1 0x3 DUP1 SLOAD SWAP1 POP PUSH8 0xFFFFFFFFFFFFFFFF DUP2 GT ISZERO PUSH2 0xBEA JUMPI PUSH2 0xBE9 PUSH2 0x193F JUMP JUMPDEST JUMPDEST PUSH1 0x40 MLOAD SWAP1 DUP1 DUP3 MSTORE DUP1 PUSH1 0x20 MUL PUSH1 0x20 ADD DUP3 ADD PUSH1 0x40 MSTORE DUP1 ISZERO PUSH2 0xC23 JUMPI DUP2 PUSH1 0x20 ADD JUMPDEST PUSH2 0xC10 PUSH2 0x1061 JUMP JUMPDEST DUP2 MSTORE PUSH1 0x20 ADD SWAP1 PUSH1 0x1 SWAP1 SUB SWAP1 DUP2 PUSH2 0xC08 JUMPI SWAP1 POP JUMPDEST POP SWAP1 POP PUSH0 DUP1 JUMPDEST PUSH1 0x3 DUP1 SLOAD SWAP1 POP DUP2 LT ISZERO PUSH2 0xD77 JUMPI CALLER PUSH20 0xFFFFFFFFFFFFFFFFFFFFFFFFFFFFFFFFFFFFFFFF AND PUSH1 0x3 DUP3 DUP2 SLOAD DUP2 LT PUSH2 0xC61 JUMPI PUSH2 0xC60 PUSH2 0x18CF JUMP JUMPDEST JUMPDEST SWAP1 PUSH0 MSTORE PUSH1 0x20 PUSH0 KECCAK256 SWAP1 PUSH1 0x3 MUL ADD PUSH0 ADD PUSH0 SWAP1 SLOAD SWAP1 PUSH2 0x100 EXP SWAP1 DIV PUSH20 0xFFFFFFFFFFFFFFFFFFFFFFFFFFFFFFFFFFFFFFFF AND PUSH20 0xFFFFFFFFFFFFFFFFFFFFFFFFFFFFFFFFFFFFFFFF AND SUB PUSH2 0xD6A JUMPI PUSH1 0x3 DUP2 DUP2 SLOAD DUP2 LT PUSH2 0xCBE JUMPI PUSH2 0xCBD PUSH2 0x18CF JUMP JUMPDEST JUMPDEST SWAP1 PUSH0 MSTORE PUSH1 0x20 PUSH0 KECCAK256 SWAP1 PUSH1 0x3 MUL ADD PUSH1 0x40 MLOAD DUP1 PUSH1 0x60 ADD PUSH1 0x40 MSTORE SWAP1 DUP2 PUSH0 DUP3 ADD PUSH0 SWAP1 SLOAD SWAP1 PUSH2 0x100 EXP SWAP1 DIV PUSH20 0xFFFFFFFFFFFFFFFFFFFFFFFFFFFFFFFFFFFFFFFF AND PUSH20 0xFFFFFFFFFFFFFFFFFFFFFFFFFFFFFFFFFFFFFFFF AND PUSH20 0xFFFFFFFFFFFFFFFFFFFFFFFFFFFFFFFFFFFFFFFF AND DUP2 MSTORE PUSH1 0x20 ADD PUSH1 0x1 DUP3 ADD SLOAD DUP2 MSTORE PUSH1 0x20 ADD PUSH1 0x2 DUP3 ADD SLOAD DUP2 MSTORE POP POP DUP4 DUP4 DUP2 MLOAD DUP2 LT PUSH2 0xD50 JUMPI PUSH2 0xD4F PUSH2 0x18CF JUMP JUMPDEST JUMPDEST PUSH1 0x20 MUL PUSH1 0x20 ADD ADD DUP2 SWAP1 MSTORE POP DUP2 DUP1 PUSH2 0xD66 SWAP1 PUSH2 0x196C JUMP JUMPDEST SWAP3 POP POP JUMPDEST DUP1 DUP1 PUSH1 0x1 ADD SWAP2 POP POP PUSH2 0xC29 JUMP JUMPDEST POP DUP2 SWAP3 POP POP POP SWAP1 JUMP JUMPDEST PUSH0 DUP1 PUSH20 0xFFFFFFFFFFFFFFFFFFFFFFFFFFFFFFFFFFFFFFFF AND PUSH1 0x2 PUSH0 DUP5 DUP2 MSTORE PUSH1 0x20 ADD SWAP1 DUP2 MSTORE PUSH1 0x20 ADD PUSH0 KECCAK256 PUSH0 ADD PUSH0 SWAP1 SLOAD SWAP1 PUSH2 0x100 EXP SWAP1 DIV PUSH20 0xFFFFFFFFFFFFFFFFFFFFFFFFFFFFFFFFFFFFFFFF AND PUSH20 0xFFFFFFFFFFFFFFFFFFFFFFFFFFFFFFFFFFFFFFFF AND EQ ISZERO SWAP1 POP SWAP2 SWAP1 POP JUMP JUMPDEST PUSH0 DUP2 PUSH1 0x20 DUP4 PUSH2 0xDF9 SWAP2 SWAP1 PUSH2 0x19B3 JUMP JUMPDEST LT ISZERO PUSH2 0xE3A JUMPI PUSH1 0x40 MLOAD PUSH32 0x8C379A000000000000000000000000000000000000000000000000000000000 DUP2 MSTORE PUSH1 0x4 ADD PUSH2 0xE31 SWAP1 PUSH2 0x1A30 JUMP JUMPDEST PUSH1 0x40 MLOAD DUP1 SWAP2 SUB SWAP1 REVERT JUMPDEST PUSH1 0x20 DUP3 PUSH2 0xE47 SWAP2 SWAP1 PUSH2 0x19B3 JUMP JUMPDEST DUP4 MLOAD LT ISZERO PUSH2 0xE8A JUMPI PUSH1 0x40 MLOAD PUSH32 0x8C379A000000000000000000000000000000000000000000000000000000000 DUP2 MSTORE PUSH1 0x4 ADD PUSH2 0xE81 SWAP1 PUSH2 0x1A98 JUMP JUMPDEST PUSH1 0x40 MLOAD DUP1 SWAP2 SUB SWAP1 REVERT JUMPDEST PUSH0 DUP3 PUSH1 0x20 DUP6 ADD ADD MLOAD SWAP1 POP DUP1 SWAP2 POP POP SWAP3 SWAP2 POP POP JUMP JUMPDEST PUSH0 PUSH1 0x4 PUSH0 DUP4 DUP2 MSTORE PUSH1 0x20 ADD SWAP1 DUP2 MSTORE PUSH1 0x20 ADD PUSH0 KECCAK256 SLOAD SWAP1 POP PUSH0 PUSH1 0x1 PUSH1 0x3 DUP1 SLOAD SWAP1 POP PUSH2 0xEC6 SWAP2 SWAP1 PUSH2 0x156A JUMP JUMPDEST SWAP1 POP DUP1 DUP3 EQ PUSH2 0xFA5 JUMPI PUSH0 PUSH1 0x3 DUP3 DUP2 SLOAD DUP2 LT PUSH2 0xEE4 JUMPI PUSH2 0xEE3 PUSH2 0x18CF JUMP JUMPDEST JUMPDEST SWAP1 PUSH0 MSTORE PUSH1 0x20 PUSH0 KECCAK256 SWAP1 PUSH1 0x3 MUL ADD SWAP1 POP DUP1 PUSH1 0x3 DUP5 DUP2 SLOAD DUP2 LT PUSH2 0xF07 JUMPI PUSH2 0xF06 PUSH2 0x18CF JUMP JUMPDEST JUMPDEST SWAP1 PUSH0 MSTORE PUSH1 0x20 PUSH0 KECCAK256 SWAP1 PUSH1 0x3 MUL ADD PUSH0 DUP3 ADD PUSH0 SWAP1 SLOAD SWAP1 PUSH2 0x100 EXP SWAP1 DIV PUSH20 0xFFFFFFFFFFFFFFFFFFFFFFFFFFFFFFFFFFFFFFFF AND DUP2 PUSH0 ADD PUSH0 PUSH2 0x100 EXP DUP2 SLOAD DUP2 PUSH20 0xFFFFFFFFFFFFFFFFFFFFFFFFFFFFFFFFFFFFFFFF MUL NOT AND SWAP1 DUP4 PUSH20 0xFFFFFFFFFFFFFFFFFFFFFFFFFFFFFFFFFFFFFFFF AND MUL OR SWAP1 SSTORE POP PUSH1 0x1 DUP3 ADD SLOAD DUP2 PUSH1 0x1 ADD SSTORE PUSH1 0x2 DUP3 ADD SLOAD DUP2 PUSH1 0x2 ADD SSTORE SWAP1 POP POP DUP3 PUSH1 0x4 PUSH0 DUP7 DUP2 MSTORE PUSH1 0x20 ADD SWAP1 DUP2 MSTORE PUSH1 0x20 ADD PUSH0 KECCAK256 DUP2 SWAP1 SSTORE POP POP JUMPDEST PUSH1 0x3 DUP1 SLOAD DUP1 PUSH2 0xFB7 JUMPI PUSH2 0xFB6 PUSH2 0x1AB6 JUMP JUMPDEST JUMPDEST PUSH1 0x1 SWAP1 SUB DUP2 DUP2 SWAP1 PUSH0 MSTORE PUSH1 0x20 PUSH0 KECCAK256 SWAP1 PUSH1 0x3 MUL ADD PUSH0 DUP1 DUP3 ADD PUSH0 PUSH2 0x100 EXP DUP2 SLOAD SWAP1 PUSH20 0xFFFFFFFFFFFFFFFFFFFFFFFFFFFFFFFFFFFFFFFF MUL NOT AND SWAP1 SSTORE PUSH1 0x1 DUP3 ADD PUSH0 SWAP1 SSTORE PUSH1 0x2 DUP3 ADD PUSH0 SWAP1 SSTORE POP POP SWAP1 SSTORE PUSH1 0x4 PUSH0 DUP5 DUP2 MSTORE PUSH1 0x20 ADD SWAP1 DUP2 MSTORE PUSH1 0x20 ADD PUSH0 KECCAK256 PUSH0 SWAP1 SSTORE PUSH1 0x2 PUSH0 DUP5 DUP2 MSTORE PUSH1 0x20 ADD SWAP1 DUP2 MSTORE PUSH1 0x20 ADD PUSH0 KECCAK256 PUSH0 DUP1 DUP3 ADD PUSH0 PUSH2 0x100 EXP DUP2 SLOAD SWAP1 PUSH20 0xFFFFFFFFFFFFFFFFFFFFFFFFFFFFFFFFFFFFFFFF MUL NOT AND SWAP1 SSTORE PUSH1 0x1 DUP3 ADD PUSH0 SWAP1 SSTORE PUSH1 0x2 DUP3 ADD PUSH0 SWAP1 SSTORE POP POP POP POP POP JUMP JUMPDEST PUSH1 0x40 MLOAD DUP1 PUSH1 0x60 ADD PUSH1 0x40 MSTORE DUP1 PUSH0 PUSH20 0xFFFFFFFFFFFFFFFFFFFFFFFFFFFFFFFFFFFFFFFF AND DUP2 MSTORE PUSH1 0x20 ADD PUSH0 DUP2 MSTORE PUSH1 0x20 ADD PUSH0 DUP2 MSTORE POP SWAP1 JUMP JUMPDEST PUSH0 DUP2 SWAP1 POP SWAP2 SWAP1 POP JUMP JUMPDEST PUSH2 0x10A7 DUP2 PUSH2 0x1095 JUMP JUMPDEST DUP3 MSTORE POP POP JUMP JUMPDEST PUSH0 PUSH1 0x20 DUP3 ADD SWAP1 POP PUSH2 0x10C0 PUSH0 DUP4 ADD DUP5 PUSH2 0x109E JUMP JUMPDEST SWAP3 SWAP2 POP POP JUMP JUMPDEST PUSH0 DUP1 REVERT JUMPDEST PUSH0 DUP1 REVERT JUMPDEST PUSH0 PUSH20 0xFFFFFFFFFFFFFFFFFFFFFFFFFFFFFFFFFFFFFFFF DUP3 AND SWAP1 POP SWAP2 SWAP1 POP JUMP JUMPDEST PUSH0 PUSH2 0x10F7 DUP3 PUSH2 0x10CE JUMP JUMPDEST SWAP1 POP SWAP2 SWAP1 POP JUMP JUMPDEST PUSH2 0x1107 DUP2 PUSH2 0x10ED JUMP JUMPDEST DUP2 EQ PUSH2 0x1111 JUMPI PUSH0 DUP1 REVERT JUMPDEST POP JUMP JUMPDEST PUSH0 DUP2 CALLDATALOAD SWAP1 POP PUSH2 0x1122 DUP2 PUSH2 0x10FE JUMP JUMPDEST SWAP3 SWAP2 POP POP JUMP JUMPDEST PUSH2 0x1131 DUP2 PUSH2 0x1095 JUMP JUMPDEST DUP2 EQ PUSH2 0x113B JUMPI PUSH0 DUP1 REVERT JUMPDEST POP JUMP JUMPDEST PUSH0 DUP2 CALLDATALOAD SWAP1 POP PUSH2 0x114C DUP2 PUSH2 0x1128 JUMP JUMPDEST SWAP3 SWAP2 POP POP JUMP JUMPDEST PUSH0 DUP1 REVERT JUMPDEST PUSH0 DUP1 REVERT JUMPDEST PUSH0 DUP1 REVERT JUMPDEST PUSH0 DUP1 DUP4 PUSH1 0x1F DUP5 ADD SLT PUSH2 0x1173 JUMPI PUSH2 0x1172 PUSH2 0x1152 JUMP JUMPDEST JUMPDEST DUP3 CALLDATALOAD SWAP1 POP PUSH8 0xFFFFFFFFFFFFFFFF DUP2 GT ISZERO PUSH2 0x1190 JUMPI PUSH2 0x118F PUSH2 0x1156 JUMP JUMPDEST JUMPDEST PUSH1 0x20 DUP4 ADD SWAP2 POP DUP4 PUSH1 0x1 DUP3 MUL DUP4 ADD GT ISZERO PUSH2 0x11AC JUMPI PUSH2 0x11AB PUSH2 0x115A JUMP JUMPDEST JUMPDEST SWAP3 POP SWAP3 SWAP1 POP JUMP JUMPDEST PUSH0 DUP1 PUSH0 DUP1 PUSH0 PUSH1 0x80 DUP7 DUP9 SUB SLT ISZERO PUSH2 0x11CC JUMPI PUSH2 0x11CB PUSH2 0x10C6 JUMP JUMPDEST JUMPDEST PUSH0 PUSH2 0x11D9 DUP9 DUP3 DUP10 ADD PUSH2 0x1114 JUMP JUMPDEST SWAP6 POP POP PUSH1 0x20 PUSH2 0x11EA DUP9 DUP3 DUP10 ADD PUSH2 0x1114 JUMP JUMPDEST SWAP5 POP POP PUSH1 0x40 PUSH2 0x11FB DUP9 DUP3 DUP10 ADD PUSH2 0x113E JUMP JUMPDEST SWAP4 POP POP PUSH1 0x60 DUP7 ADD CALLDATALOAD PUSH8 0xFFFFFFFFFFFFFFFF DUP2 GT ISZERO PUSH2 0x121C JUMPI PUSH2 0x121B PUSH2 0x10CA JUMP JUMPDEST JUMPDEST PUSH2 0x1228 DUP9 DUP3 DUP10 ADD PUSH2 0x115E JUMP JUMPDEST SWAP3 POP SWAP3 POP POP SWAP3 SWAP6 POP SWAP3 SWAP6 SWAP1 SWAP4 POP JUMP JUMPDEST PUSH0 PUSH32 0xFFFFFFFF00000000000000000000000000000000000000000000000000000000 DUP3 AND SWAP1 POP SWAP2 SWAP1 POP JUMP JUMPDEST PUSH2 0x126B DUP2 PUSH2 0x1237 JUMP JUMPDEST DUP3 MSTORE POP POP JUMP JUMPDEST PUSH0 PUSH1 0x20 DUP3 ADD SWAP1 POP PUSH2 0x1284 PUSH0 DUP4 ADD DUP5 PUSH2 0x1262 JUMP JUMPDEST SWAP3 SWAP2 POP POP JUMP JUMPDEST PUSH0 PUSH1 0x20 DUP3 DUP5 SUB SLT ISZERO PUSH2 0x129F JUMPI PUSH2 0x129E PUSH2 0x10C6 JUMP JUMPDEST JUMPDEST PUSH0 PUSH2 0x12AC DUP5 DUP3 DUP6 ADD PUSH2 0x113E JUMP JUMPDEST SWAP2 POP POP SWAP3 SWAP2 POP POP JUMP JUMPDEST PUSH2 0x12BE DUP2 PUSH2 0x10ED JUMP JUMPDEST DUP3 MSTORE POP POP JUMP JUMPDEST PUSH0 PUSH1 0x60 DUP3 ADD SWAP1 POP PUSH2 0x12D7 PUSH0 DUP4 ADD DUP7 PUSH2 0x12B5 JUMP JUMPDEST PUSH2 0x12E4 PUSH1 0x20 DUP4 ADD DUP6 PUSH2 0x109E JUMP JUMPDEST PUSH2 0x12F1 PUSH1 0x40 DUP4 ADD DUP5 PUSH2 0x109E JUMP JUMPDEST SWAP5 SWAP4 POP POP POP POP JUMP JUMPDEST PUSH0 DUP2 SWAP1 POP SWAP2 SWAP1 POP JUMP JUMPDEST PUSH0 PUSH2 0x131C PUSH2 0x1317 PUSH2 0x1312 DUP5 PUSH2 0x10CE JUMP JUMPDEST PUSH2 0x12F9 JUMP JUMPDEST PUSH2 0x10CE JUMP JUMPDEST SWAP1 POP SWAP2 SWAP1 POP JUMP JUMPDEST PUSH0 PUSH2 0x132D DUP3 PUSH2 0x1302 JUMP JUMPDEST SWAP1 POP SWAP2 SWAP1 POP JUMP JUMPDEST PUSH0 PUSH2 0x133E DUP3 PUSH2 0x1323 JUMP JUMPDEST SWAP1 POP SWAP2 SWAP1 POP JUMP JUMPDEST PUSH2 0x134E DUP2 PUSH2 0x1334 JUMP JUMPDEST DUP3 MSTORE POP POP JUMP JUMPDEST PUSH0 PUSH1 0x20 DUP3 ADD SWAP1 POP PUSH2 0x1367 PUSH0 DUP4 ADD DUP5 PUSH2 0x1345 JUMP JUMPDEST SWAP3 SWAP2 POP POP JUMP JUMPDEST PUSH0 PUSH2 0x1377 DUP3 PUSH2 0x1323 JUMP JUMPDEST SWAP1 POP SWAP2 SWAP1 POP JUMP JUMPDEST PUSH2 0x1387 DUP2 PUSH2 0x136D JUMP JUMPDEST DUP3 MSTORE POP POP JUMP JUMPDEST PUSH0 PUSH1 0x20 DUP3 ADD SWAP1 POP PUSH2 0x13A0 PUSH0 DUP4 ADD DUP5 PUSH2 0x137E JUMP JUMPDEST SWAP3 SWAP2 POP POP JUMP JUMPDEST PUSH0 DUP1 PUSH1 0x40 DUP4 DUP6 SUB SLT ISZERO PUSH2 0x13BC JUMPI PUSH2 0x13BB PUSH2 0x10C6 JUMP JUMPDEST JUMPDEST PUSH0 PUSH2 0x13C9 DUP6 DUP3 DUP7 ADD PUSH2 0x113E JUMP JUMPDEST SWAP3 POP POP PUSH1 0x20 PUSH2 0x13DA DUP6 DUP3 DUP7 ADD PUSH2 0x113E JUMP JUMPDEST SWAP2 POP POP SWAP3 POP SWAP3 SWAP1 POP JUMP JUMPDEST PUSH0 DUP2 MLOAD SWAP1 POP SWAP2 SWAP1 POP JUMP JUMPDEST PUSH0 DUP3 DUP3 MSTORE PUSH1 0x20 DUP3 ADD SWAP1 POP SWAP3 SWAP2 POP POP JUMP JUMPDEST PUSH0 DUP2 SWAP1 POP PUSH1 0x20 DUP3 ADD SWAP1 POP SWAP2 SWAP1 POP JUMP JUMPDEST PUSH2 0x1416 DUP2 PUSH2 0x10ED JUMP JUMPDEST DUP3 MSTORE POP POP JUMP JUMPDEST PUSH2 0x1425 DUP2 PUSH2 0x1095 JUMP JUMPDEST DUP3 MSTORE POP POP JUMP JUMPDEST PUSH1 0x60 DUP3 ADD PUSH0 DUP3 ADD MLOAD PUSH2 0x143F PUSH0 DUP6 ADD DUP3 PUSH2 0x140D JUMP JUMPDEST POP PUSH1 0x20 DUP3 ADD MLOAD PUSH2 0x1452 PUSH1 0x20 DUP6 ADD DUP3 PUSH2 0x141C JUMP JUMPDEST POP PUSH1 0x40 DUP3 ADD MLOAD PUSH2 0x1465 PUSH1 0x40 DUP6 ADD DUP3 PUSH2 0x141C JUMP JUMPDEST POP POP POP POP JUMP JUMPDEST PUSH0 PUSH2 0x1476 DUP4 DUP4 PUSH2 0x142B JUMP JUMPDEST PUSH1 0x60 DUP4 ADD SWAP1 POP SWAP3 SWAP2 POP POP JUMP JUMPDEST PUSH0 PUSH1 0x20 DUP3 ADD SWAP1 POP SWAP2 SWAP1 POP JUMP JUMPDEST PUSH0 PUSH2 0x1498 DUP3 PUSH2 0x13E4 JUMP JUMPDEST PUSH2 0x14A2 DUP2 DUP6 PUSH2 0x13EE JUMP JUMPDEST SWAP4 POP PUSH2 0x14AD DUP4 PUSH2 0x13FE JUMP JUMPDEST DUP1 PUSH0 JUMPDEST DUP4 DUP2 LT ISZERO PUSH2 0x14DD JUMPI DUP2 MLOAD PUSH2 0x14C4 DUP9 DUP3 PUSH2 0x146B JUMP JUMPDEST SWAP8 POP PUSH2 0x14CF DUP4 PUSH2 0x1482 JUMP JUMPDEST SWAP3 POP POP PUSH1 0x1 DUP2 ADD SWAP1 POP PUSH2 0x14B0 JUMP JUMPDEST POP DUP6 SWAP4 POP POP POP POP SWAP3 SWAP2 POP POP JUMP JUMPDEST PUSH0 PUSH1 0x20 DUP3 ADD SWAP1 POP DUP2 DUP2 SUB PUSH0 DUP4 ADD MSTORE PUSH2 0x1502 DUP2 DUP5 PUSH2 0x148E JUMP JUMPDEST SWAP1 POP SWAP3 SWAP2 POP POP JUMP JUMPDEST PUSH0 DUP2 ISZERO ISZERO SWAP1 POP SWAP2 SWAP1 POP JUMP JUMPDEST PUSH2 0x151E DUP2 PUSH2 0x150A JUMP JUMPDEST DUP3 MSTORE POP POP JUMP JUMPDEST PUSH0 PUSH1 0x20 DUP3 ADD SWAP1 POP PUSH2 0x1537 PUSH0 DUP4 ADD DUP5 PUSH2 0x1515 JUMP JUMPDEST SWAP3 SWAP2 POP POP JUMP JUMPDEST PUSH32 0x4E487B7100000000000000000000000000000000000000000000000000000000 PUSH0 MSTORE PUSH1 0x11 PUSH1 0x4 MSTORE PUSH1 0x24 PUSH0 REVERT JUMPDEST PUSH0 PUSH2 0x1574 DUP3 PUSH2 0x1095 JUMP JUMPDEST SWAP2 POP PUSH2 0x157F DUP4 PUSH2 0x1095 JUMP JUMPDEST SWAP3 POP DUP3 DUP3 SUB SWAP1 POP DUP2 DUP2 GT ISZERO PUSH2 0x1597 JUMPI PUSH2 0x1596 PUSH2 0x153D JUMP JUMPDEST JUMPDEST SWAP3 SWAP2 POP POP JUMP JUMPDEST PUSH0 DUP3 DUP3 MSTORE PUSH1 0x20 DUP3 ADD SWAP1 POP SWAP3 SWAP2 POP POP JUMP JUMPDEST PUSH32 0x7072696365206D7573742062652067726561746572207468616E203000000000 PUSH0 DUP3 ADD MSTORE POP JUMP JUMPDEST PUSH0 PUSH2 0x15E1 PUSH1 0x1C DUP4 PUSH2 0x159D JUMP JUMPDEST SWAP2 POP PUSH2 0x15EC DUP3 PUSH2 0x15AD JUMP JUMPDEST PUSH1 0x20 DUP3 ADD SWAP1 POP SWAP2 SWAP1 POP JUMP JUMPDEST PUSH0 PUSH1 0x20 DUP3 ADD SWAP1 POP DUP2 DUP2 SUB PUSH0 DUP4 ADD MSTORE PUSH2 0x160E DUP2 PUSH2 0x15D5 JUMP JUMPDEST SWAP1 POP SWAP2 SWAP1 POP JUMP JUMPDEST PUSH32 0x6E6F742073656C6C657200000000000000000000000000000000000000000000 PUSH0 DUP3 ADD MSTORE POP JUMP JUMPDEST PUSH0 PUSH2 0x1649 PUSH1 0xA DUP4 PUSH2 0x159D JUMP JUMPDEST SWAP2 POP PUSH2 0x1654 DUP3 PUSH2 0x1615 JUMP JUMPDEST PUSH1 0x20 DUP3 ADD SWAP1 POP SWAP2 SWAP1 POP JUMP JUMPDEST PUSH0 PUSH1 0x20 DUP3 ADD SWAP1 POP DUP2 DUP2 SUB PUSH0 DUP4 ADD MSTORE PUSH2 0x1676 DUP2 PUSH2 0x163D JUMP JUMPDEST SWAP1 POP SWAP2 SWAP1 POP JUMP JUMPDEST PUSH0 PUSH1 0x60 DUP3 ADD SWAP1 POP PUSH2 0x1690 PUSH0 DUP4 ADD DUP7 PUSH2 0x12B5 JUMP JUMPDEST PUSH2 0x169D PUSH1 0x20 DUP4 ADD DUP6 PUSH2 0x12B5 JUMP JUMPDEST PUSH2 0x16AA PUSH1 0x40 DUP4 ADD DUP5 PUSH2 0x109E JUMP JUMPDEST SWAP5 SWAP4 POP POP POP POP JUMP JUMPDEST PUSH0 PUSH1 0x40 DUP3 ADD SWAP1 POP PUSH2 0x16C5 PUSH0 DUP4 ADD DUP6 PUSH2 0x12B5 JUMP JUMPDEST PUSH2 0x16D2 PUSH1 0x20 DUP4 ADD DUP5 PUSH2 0x109E JUMP JUMPDEST SWAP4 SWAP3 POP POP POP JUMP JUMPDEST PUSH32 0x4D61726B65743A20546F6B656E204944206973206E6F74206C69737465640000 PUSH0 DUP3 ADD MSTORE POP JUMP JUMPDEST PUSH0 PUSH2 0x170D PUSH1 0x1E DUP4 PUSH2 0x159D JUMP JUMPDEST SWAP2 POP PUSH2 0x1718 DUP3 PUSH2 0x16D9 JUMP JUMPDEST PUSH1 0x20 DUP3 ADD SWAP1 POP SWAP2 SWAP1 POP JUMP JUMPDEST PUSH0 PUSH1 0x20 DUP3 ADD SWAP1 POP DUP2 DUP2 SUB PUSH0 DUP4 ADD MSTORE PUSH2 0x173A DUP2 PUSH2 0x1701 JUMP JUMPDEST SWAP1 POP SWAP2 SWAP1 POP JUMP JUMPDEST PUSH32 0x4D61726B65743A207072696365206973206E6F7420657175616C000000000000 PUSH0 DUP3 ADD MSTORE POP JUMP JUMPDEST PUSH0 PUSH2 0x1775 PUSH1 0x1A DUP4 PUSH2 0x159D JUMP JUMPDEST SWAP2 POP PUSH2 0x1780 DUP3 PUSH2 0x1741 JUMP JUMPDEST PUSH1 0x20 DUP3 ADD SWAP1 POP SWAP2 SWAP1 POP JUMP JUMPDEST PUSH0 PUSH1 0x20 DUP3 ADD SWAP1 POP DUP2 DUP2 SUB PUSH0 DUP4 ADD MSTORE PUSH2 0x17A2 DUP2 PUSH2 0x1769 JUMP JUMPDEST SWAP1 POP SWAP2 SWAP1 POP JUMP JUMPDEST PUSH2 0x17B2 DUP2 PUSH2 0x150A JUMP JUMPDEST DUP2 EQ PUSH2 0x17BC JUMPI PUSH0 DUP1 REVERT JUMPDEST POP JUMP JUMPDEST PUSH0 DUP2 MLOAD SWAP1 POP PUSH2 0x17CD DUP2 PUSH2 0x17A9 JUMP JUMPDEST SWAP3 SWAP2 POP POP JUMP JUMPDEST PUSH0 PUSH1 0x20 DUP3 DUP5 SUB SLT ISZERO PUSH2 0x17E8 JUMPI PUSH2 0x17E7 PUSH2 0x10C6 JUMP JUMPDEST JUMPDEST PUSH0 PUSH2 0x17F5 DUP5 DUP3 DUP6 ADD PUSH2 0x17BF JUMP JUMPDEST SWAP2 POP POP SWAP3 SWAP2 POP POP JUMP JUMPDEST PUSH32 0x4D61726B65743A204552433230207472616E73666572206E6F74207375636365 PUSH0 DUP3 ADD MSTORE PUSH32 0x737366756C6C0000000000000000000000000000000000000000000000000000 PUSH1 0x20 DUP3 ADD MSTORE POP JUMP JUMPDEST PUSH0 PUSH2 0x1858 PUSH1 0x26 DUP4 PUSH2 0x159D JUMP JUMPDEST SWAP2 POP PUSH2 0x1863 DUP3 PUSH2 0x17FE JUMP JUMPDEST PUSH1 0x40 DUP3 ADD SWAP1 POP SWAP2 SWAP1 POP JUMP JUMPDEST PUSH0 PUSH1 0x20 DUP3 ADD SWAP1 POP DUP2 DUP2 SUB PUSH0 DUP4 ADD MSTORE PUSH2 0x1885 DUP2 PUSH2 0x184C JUMP JUMPDEST SWAP1 POP SWAP2 SWAP1 POP JUMP JUMPDEST PUSH0 PUSH1 0x80 DUP3 ADD SWAP1 POP PUSH2 0x189F PUSH0 DUP4 ADD DUP8 PUSH2 0x12B5 JUMP JUMPDEST PUSH2 0x18AC PUSH1 0x20 DUP4 ADD DUP7 PUSH2 0x12B5 JUMP JUMPDEST PUSH2 0x18B9 PUSH1 0x40 DUP4 ADD DUP6 PUSH2 0x109E JUMP JUMPDEST PUSH2 0x18C6 PUSH1 0x60 DUP4 ADD DUP5 PUSH2 0x109E JUMP JUMPDEST SWAP6 SWAP5 POP POP POP POP POP JUMP JUMPDEST PUSH32 0x4E487B7100000000000000000000000000000000000000000000000000000000 PUSH0 MSTORE PUSH1 0x32 PUSH1 0x4 MSTORE PUSH1 0x24 PUSH0 REVERT JUMPDEST PUSH0 PUSH1 0x80 DUP3 ADD SWAP1 POP PUSH2 0x190F PUSH0 DUP4 ADD DUP8 PUSH2 0x12B5 JUMP JUMPDEST PUSH2 0x191C PUSH1 0x20 DUP4 ADD DUP7 PUSH2 0x109E JUMP JUMPDEST PUSH2 0x1929 PUSH1 0x40 DUP4 ADD DUP6 PUSH2 0x109E JUMP JUMPDEST PUSH2 0x1936 PUSH1 0x60 DUP4 ADD DUP5 PUSH2 0x109E JUMP JUMPDEST SWAP6 SWAP5 POP POP POP POP POP JUMP JUMPDEST PUSH32 0x4E487B7100000000000000000000000000000000000000000000000000000000 PUSH0 MSTORE PUSH1 0x41 PUSH1 0x4 MSTORE PUSH1 0x24 PUSH0 REVERT JUMPDEST PUSH0 PUSH2 0x1976 DUP3 PUSH2 0x1095 JUMP JUMPDEST SWAP2 POP PUSH32 0xFFFFFFFFFFFFFFFFFFFFFFFFFFFFFFFFFFFFFFFFFFFFFFFFFFFFFFFFFFFFFFFF DUP3 SUB PUSH2 0x19A8 JUMPI PUSH2 0x19A7 PUSH2 0x153D JUMP JUMPDEST JUMPDEST PUSH1 0x1 DUP3 ADD SWAP1 POP SWAP2 SWAP1 POP JUMP JUMPDEST PUSH0 PUSH2 0x19BD DUP3 PUSH2 0x1095 JUMP JUMPDEST SWAP2 POP PUSH2 0x19C8 DUP4 PUSH2 0x1095 JUMP JUMPDEST SWAP3 POP DUP3 DUP3 ADD SWAP1 POP DUP1 DUP3 GT ISZERO PUSH2 0x19E0 JUMPI PUSH2 0x19DF PUSH2 0x153D JUMP JUMPDEST JUMPDEST SWAP3 SWAP2 POP POP JUMP JUMPDEST PUSH32 0x4D61726B65743A20746F55696E743235365F6F766572666C6F77000000000000 PUSH0 DUP3 ADD MSTORE POP JUMP JUMPDEST PUSH0 PUSH2 0x1A1A PUSH1 0x1A DUP4 PUSH2 0x159D JUMP JUMPDEST SWAP2 POP PUSH2 0x1A25 DUP3 PUSH2 0x19E6 JUMP JUMPDEST PUSH1 0x20 DUP3 ADD SWAP1 POP SWAP2 SWAP1 POP JUMP JUMPDEST PUSH0 PUSH1 0x20 DUP3 ADD SWAP1 POP DUP2 DUP2 SUB PUSH0 DUP4 ADD MSTORE PUSH2 0x1A47 DUP2 PUSH2 0x1A0E JUMP JUMPDEST SWAP1 POP SWAP2 SWAP1 POP JUMP JUMPDEST PUSH32 0x4D61726B65743A20746F55696E743235365F6F75744F66426F756E6473000000 PUSH0 DUP3 ADD MSTORE POP JUMP JUMPDEST PUSH0 PUSH2 0x1A82 PUSH1 0x1D DUP4 PUSH2 0x159D JUMP JUMPDEST SWAP2 POP PUSH2 0x1A8D DUP3 PUSH2 0x1A4E JUMP JUMPDEST PUSH1 0x20 DUP3 ADD SWAP1 POP SWAP2 SWAP1 POP JUMP JUMPDEST PUSH0 PUSH1 0x20 DUP3 ADD SWAP1 POP DUP2 DUP2 SUB PUSH0 DUP4 ADD MSTORE PUSH2 0x1AAF DUP2 PUSH2 0x1A76 JUMP JUMPDEST SWAP1 POP SWAP2 SWAP1 POP JUMP JUMPDEST PUSH32 0x4E487B7100000000000000000000000000000000000000000000000000000000 PUSH0 MSTORE PUSH1 0x31 PUSH1 0x4 MSTORE PUSH1 0x24 PUSH0 REVERT INVALID LOG2 PUSH5 0x6970667358 0x22 SLT KECCAK256 0xAA GASLIMIT EXTCODEHASH SWAP10 0xF6 ADDMOD 0xF7 0x2F AND 0xB7 0xB2 RETURNDATACOPY 0x22 PREVRANDAO DUP16 MSTORE8 0x25 PUSH0 0xD0 PREVRANDAO MCOPY 0xDF 0xD PUSH17 0x9850CCA6FBB8A14D64736F6C634300081A STOP CALLER "
				},
				"gasEstimates": {
					"creation": {
						"codeDepositCost": "1387400",
						"executionCost": "infinite",
						"totalCost": "infinite"
					},
					"external": {
						"buy(uint256,uint256)": "infinite",
						"cancelOrder(uint256)": "infinite",
						"chagePrice(uint256,uint256)": "infinite",
						"erc20()": "infinite",
						"erc721()": "infinite",
						"getAllNFTs()": "infinite",
						"getMyNFTS()": "infinite",
						"getOrdersLength()": "2441",
						"isListed(uint256)": "2946",
						"onERC721Received(address,address,uint256,bytes)": "infinite",
						"orderOfId(uint256)": "infinite",
						"orders(uint256)": "infinite"
					},
					"internal": {
						"removeOrder(uint256)": "infinite",
						"toUint256(bytes memory,uint256)": "infinite"
					}
				},
				"methodIdentifiers": {
					"buy(uint256,uint256)": "d6febde8",
					"cancelOrder(uint256)": "514fcac7",
					"chagePrice(uint256,uint256)": "e5ac40b3",
					"erc20()": "785e9e86",
					"erc721()": "bca6ce64",
					"getAllNFTs()": "e0391b09",
					"getMyNFTS()": "e9e8e962",
					"getOrdersLength()": "07c2e16c",
					"isListed(uint256)": "fcce4883",
					"onERC721Received(address,address,uint256,bytes)": "150b7a02",
					"orderOfId(uint256)": "394a9077",
					"orders(uint256)": "a85c38ef"
				}
			},
			"storageLayout": {
				"storage": [
					{
						"astId": 213,
						"contract": "contracts/nft-market.sol:Market",
						"label": "erc20",
						"offset": 0,
						"slot": "0",
						"type": "t_contract(IERC20)77"
					},
					{
						"astId": 216,
						"contract": "contracts/nft-market.sol:Market",
						"label": "erc721",
						"offset": 0,
						"slot": "1",
						"type": "t_contract(IERC721)194"
					},
					{
						"astId": 231,
						"contract": "contracts/nft-market.sol:Market",
						"label": "orderOfId",
						"offset": 0,
						"slot": "2",
						"type": "t_mapping(t_uint256,t_struct(Order)226_storage)"
					},
					{
						"astId": 235,
						"contract": "contracts/nft-market.sol:Market",
						"label": "orders",
						"offset": 0,
						"slot": "3",
						"type": "t_array(t_struct(Order)226_storage)dyn_storage"
					},
					{
						"astId": 239,
						"contract": "contracts/nft-market.sol:Market",
						"label": "idToOrderIndex",
						"offset": 0,
						"slot": "4",
						"type": "t_mapping(t_uint256,t_uint256)"
					}
				],
				"types": {
					"t_address": {
						"encoding": "inplace",
						"label": "address",
						"numberOfBytes": "20"
					},
					"t_array(t_struct(Order)226_storage)dyn_storage": {
						"base": "t_struct(Order)226_storage",
						"encoding": "dynamic_array",
						"label": "struct Market.Order[]",
						"numberOfBytes": "32"
					},
					"t_contract(IERC20)77": {
						"encoding": "inplace",
						"label": "contract IERC20",
						"numberOfBytes": "20"
					},
					"t_contract(IERC721)194": {
						"encoding": "inplace",
						"label": "contract IERC721",
						"numberOfBytes": "20"
					},
					"t_mapping(t_uint256,t_struct(Order)226_storage)": {
						"encoding": "mapping",
						"key": "t_uint256",
						"label": "mapping(uint256 => struct Market.Order)",
						"numberOfBytes": "32",
						"value": "t_struct(Order)226_storage"
					},
					"t_mapping(t_uint256,t_uint256)": {
						"encoding": "mapping",
						"key": "t_uint256",
						"label": "mapping(uint256 => uint256)",
						"numberOfBytes": "32",
						"value": "t_uint256"
					},
					"t_struct(Order)226_storage": {
						"encoding": "inplace",
						"label": "struct Market.Order",
						"members": [
							{
								"astId": 221,
								"contract": "contracts/nft-market.sol:Market",
								"label": "seller",
								"offset": 0,
								"slot": "0",
								"type": "t_address"
							},
							{
								"astId": 223,
								"contract": "contracts/nft-market.sol:Market",
								"label": "tokenId",
								"offset": 0,
								"slot": "1",
								"type": "t_uint256"
							},
							{
								"astId": 225,
								"contract": "contracts/nft-market.sol:Market",
								"label": "price",
								"offset": 0,
								"slot": "2",
								"type": "t_uint256"
							}
						],
						"numberOfBytes": "96"
					},
					"t_uint256": {
						"encoding": "inplace",
						"label": "uint256",
						"numberOfBytes": "32"
					}
				}
			},
			"userdoc": {
				"kind": "user",
				"methods": {},
				"version": 1
			}
		}
	}
}